:020000040800F2
:10000000302800209D01000807320008EF2C00086E
:100010000532000893110008CB51000800000000D1
:1000200000000000000000000000000005010008C2
:10003000191200080000000049010008C939000831
:10004000B7010008B7010008B7010008B7010008B0
:10005000B7010008B7010008B7010008B7010008A0
:10006000B7010008B7010008B7010008B701000890
:10007000B7010008B7010008B7010008B701000880
:100080000D120008B7010008B7010008B701000809
:1000900055510008B7010008B7010008B701000872
:1000A000B7010008B7010008B7010008B701000850
:1000B000593A0008B7010008B7010008B701000865
:1000C000B7010008B7010008B7010008B701000830
:1000D000B7010008B7010008B7010008B701000820
:1000E000B7010008B7010008B7010008DFF810D019
:1000F00000F0E2FD00480047F95B0008AFF3008024
:1001000030280020224B19680868B0E8F00F80F30F
:100110000988BFF36F8F4FF0000080F311884EF015
:100120000D0E70470000000006480068006880F36C
:10013000088862B661B6BFF34F8FBFF36F8F00DFE1
:1001400000BF00BF08ED00E0EFF30980BFF36F8F41
:100150000F4B1A6820E9F00F106008B54FF05000FF
:1001600080F31188BFF34F8FBFF36F8F06F026F92E
:100170004FF0000080F31188BDE808401968086856
:10018000B0E8F00F80F30988BFF36F8F704700BFAE
:10019000A4010020EFF30580704700000648804767
:1001A00006480047FEE7FEE7FEE7FEE7FEE7FEE75C
:1001B000FEE7FEE7FEE7FEE7573A0008ED0000081D
:1001C000202A04DB203A21FA02F00021704721FAAC
:1001D00002F3D040C2F12002914008431946704713
:1001E00040EA01039B0703D009E008C9121F08C0B9
:1001F000042AFAD203E011F8013B00F8013B521E39
:10020000F9D27047D2B201E000F8012B491EFBD2AF
:1002100070470022F6E710B513460A460446194611
:10022000FFF7F0FF204610BD421C10F8011B00290B
:10023000FBD1801A704700000FB400B58DB010A933
:1002400009900B9000914FF0FF300A9000200C9025
:1002500005480690054807906A4609A80F9900F0DE
:10026000E5FA0DB05DF814FB4908000867080008BE
:100270002DE9FF4F087883B09946FF2805D0491C27
:100280002D2804D00024002008E000200BE00124E9
:10029000F9E700EB800003EB4000491C0B78FF2BD3
:1002A000F7D104B1404200230293147819461D4649
:1002B0002D2C01D02B2C04D1521C2D2C13D000241A
:1002C0000294AA461478FF2C0FD00A25A3FB0578C8
:1002D00001FB05814FF0000C03FB0C11521CE319CC
:1002E0004AEB0101EEE70124EAE7814453EA010009
:1002F00002D019F5C87F06DA03980021C0E9001181
:1003000007B0BDE8F08F0025AE4E2F46DFF8B8826B
:10031000184600F078FCCDE90001B9F1000002DADE
:10032000C9F1000400E004460023A74A1AEB030BBE
:1003300042EB045A12E0E00707D02A46334638461B
:10034000414600F07FFB074688462A463346104662
:10035000194600F077FB05460E466410002CEAD1E2
:10036000DDE90001B9F1000F5A46534606DA00F004
:10037000DBFB3A46434600F0D7FB05E000F062FBAA
:100380003A46434600F05EFB029A0AB181F0004112
:10039000039AC2E90001B3E72DE9FF4F1F468DB074
:1003A000D7E901464FF0FF382E2045464FF00009AF
:1003B0000B90B9696D1C0E988847396A8246884748
:1003C0000028F6D1BAF1FF3F0AD024F4D064002E01
:1003D00011DDBAF12B0F08D0BAF12D0F0BD102E0CD
:1003E000404611B08DE744F48064B9696D1C0E98E5
:1003F00088478246761E6946600501D52D2000E0BB
:100400002B208DF8000001F1010B0DF1200809E00F
:10041000B9696D1C0E98884782460F9844F40074A1
:10042000761E0560002E02DDBAF1300FF0D00B9978
:100430008A453ED144F0800406E00F99681CA9F17A
:10044000010944F400740860B9696D1C761E0E98A9
:10045000884782463028F0D02BE00B998A4505D199
:10046000200603D444F08004761E18E0504604F0C1
:10047000C7FF08B30DF11301761E44F400748B45D9
:1004800008D2AAF130000BF8010B200607D5A9F11C
:10049000010003E0200602D409F101008146A00515
:1004A00002D50F99681C0860B9696D1C0E988847C1
:1004B0008246002ED1DC53E0002E51DDBAF1650FEB
:1004C00002D0BAF1450F4BD1A00549D5B9696D1CD1
:1004D00024F44074761E0E9888478246002E0CDD68
:1004E0002B2804D0BAF12D0F07D144F48074B969D8
:1004F0006D1C0E9888478246761EE00501D52D2199
:1005000000E02B2108F8011BCDF82C8021E00DF133
:100510002901761E44F4007488450CD2AAF13000FB
:1005200010F0FF0088F8000002D10B99884509D926
:1005300008F1010806E0E00501D5244801E042F297
:100540000F708146B9696D1C0E98884782460F98D6
:100550000560002E04DD504604F052FF0028D6D17D
:10056000F9690E988847FF208BF8000088F8000092
:100570000020069007904B466A4608A906A8FFF798
:1005800077FEA00502D46FF001002AE714F0240FD3
:100590000AD0E00714D1DDE906123868031D3B607C
:1005A0000068C0E900120BE0DDE9060100F068FB1D
:1005B0000146E00704D13868021D3A600068016016
:1005C00028460EE7000014400000F03FF1D8FFFF7E
:1005D000F0B480EA0102D40F4200B2EB410F02D224
:1005E0000246084611464A0042D0C30DDDB2C1F3AF
:1005F000C752AD1A202D35DAC1F3160141F40002BD
:1006000004B15242C5F1200602FA06F12A41104413
:10061000B3EBD05F23D0C4B1012DA0EBC35009DCF4
:10062000F0BC4FF0004202EAC352DBB200F500001A
:1006300000F033B9400000F1807000EBC350A0F12E
:10064000807040EAD170490009E0490841EAC07170
:10065000A0EBC35000F50000400800EBC350F0BC15
:1006600000F012B96142012202EB4101001BF6E7E2
:10067000F0BC704781F00041AAE780F00040A7E796
:1006800080EA010210B502F00043400022D04A0087
:100690001FD0010E01EB1261C0F35600C2F35602E7
:1006A00040F4000042F40002A0FB022000047F3965
:1006B000140400D0401C50EA124001D44000491EEE
:1006C000C2B20C0604EBD010401C4008802A02D0B5
:1006D00003E0002010BD20F00100002900DA002016
:1006E000184310BD30B480EA010202F0004530F03A
:1006F000004221F0004013D090B1C30DD40DC2F3DD
:100700001601C0F31600E41A41F4000140F400029F
:100710007D34914201D3641C00E04900002C02DAD0
:1007200030BC002070474FF400000023914201D3F9
:10073000891A034340084FEA4101F7D151B1914270
:1007400002D14FF0004105E002D24FF0010101E07B
:100750006FF0010103EBC450284430BC00F094B8A2
:1007600096230022114600F098B800F0004230F0C5
:1007700000400AD0C10D01F56071C0F3160042EAD5
:100780000151C208400711437047002001467047DD
:1007900030B50B46014600202022012409E021FA51
:1007A00002F59D4205D303FA02F5491B04FA02F54E
:1007B0002844151EA2F10102F1DC30BD2DE9F05FE5
:1007C0000546002092469B468846064681464024C0
:1007D0001BE02846414647462246FFF7F1FC5346B8
:1007E0005A46C01A914110D311461846224600F0CD
:1007F00075FA2D1A67EB01084F46224601200021A9
:1008000000F06CFA17EB00094E41201EA4F1010420
:10081000DFDC484631462A464346BDE8F09F0000EB
:10082000026811441378016018467047D16004498A
:1008300051610449116200211161114600F074BA3E
:10084000210800081F0D0008426842B1016811F834
:10085000013B23B1521EC0E9001218467047012126
:10086000C160881E704742685AB1C368016843B9C5
:1008700083688B4205D0491E521CC0E9001200203B
:1008800070474FF0FF3070470029A8BF7047401CE9
:10089000490008BF20F00100704710B4B0FA80FC96
:1008A00000FA0CF050EA010404BF10BC704749B1D3
:1008B000CCF1200421FA04F411FA0CF118BF012143
:1008C00021430843A3EB0C01CB1D4FEA00614FEA23
:1008D000102042BF002010BC704700EBC3501044F2
:1008E0000029A4BF10BC7047401C490008BF20F07D
:1008F000010010BC70472DE9FE4F804681EA0300DD
:10090000C00F0C46009021F0004123F00045B8EBE9
:100910000200A94105D24046214690461C460B469E
:10092000024623F00040104347D0270DC7F30A00CA
:10093000C3F30A510290401A019040286BDAC3F3C6
:10094000130040F4801B0098924620B10023D2EBA4
:10095000030A63EB0B0B01985946C0F14002504665
:1009600000F0BCF906460D4650465946019A00F083
:10097000C4F910EB08006141002487EA115284EAAF
:10098000E7731A4340D0009A62B3019A012A4FEAF2
:10099000075215DC001B61EB02014FF0004202EA36
:1009A0000752CDE90042001C41F5801132462B462A
:1009B00000F061FB03B0BDE8F08F40462146F9E747
:1009C000001B61EB0201001C41F5801300185B4124
:1009D0002018A2F5001747EB030140EAD570B619BD
:1009E0006D4111E06D084FEA360645EAC0754FEAE1
:1009F0000752001B61EB0201001C41F58011490800
:100A00004FEA30000019514132462B4603B0BDE891
:100A1000F04F00F021BB0098012240000023D0EBF2
:100A2000020263EBE073009821464FEAE074B8EBF2
:100A3000000061EB0401E9E783F000435BE781F02C
:100A4000004158E72DE9FE4F81EA030404F0004419
:100A500021F0004100944FF0000B23F0004350EAD6
:100A600001045ED052EA03045BD0C3F30A54C1F31D
:100A70000A552C44A4F2F3340194A0FB0254C1F3B0
:100A8000130141F48011C3F3130343F4801301FBFA
:100A9000024400FB034E840A970A44EA815447EA61
:100AA0008357A4FB076802958D0A05FB07854FEA6B
:100AB000932C04FB0C542705029D4FEA065847EA85
:100AC0001637B5EB08056EEB070C870E920E47EA5A
:100AD000811742EA8312A7FB0201B6EB0B0164EB1C
:100AE00000042B0D43EA0C335E1844EB1C50DA462D
:100AF0005146E7FB0201C5F313044FEA0B3343EA07
:100B000014534FEA0432019C43EA0603A4F10C0497
:100B10000294009CCDE900B400F0ADFA03B0BDE84A
:100B2000F08F00200146F9E72DE9F04D81EA03043A
:100B300004F0004B21F0004514464FF0000A23F06A
:100B4000004150EA050220D054EA01021DD0C5F34D
:100B50000A570246C5F31303C1F31300C1F30A5643
:100B600040F4801543F48013A7EB0608101BD6460B
:100B700008F2FD3873EB050002D308F1010801E02B
:100B800092185B41B8F1000F03DA00200146BDE87E
:100B9000F08D00204FF48011064684460EE0171BAE
:100BA00073EB050705D3121B63EB050306434CEA01
:100BB000010C49084FEA300092185B4150EA0107E6
:100BC000EDD152EA030012D082EA040083EA050163
:100BD000084305D0101BAB4106D20122002306E0DA
:100BE00000224FF0004302E06FF0010253101AEBB5
:100BF00006004CEB085110EB0A0041EB0B01BDE87D
:100C0000F04D00F029BA0EB540F2334202920022B4
:100C1000CDE90022134600F02EFA03B000BDC1F367
:100C20000A52C1F3130140F2FF3341F480119A429A
:100C300002DA00200146704740F233439A42A2F2A2
:100C4000334202DC5242FFF7BBBA00F047B8000063
:100C500030B5041E71F1000404DB4FF00044404243
:100C600064EB0101141E73F1000405DB1C464FF018
:100C70000043524263EB0403994208BF904230BDE7
:100C800001F0004330B421F0004150EA010206D0E7
:100C90000A0DA2F56072C1F31301002A02DC30BC18
:100CA00000207047440F44EAC104C100E01830BC82
:100CB00000EBC250FFF7E8BD064C074D06E0E068C8
:100CC00040F0010394E8070098471034AC42F6D393
:100CD000FFF710FA4870000868700008202A04DB4B
:100CE000203A00FA02F1002070479140C2F120033F
:100CF00020FA03F3194390407047202A06DBCB17F4
:100D0000203A41FA02F043EAE07306E041FA02F3C6
:100D1000D040C2F120029140084319467047C0B24A
:100D20004FF4F05100F0F6B92DE9F34F8BB04FF0CE
:100D3000000801F10C000C464FF0010B46460DF186
:100D4000080A01906269012101989047051E2DD083
:100D5000252D2CD0216A8847C0B1626901210198F4
:100D60009047216A88470028F7D1411E626901989F
:100D7000904700E0761CA1690B988847216A884754
:100D80000028F7D1E1690B988847DBE7A1690B9848
:100D900088470746A84201D1761CD3E7E1690B9842
:100DA00088477F1C02D1B8F1000F6FD047E10027C0
:100DB00062693D463946019890472A2804D1626904
:100DC0000121019890470125DFF88892626901218D
:100DD00001989047A0F130010A290AD24F45E5DC7D
:100DE00007EB870100EB4107303FDFD445F01005EA
:100DF000ECE7E90601D46FF000476C280AD04C28D4
:100E000014D0682815D06A280DD074281CD07A28F0
:100E10001AD01DE062690121019890476C2802D028
:100E200045F0040514E045F002050DE045F020050D
:100E30000AE06269012101989047682802D045F0D4
:100E4000080505E045F400656269012101989047B5
:100E5000C4E9015765283DD019DC58287AD00CDC4C
:100E6000452837D004DC252826D0412831D131E06F
:100E700046282FD047282CD12CE05B2877D061283A
:100E800028D063287CD0642823D15AE0D1E06F2891
:100E900048D008DC66281DD067281BD0692821D0DF
:100EA0006E2816D127E0702845D0732868D07528A1
:100EB00047D078280DD14DE0A1690B9888470546A9
:100EC00025283FF469AFE1690B9888476D1C3FF412
:100ED0006AAFB4E023466A466FF001000B99FFF752
:100EE0005BFA9FE045F040006060A80723464FF0A2
:100EF000000236D43EE0E8077FF447AF2068011DCA
:100F000021600068290501D506701BE7290701D576
:100F1000068017E7A90703D5F117C0E9006111E7BB
:100F200006600FE745F040006060A80723464FF0D9
:100F3000080216D41EE040F60E0125EA01006060AA
:100F400016E045F040006060A80723464FF00A0213
:100F500007D40FE045F040006060A80708D523469D
:100F600010226FF001000B99AFF300805AE007E008
:100F7000234610226FF001000B99AFF3008051E07F
:100F80004FF000094F464B46632802D05B2807D03C
:100F900041E02079C00601D40120A06001273AE099
:100FA00062690121019890475E2805D14FF001093F
:100FB0006269494601989047216939B900210A467A
:100FC000534643F82120491C0829FADBB0B32169B4
:100FD00069B9C11700EBD16253110AEB830122F00A
:100FE0001F02821A01200B68904003430B60626964
:100FF0000121019890475D28E8D1B9F1000F09D08F
:101000000020514651F82020D24341F82020401CB6
:101010000828F7DB02AB224600976FF001000B991E
:10102000AFF3008000280CDA401C08D1BBF1000FA0
:1010300005D04FF0FF300DB0BDE8F08FFFE7404620
:10104000F9E7E90701D108F1010806444FF0000B68
:1010500078E60000CCCCCC0C10B5141E73F1000463
:1010600008DA401C41F1000192185B411A4301D19A
:1010700020F0010010BD2DE9F04D92469B4611B1C4
:10108000B1FA81F202E0B0FA80F220329046FFF726
:1010900025FE04460F4640EA0A0041EA0B0153468A
:1010A0005A46084313D0114653EA010019D0C8F13B
:1010B00040025046FFF784F805460E465046594612
:1010C0004246FFF70BFE084305D0012004E020460E
:1010D0003946BDE8F08D0020054346EAE0762C4312
:1010E00037430A986305E40AA0EB08000022FD0AD2
:1010F00044EA47540A3002D500200146E9E70105D9
:1011000010196941DDE9084500196941BDE8F04D54
:10111000A2E700007F2801D9002208E0064A02EB7E
:101120005002C007127800D1120902F00F0201200C
:101130009040084070470000E66F000870B58C18BA
:1011400010F8015B15F0070301D110F8013B2A11DB
:1011500006D110F8012B03E010F8016B01F8016BC8
:101160005B1EF9D12B0705D40023521E0DD401F8C4
:10117000013BFAE710F8013BCB1A921C03E013F88D
:10118000015B01F8015B521EF9D5A142D8D30020C2
:1011900070BDFEE7002070470020704710B50022A8
:1011A0000449054802F09AFD0449034802F090FD05
:1011B000002010BD040E002040050020040A00207D
:1011C00010B50446097804F099FF2146034802F05F
:1011D0007FFD024802F060FD002010BD40050020A8
:1011E000094A10B5D2F8B822D2F814220AB1012067
:1011F00010BD0A460146044802F070FDBDE81040EB
:10120000014802F0C9BD000040050020014800F07F
:1012100007B80000B4040020704772B6FEE7000073
:101220002DE9F05FC16B0C6801680B68D0F840C015
:10123000042202FA0CF2494DDFF824A1494E4A4F2C
:10124000DFF828B1DFF828E122422CD05A072AD54E
:101250000A68920603D40A6822F004020A60016850
:10126000A94201D1042219E0514501D1402215E0E3
:10127000B14202D14FF4806210E0B94202D14FF482
:1012800080420BE0594502D14FF4802206E07145BF
:1012900002D14FF4800201E04FF080622F490839FB
:1012A0004A60C16A3BE04FF0020808FA0CF818EAFD
:1012B000040F4FF000094FF0010235D05FEA837848
:1012C00032D50B689B0605D40B6823F00A030B602C
:1012D00080F821200168A94201D1022219E051457C
:1012E00001D1202215E0B14202D14FF4007210E08A
:1012F000B94202D14FF400520BE0594502D14FF4EC
:10130000003206E0714502D14FF4001201E04FF0C7
:101310000072124908394A6080F82090816A0029D9
:101320001AD0BDE8F05F0847082505FA0CF52542FC
:1013300012D01B0710D50B6823F00E030B6090F83A
:101340004010C36B02FA01F15960826380F82120DA
:1013500080F82090016BE2E7BDE8F09F08000240B2
:101360001C0002403000024044000240580002408D
:101370006C00024030B528B308C813491422194440
:10138000B1FBF2F18900C163104981630221417709
:101390001A6843F6F0718A43D0E900142143D0E97A
:1013A00002452C4321430469214344692143846954
:1013B00021431143196000214163012242770177E3
:1013C000084630BD012030BDF8FFFDBF00000240DF
:1013D00070B5044600F008F90546601C02D00448C8
:1013E0000078044400F000F9401BA042FAD370BD1D
:1013F000800000202DE9F84FDFF8B8910024A9F112
:10140000040B23460F2709F1040AABF1040EC9E0CF
:101410000125A5402A40AA427DD1674ED1F804C0DB
:10142000ACEB0608B44532D014DCBCF1030F3AD063
:1014300009DCBCF1000F2AD0BCF1010F1CD0BCF1BB
:10144000020F31D11DE0BCF1110F17D0BCF1120F0A
:101450002AD119E0B8F5881F19D006DCB8F5803F0D
:1014600015D0B8F5801F1FD111E0B8F5001F0ED0C0
:10147000B8F5041F18D10AE0CB6815E0CB681B1D36
:1014800012E0CB6808330FE0CB680C330CE08B68BC
:101490002BB1012B4FF0080303D0456104E0042376
:1014A00002E0056100E00023FF2A01D8064601E0C2
:1014B00000F104064FEA840501D9A5F12005D6F80C
:1014C000008007FA05FC28EA0C0803FA05F548EA4B
:1014D0000508C6F800804D68ED0062D5374DAE694D
:1014E00046F00106AE61AD6924F0030605F0010582
:1014F0000095334D06EB050CDCF80850A607360FB7
:1015000007FA06F825EA0805DFF8B880404503D158
:101510004FF0000817E044E0DFF8AC80404502D10E
:101520004FF001080FE0DFF8A480404502D14FF0F2
:10153000020808E0DFF89880404502D14FF0030828
:1015400001E04FF0040808FA06F848EA0508CCF86C
:1015500008804D68D9F80060ED024D4601D516436C
:1015600000E096432E604D68DAF80060AD02554603
:1015700001D5164300E096432E604D68DBF800600D
:10158000AD035D4601D5164300E096432E604D68DD
:10159000DEF80060ED03754601D5164300E0964382
:1015A0002E60641C0D682A46E5407FF431AFBDE82B
:1015B000F88F0000080401400000111000100240E4
:1015C0000000014000080140000C014000100140F3
:1015D000001401408068084000D0012070470AB123
:1015E000016170470904FBE701488068704700000B
:1015F0008000002070B5040025D094F83D0000253F
:1016000020B984F83C50204600F050F9242084F89A
:101610003D002068016821F0010101602068016837
:1016200041F4004101602068016821F4004101603B
:1016300000F0D2FF4D4A6168914201D84C4900E068
:101640004C49884201D2012070BD4B492368B0FB50
:10165000F1F15E6826F03F060E435E6063689342D8
:1016600006D94FF4967359434FF47A73B1FBF3F1F3
:101670002368491C1E6A26F03F06314319626168DF
:10168000914210D84900401EB0FBF1F2521CC2F347
:101690000B02042A01D2042022E0B0FBF1F0401C2E
:1016A000C0F30B001CE0A268F2B301EBC10303EB33
:1016B0000116431EB3FBF6F35B1C43F480431B058A
:1016C00049D092B301EBC10202EB0111401EB0FB05
:1016D000F1F0401CC0F30B0040F4804040F40040A7
:1016E0002168CA694CF6FF739A431043C861D4E974
:1016F000071001432068026822F0C0021143016014
:10170000D4E9030101432068826848F2FF339A4319
:1017100011438160D4E9050108432168CA6822F0B9
:10172000FF021043C86001E00EE016E02068016887
:1017300041F0010101602564202084F83D0025630B
:1017400084F83E50002070BD01EB4106431EB3FB00
:10175000F6F35B1CB3E70120C2E701EB4101401E39
:10176000B0FBF1F0401CC0F30B00B7E7A08601000E
:1017700080841E0000093D0040420F002DE9FF4F0C
:1017800083B09A46DDE9119793460446DDF8408020
:10179000FFF72AFF054694F83D0020287FD1192342
:1017A000012240492046009501F03AFB002876D1FD
:1017B00094F83C00012872D0012084F83C00206895
:1017C0000168C90703D1016841F001010160206887
:1017D000016821F400610160212084F83D0040206F
:1017E00084F83E0000262664C4F82480A4F82A90D9
:1017F000608D20852C48E062CDE9007553465A463D
:101800002046049901F08CFA70B930E02A46394636
:10181000204601F0ABFB58B1206C042804D12068AD
:10182000016841F400710160012007B0BDE8F08F4C
:10183000606A216800780861606A401C6062218DDE
:10184000491E89B22185628D521E628522685369C4
:10185000DB435B070BD469B100781061606A401C00
:101860006062208D401E2085608D401E6085208D29
:101870000028CBD12A463946204601F0A5FA002897
:10188000CAD154F83D0B016841F400710160202079
:1018900004F81E09E67766770020C6E7FFE7022016
:1018A000C3E70000020010000000FFFF70B586B023
:1018B00000250646009501950295039500681A4992
:1018C00088422FD1194CA06940F00800A061A0699E
:1018D000694600F008000490C0200090122001909A
:1018E000032003901248FFF785FDE06940F40010E3
:1018F000E061E069104C00F4001004900D48206095
:101900001020C4E901058020C4E903054001656198
:10191000C4E906502046FFF72DFD08B1FFF77DFC16
:101920007463666206B070BD00540040001002404F
:10193000000C01406C000240B404002002488168A1
:10194000027811448160704780000020074810B57C
:10195000016841F010010160032000F07BF80F20C6
:1019600000F006F800F024F8002010BD002002402E
:1019700070B50D4D04464FF47A712878B1FBF0F044
:101980000A490968B1FBF0F000F0ECFF48B9102CEF
:1019900007D200222146501E00F03CF800206C6067
:1019A00070BD012070BD0000800000208C00002070
:1019B0000F4808B5816941F001018161816901F039
:1019C00001010091C16941F08051C161C0690022EB
:1019D00000F0805000900F21901E00F01BF8054889
:1019E000416821F0E06141F00071416008BD0000F4
:1019F0000010024000000140002809DB00F01F0237
:101A0000012191404009800000F1E020C0F8001160
:101A100070470000F0B40E4B1B680C46C3F3022362
:101A2000C3F10705042D00D90425191D072901D28A
:101A3000002300E0DB1E012606FA05F1491E2140C5
:101A400099409E40761E16403143F0BC03F0F6BB31
:101A50000CED00E0064900F0070208684FF6FF03AE
:101A6000184040EA0220034A104308607047000013
:101A70000CED00E00000FA0510B50C0607D501F0EA
:101A8000070101EB810100EBC100103005E001EB23
:101A9000810100EBC10000F5A87099B232B10122BA
:101AA00002730181190C4181002010BD00220273D4
:101AB000C180F9E7704701EB810200EBC202D0F868
:101AC000D402526A02F017BB01EB810200EBC202A2
:101AD000D0F8D402D2F8642102F070BB70B504468D
:101AE0000B0601F0070000EB800104EBC1014FF091
:101AF00001024FF0000502D54A74103103E081F86D
:101B0000515101F5A871087094F89002012808D08D
:101B100084F89022206802F0B1FF84F890520020EF
:101B200070BD022070BD70B5044601F00F0022792F
:101B3000904201D9012070BD0B0601F0070000EBB7
:101B4000800104EBC1014FF001024FF0000502D506
:101B50004A74103103E081F8515101F5A8718D707C
:101B6000087094F89002012808D084F89022206828
:101B700003F021F884F89052002070BD022070BD5F
:101B80002DE9F05F04685FEA424C0B788D69B4F888
:101B900050C04FF000064BF68F7948F2800A48F6A5
:101BA0008F7B48F2C00E4FF480672AD54FF00208B1
:101BB00008EBC308C44407EB4C07E45BC4F3090417
:101BC000A54203D32D1B8D6101D00BE08E61066809
:101BD00036F8235005EA090585F4005545EA0A055B
:101BE00026F82350520609D50D78036833F82520CE
:101BF00002EA0B0242EA0E0223F8252084B30A8986
:101C000029E04FF0060808EBC308C44407EB4C0773
:101C1000E45BC4F30904A54203D32D1B8D6101D0FD
:101C20000BE08E61066836F8235005EA090585F455
:101C3000005545EA0A0526F82350520609D40B78C8
:101C4000056835F8232002EA0B0242EA0E0225F865
:101C500023202CB14A8949690068234603F084FA9D
:101C60002046BDE8F09F2DE9F05F054600680C4670
:101C70005FEA426C16468B692278B0F850C048F68D
:101C80008F774CF280094FF4004B4FF6FF7E4FF4F4
:101C9000806A4FF0000172D54FF0020808EBC208CD
:101CA000E0440AEB480C30F80C00C0F30900834212
:101CB00011D91B1AA3610FD0730407D52E6836F80B
:101CC00022303B4043EA090326F8223094F82420CE
:101CD000012A47D052E1A161607810B1012813D0E8
:101CE0001AE02868B0F85030184400EB0210B0F841
:101CF0000424C2F30902A0F80424B0F8042442F436
:101D00000042A0F8042407E02868B0F850301844D6
:101D100000EB0210A0F804146278286812B1012ABE
:101D200011D018E0B0F850100844217800EB0110F1
:101D3000B0F80C14C1F30901A0F80C14B0F80C149D
:101D400041F4004105E0B0F850201044227800EB47
:101D50000210A0F80C1421782846FFF7ACFE70049E
:101D600072D40BE1626902446261E2690244E26199
:101D70002369226A9A4203D31846111A04E03EE00E
:101D800084F824100AB110462162617811B101294A
:101D900029D031E02968B1F850201144227801EBB4
:101DA0000211B1F80424C2F30902A1F8042401F2DB
:101DB00004413E2807D94209C30600D1521E0B88B0
:101DC0004BEA822207E048B14208C30700D0521C08
:101DD0000B880EEA822213430B800DE00A8842F43E
:101DE00000420A8008E02968B1F8502011442278A6
:101DF00001EB0211A1F8040483B22289BAE04FF08A
:101E0000060808EBC208E0440AEB480C30F80C0066
:101E1000C0F30900834211D31B1AA3610FD07304CE
:101E200007D42E6836F822303B4043EA090326F8EF
:101E3000223094F82420012A51D09FE0A1616078DB
:101E400018B1012814D01BE03FE02868B0F85030EA
:101E5000184400EB0210B0F80424C2F30902A0F801
:101E60000424B0F8042442F40042A0F8042407E05B
:101E70002868B0F85030184400EB0210A0F80414A1
:101E80006278286812B1012A11D018E0B0F8501019
:101E90000844217800EB0110B0F80C14C1F30901DB
:101EA000A0F80C14B0F80C1441F4004105E0B0F8AF
:101EB00050201044227800EB0210A0F80C14217876
:101EC0002846FFF7F8FD700458D42278296831F8C5
:101ED0002200384040EA090021F822004EE0626901
:101EE00002446261E2690244E2612369226A9A4221
:101EF00003D31846111A216204E00AB11046216288
:101F000084F824106278296812B1012A28D02FE0C1
:101F1000B1F850201144227801EB0211B1F80C24E1
:101F2000C2F30902A1F80C2401F20C413E2807D9A2
:101F30004209C30600D1521E0B884BEA822207E0F9
:101F400048B14208C30700D0521C0B880EEA822217
:101F500013430B800CE00A8842F400420A8007E039
:101F6000B1F850201144227801EB0211A1F80C04C1
:101F7000628983B26169286803F014F922782968BC
:101F800031F8220048F6BF73184080F0300048F264
:101F90008003184321F822000020BDE8F09F01F0E3
:101FA000070101EB810100EBC100D0F86C01704723
:101FB0002DE9F04104460F0601F0070000EB800117
:101FC00004EBC1014FF001064FF0000502D54E743D
:101FD000103103E081F8515101F5A871022B08700E
:101FE0000A61CB7000D10D7194F89002012809D0DC
:101FF00084F89062206802F0F1FB284684F8905241
:10200000BDE8F0810220FBE710B501F0070404EB06
:10201000840100EBC101C1E959230022C1F86C2100
:1020200081F8512181F85041006801F5A87102F052
:1020300017FE002010BD70B504460D4601F00700E4
:102040002179884201D9012070BD29064FF0000690
:102050004FF0010206D500EB800104EBC1014A7488
:10206000103107E005EB850104EBC10181F85161F6
:1020700001F5A8718A70087094F89002012807D0C1
:1020800084F89022206802F0D2FD680702D006E0B2
:10209000022070BD04F52671206802F08AFD84F8E4
:1020A0009062002070BD10B501F0070404EB8401BC
:1020B00000EBC101C1E90923012281F834200B633F
:1020C0000023CB624A7401F8104F006802F0C8FD8B
:1020D000002010BD1FB50446006803F041F801045C
:1020E00003D5204601F082F91FBD41050DD52068BA
:1020F00030F8441F21F480610180204600F000F98F
:102100000021204600F017F91FBD410405D52068C5
:1021100030F8441F21F4804174E0810405D5206823
:1021200030F8441F21F400516CE0C10414D520683C
:1021300030F8401F21F004010180206830F8401F72
:1021400021F008010180204600F0EDF8206830F809
:10215000441F21F4805155E0010540D5D4F80020FA
:102160000020694632F8203021F81030401CC0B2FF
:102170000828F7D332F8400F40F0010010802068A3
:1021800030F8402F22F0010202802068B0F844208D
:102190005205FBD530F8442F22F4806202800020E3
:1021A000236831F8102023F82020401CC0B20828F2
:1021B000F6D3206830F8401F41F008010180206804
:1021C00030F8441F21F400610180206830F8401F7E
:1021D00041F004010180204600F0E0F81FBD8105B8
:1021E00009D5206830F8441F21F400710180204691
:1021F00000F09DF81FBDC005FCD5206830F8441FD5
:1022000021F4807101801FBD2DE9F041040004D04C
:1022100094F89102002518B107E00120BDE8F08193
:1022200084F89052204600F04DF8032084F8910283
:102230006571206802F0B6FC94E80F0002F01CFC07
:10224000022698BB0021206802F0A4FF70BB00208A
:1022500001270BE000EB800104EBC1014F7408740F
:10226000CD740D624D62401CC0B28D6221798142F5
:10227000F0D8002012E000BF00EB800104EBC101A8
:1022800081F8515181F8500181F85351C1F86051E2
:10229000C1F86451401CC0B2C1F868512179814233
:1022A000EAD894E80F0002F074FC10B184F891624F
:1022B000B3E7657384F89172206802F068FC00202F
:1022C000ACE7000008B500680B49884212D10B4802
:1022D000C16941F40001C161C069002200F400003D
:1022E000009005211420FFF795FBBDE8084014205D
:1022F000FFF782BB08BD0000005C004000100240F8
:1023000070B5044680790125022801D0FEF785FFCB
:102310002946D4F8D40202F039F8D4F8D402BDE842
:10232000704001F0F5BFD0F8D40202F019B8D0F82F
:10233000D40202F01FB810B5044690F890020128AC
:102340000AD0012084F890026173206802F024FF13
:10235000002084F8900210BD022010BDD0F8D422D5
:1023600000F52671104602F01DB810B5044690F82D
:102370009002012810D0012084F89002206802F019
:10238000E0FE01212046FFF795FB206802F0FDFBEF
:10239000002084F8900210BD022010BD10B5044644
:1023A000D0F8D40202F03DF8A07A002804D0034807
:1023B000016841F00601016010BD000010ED00E071
:1023C0002DE9F84305460078354CC00754D0E06944
:1023D0000026C00008D4E06940F08050E061E06968
:1023E000012600F0805000902E480168C90512D4E3
:1023F0000168804641F480710160FFF7F5F80746F7
:1024000005E000BFFFF7F0F8C01B642823D8D8F818
:102410000000C005F6D5206A10F4407021D0A988CC
:1024200001F4407181421CD0206A1F49012220F42E
:1024300040700A6000220A602062C00711D0FFF7D6
:10244000D3F8074641F2883808E000BFFFF7CCF820
:10245000C11B414502D90320BDE8F883206A8007EB
:10246000F4D5206A696820F44070084320621EB1E8
:10247000E06920F08050E0612878800705D5606829
:10248000A96820F44040084360602878C00605D55C
:102490006068E96820F48000084360600020DBE7A2
:1024A0000010024000700040400442422DE9F04715
:1024B0000F46050061D0434E306800F00700B84277
:1024C00009D2306820F0070038433060306800F0EF
:1024D0000700B84251D128683B4C810712D540070C
:1024E00003D5606840F4E06060602878000703D599
:1024F000606840F4605060606068A96820F0F00097
:10250000084360602878C00728D06868012810D088
:102510002168022810D0890700292EDA616821F08D
:10252000030101436160FFF75FF8804641F288399B
:102530000DE021688903EFE78901EDE7FFF754F823
:10254000A0EB0801494502D90320BDE8F087606887
:10255000696800F00C00B0EB810FEFD1306800F03B
:102560000700B8420BD9306820F0070038433060CC
:10257000306800F00700B84201D00120E5E7287874
:10258000400705D56068E96820F4E06008436060B2
:102590002878000706D56068296920F4605040EA71
:1025A000C100606000F028F86168084AC1F30311B7
:1025B000515CC8400649086006480068FFF7D8F932
:1025C0000020C2E70020024000100240B667000869
:1025D0008C000020840000200448054900684968F8
:1025E000044AC1F30221515CC84070478C000020AE
:1025F00000100240C66700080E4A51680E4801F0FC
:102600000C03042B11D0082B0FD10C48C1F38343CA
:10261000C903C05C0AD55168084AC1F34041921E03
:10262000515C054A5043B0FBF1F070470449484300
:10263000704700000010024000127A00A6670008F0
:1026400000093D002DE9F84F040070D02078C04DFE
:10265000C00749D06868C0F38100012807D06868C6
:10266000C0F38100022809D16868C00306D5286834
:10267000800339D560680028E7D035E06068B0F5A0
:10268000803F0BD010B1B0F5A02F11D0286820F4F6
:1026900080302860286820F4802002E0286840F418
:1026A00080302860606890B1FEF79EFF06460AE021
:1026B000286840F480202860F0E700BFFEF794FF10
:1026C000801B642873D828688003F7D50CE0FEF7D8
:1026D0008BFF064605E000BFFEF786FF801B6428DF
:1026E000F0D828688003F7D420789A4E80074FF0FE
:1026F00001094FF0000839D5686810F00C0F07D0B9
:102700006868C0F38100022809D16868C00306D454
:102710002868800714D52069012808D110E02069B5
:10272000B0B1C6F80090FEF75FFF074605E00AE18A
:10273000FEF75AFFC01B0228C4D828688007F7D5C7
:102740002868616920F0F80040EAC10028600DE0C7
:10275000C6F80080FEF748FF074604E0FEF744FF96
:10276000C01B022823D828688007F7D420780007E8
:102770002CD57948A169D9B1C0F80090FEF734FF93
:10278000074604E0FEF730FFC01B02280FD8686A36
:102790008007F7D571484FF4FA510068B0FBF1F0AB
:1027A000009000BF0098411E0091FAD20EE080E038
:1027B000C0F80080FEF718FF074604E0FEF714FF9C
:1027C000C01B022875D8686A8007F7D420784007B4
:1027D00060D5E8690027C00008D4E86940F080505F
:1027E000E861E869012700F0805000905C480168CA
:1027F000C90513D40168834641F480710160FEF776
:10280000F3FE824606E000BFFEF7EEFEA0EB0A00F4
:1028100064284ED8DBF80000C005F5D5E068012833
:102820000AD008B1052813D0286A20F001002862D8
:10283000286A20F0040002E0286A40F001002862C3
:10284000E06841F2883B98B1FEF7CEFE82460BE08D
:10285000286A40F004002862EEE700BFFEF7C4FEDD
:10286000A0EB0A0159455AD8286A8007F6D50CE032
:10287000FEF7BAFE824605E0FEF7B6FEA0EB0A01BF
:1028800059454CD8286A8007F6D41FB1E86920F072
:102890008050E861E06988B36968C1F38101022969
:1028A00044D00228C6F8608004D0FEF79DFE04469E
:1028B00038E034E0FEF798FE074604E0FEF794FEA9
:1028C000C01B02282BD828688001F7D4206AB0F5F5
:1028D000803F05D16868A16820F400300843686033
:1028E000D4E908010843696821F474110843686059
:1028F000C6F86090FEF778FE044606E025E000BFCB
:10290000FEF772FE001B022809D828688001F7D55F
:102910001BE000BFFEF768FE001B022802D903205F
:10292000BDE8F88F28688001F4D40EE00128F7D0C4
:102930006868226A00F48031914204D1616A00F42F
:102940007010884201D00120EAE70020E8E700008B
:102950000010024000004242800442428C000020ED
:102960000070004010B5401EB0F1807F01D30120FF
:1029700010BD4FF0E02460610F21601702F05EFC93
:102980000020A06107202061002010BD7047704723
:1029900070B590F83C20012A26D0012480F83C40F4
:1029A000022280F83D2003685A689D6822F0700674
:1029B0000A6832435A600D4B02689A4208D0B2F15D
:1029C000804F05D00A4B9A4202D00A4B9A4204D15A
:1029D000496825F080031943916080F83D4000214B
:1029E00080F83C10084670BD022070BD002C0140EC
:1029F00000040040000800402DE9F0410D460400AD
:102A000003D094F83D0018B108E00120BDE8F08142
:102A1000002084F83C00204600F040F8022084F8B2
:102A20003D002068816844F2070291438160211DC6
:102A3000206801F017F8226890689169166A2B687F
:102A4000AF69034340F20330814341EA0721A8689C
:102A5000EF6908434FF6FC418843E96840EA0720E4
:102A6000014328692F6A000140EA0730084369687A
:102A70006D6926F0220646EA05152943936022680F
:102A8000906154F8460B0162012004F81F09E075BB
:102A90002076E0762077A0750020B7E700B585B0F6
:102AA000002100910191029103910068B0F1804FE3
:102AB0001ED11048C16941F00101C161C16901F035
:102AC00001010491816941F00401816180696946D5
:102AD00000F004000490032000900748FEF78AFCF1
:102AE000002205211C20FEF795FF1C20FEF784FF25
:102AF00005B000BD001002400008014070B590F81C
:102B00003E60044690F83F5090F8423090F84320E1
:102B1000022021B104290ED0012E1BD114E0012E78
:102B200018D1012B16D184F83E0084F8420001220E
:102B30000021206820E0012D0CD1012A0AD184F85F
:102B40003F0084F8430014E0012D03D1012B01D193
:102B5000012A01D0012070BD84F83E0084F83F00B6
:102B600084F8420084F8430001220021206800F02C
:102B7000B5FF01220421206800F0B0FF2068016841
:102B800041F001010160002070BD70472DE9F04166
:102B900004460068C66805694FF00007A90713D509
:102BA000B10711D5F91E01610120207720688069E5
:102BB0008007204602D0FFF7E8FF04E000F07EF82F
:102BC000204600F07CF82777680716D5700714D5E3
:102BD00021686FF004000861022020772068806976
:102BE00010F4407F204602D0FFF7CFFF04E000F052
:102BF00065F8204600F063F82777280715D53007D9
:102C000013D521686FF00800086104202077206840
:102C1000C0698007204602D0FFF7B7FF04E000F04C
:102C20004DF8204600F04BF82777E80616D5F00659
:102C300014D521686FF01000086108202077206803
:102C4000C06910F4407F204602D0FFF79EFF04E0E9
:102C500000F034F8204600F032F82777E80708D073
:102C6000F00706D021686FF001000861204600F0EF
:102C700027F8280608D5300606D521686FF08000B1
:102C800008612046FFF782FE680608D5700606D563
:102C900021686FF040000861204600F027F8A80680
:102CA0000AD5B00608D521686FF0200008612046DB
:102CB000BDE8F041FFF76BBEBDE8F081704770479B
:102CC00010B50068B0F1804F0CD10068064CC0060A
:102CD0004FF07E51606802D5FDF7CCFC01E0FDF7B6
:102CE00077FC606010BD00000C0000207047FEE71C
:102CF00001684A69D24352050FD46FF480624A6179
:102D0000002140F8301F202242738173026942F093
:102D10000402026101730120704700207047000027
:102D20002DE9F843044600680D46DDE9089701687F
:102D30009846164641F4807101604B4600224FF0E0
:102D400001112046009700F06BF848B12068006838
:102D5000C00502D54FF4007020640320BDE8F8835D
:102D6000216805F0FE0008613B464A4615492046A9
:102D700000F09EF888B920684169806900903A4661
:102D80004946204600F0F2F848B1206C042804D1EE
:102D90002068016841F4007101600120DEE7F5B2AE
:102DA000B8F1010F09D02168300A08613A46494656
:102DB000204600F0DBF80028E7D1206805610020FC
:102DC000CCE700000200010070B516460D4604462F
:102DD0001EE02046FFF78CFF08B1012070BD681C83
:102DE00016D0FEF701FC801BA84200D885B92068E8
:102DF0004069C04340070BD5002044F8300F202124
:102E00006173A073216941F0200121612073E4E71F
:102E100020684069C0434007DBD4002070BD00003B
:102E20002DE9F047984617460D460446C1F307467C
:102E3000DDF820902AE000BFB8F1FF3F26D0FEF772
:102E4000D3FBA0EB0901414502D8B8F1000F1DD119
:102E50002068012E16D0806925EA00000004000CCD
:102E600012D00020B84211D1002044F8300F2021A8
:102E70006173A073216941F0200121612073012059
:102E8000BDE8F0874069E7E70120EBE72068012E05
:102E90000AD0806925EA00000004000C06D000205A
:102EA000B842C9D00020EBE74069F3E70120F7E71B
:102EB0002DE9F047984616460D4604464FF00009A6
:102EC0004FF0200AC1F3074723E020684069C04360
:102ED000400515D42068016841F400710160216843
:102EE0006FF480604861C4F8309084F83DA084F8A5
:102EF0003E90216C41F00401216484F83C9021E073
:102F0000701C06D0FEF770FBA0EB0800B04203D89F
:102F100016B1012F1FD021E02068012F15D0806944
:102F200025EA00000004000C18D000BF44F8309FD0
:102F300084F80DA084F80E90216941F020012161F0
:102F400084F80C900120BDE8F087406925EA000074
:102F50000004000CEAD12068406901E02068806923
:102F600025EA00000004000CAFD1ECE770B516466E
:102F70000D4604461EE02046FFF7BAFE08B10120C8
:102F800070BD681C16D0FEF72FFB801BA84200D82E
:102F900085B920684069C04300060BD5002044F87D
:102FA000300F20216173A073216941F0200121615C
:102FB0002073E4E720684069C0430006DBD40020AA
:102FC00070BD0000F0B500230A24302537261F46C7
:102FD00011E000BFB4EB107F02D905EB107C01E0DB
:102FE00006EB107C01F813C001EB430C00015B1CE5
:102FF0008CF80170DBB29342ECD3F0BD094808B500
:10300000416941F0010141614069002200F0010085
:10301000009005211020FEF7FDFCBDE808401020BF
:10302000FEF7EABC0010024010B596B01C22114910
:103030006846FDF7D5F80021684602F00FFE0E4CF9
:103040000C491C2220601C3107A8FDF7C9F800219B
:1030500007A802F003FE074960601C2238310EA861
:10306000FDF7BEF800210EA802F0F8FDA06016B032
:1030700010BD0000506700080000002070B586B049
:1030800000251D480095019502950395816941F041
:1030900020018161816901F020010491816941F081
:1030A00004018161816901F004010491816941F0A9
:1030B000080181618069114E00F008004FF46044FE
:1030C0000490002221463046FEF789FA009401243C
:1030D0000320CDE90240694601943046FEF78AF9A3
:1030E0004FF44070CDE90005694602943046FEF782
:1030F00081F906B070BD000000100240000C0140D4
:103100000D4810B50B4901600C49416000214FF496
:1031100080428160C0E9031241618161C161016245
:10312000FEF768FA002803D0BDE81040FEF775B836
:1031300010BD00000054004060040020A086010083
:1031400010B58CB024216846FDF763F800241748B9
:1031500009944FF080410A9401600121C0E90114F3
:1031600041F26802C0E90324802282610320CDE994
:10317000000402910720CDE90340CDE90541CDE9E6
:10318000074069460948FFF737FC08B1FEF745F8E4
:103190002020CDE9090409A90448FFF7F9FB00281C
:1031A00001D0FEF73AF80CB010BD0000F804002082
:1031B00010B500220F49104800F076FF08B1FEF765
:1031C0002CF80E490C4801F052F908B1FEF725F829
:1031D0000B49094800F074FD08B1FEF71EF80648D7
:1031E00001F09AF9002803D0BDE81040FEF715B8A9
:1031F00010BD000020000020400500206C010020D0
:1032000070000020FEE7FEE770B506465FF00004A0
:1032100004F1B000C0B201F0D9FF002001F0D6FFE8
:10322000102001F0D3FF0025304601F0E1FF6D1CB6
:10323000EDB2802DF8D3641CE4B2082CE8D370BD45
:1032400010B5AE2001F0C2FF202001F0BFFF022028
:1032500001F0BCFFB02001F0B9FFC82001F0B6FFBB
:10326000002001F0B3FF102001F0B0FF402001F07A
:10327000ADFF812001F0AAFFFF2001F0A7FFA120F0
:1032800001F0A4FFA62001F0A1FFA82001F09EFFFD
:103290003F2001F09BFFA42001F098FFD32001F014
:1032A00095FF002001F092FFD52001F08FFFF02064
:1032B00001F08CFFD92001F089FF222001F086FF68
:1032C000DA2001F083FF122001F080FFDB2001F003
:1032D0007DFF202001F07AFF8D2001F077FF142080
:1032E00001F074FFAF2001F071FF10BD10B504466E
:1032F000B031C8B201F06AFF102040EA141001F0AA
:1033000065FF04F00F00BDE8104040F0010001F03F
:103310005DBF00002DE9F047002591468A4604462E
:10332000012B22D0DFF8BC80022B24D155E02038BD
:10333000C7B27E2C04D90AF10100002400F0FF0A74
:1033400051462046FFF7D2FF07EB4700002608EB67
:103350004007B85D01F04CFF761CF6B2062EF8D39C
:10336000A41D6D1CE4B2EDB201E0DFF87C8019F819
:1033700005000028DBD1BDE8F0872038C7B2782CE3
:1033800004D90AF10100002400F0FF0A514620464A
:10339000FFF7ACFF5FF0000606EB071118F801001D
:1033A00001F026FF761CF6B2082EF5D30AF10100D3
:1033B000C1B22046FFF79AFF5FF0000606EB071147
:1033C00001EB0800007A01F013FF761CF6B2082E1C
:1033D000F4D308346D1CE4B2EDB219F805000028EE
:1033E000CBD1C8E7F6690008CE6700082DE9F84F91
:1033F000044640F68F7B48F60F794FF480684FF013
:10340000000ABDE1B0F8441011F00F0539D030F8D2
:10341000256031047ED530F8251001EA0B0141F01A
:10342000800120F8251005EB850004EBC00797F814
:103430005C0107F5A87700286DD0F87802286BD0DA
:103440003978226832F8210048F68F73184048F224
:10345000C003184322F821003978206830F8212071
:10346000B0F8503052047DD5022202EBC1015A1847
:1034700008EB4201415A8905890D009173D03A89C0
:10348000DDE0C9062BD4018801EA090141F40041BD
:103490000180206804F11005B0F85030217C022230
:1034A00002EBC1015A1808EB4201405AC0F309006F
:1034B000E062616A0844606200212046FEF7FBFA80
:1034C000607B00289DD0A86900289AD1607B216884
:1034D00040F08000A1F84C0084F80DA050E1018874
:1034E00004F5A8750A0521D5B0F850202B780621DF
:1034F00001EBC3010A4408EB4201405A04F526716E
:10350000C0F30903EB61EA88206801F02DFE206812
:10351000018802E0AEE06EE07EE001EA0B0141F0DE
:10352000800101802046FEF719FF29E10904D5D565
:10353000018801EA0B0141F0800101802068B0F8A8
:1035400050202B78062101EBC3010A4408EB42010D
:10355000405A83059B0DEB6110D0696971B1EA880F
:10356000206801E05FE05DE001F0FEFDE969686967
:103570000844686100212046FEF7A6FA2168088801
:103580000205ABD4C0F301300328A7D0B1F8500036
:103590000844B0F80C14C1F30901A0F80C142A690E
:1035A00000F20C403E2A09D95109D20600D1491E29
:1035B00002884FF4004343EA812109E0B2B1510887
:1035C000D20700D0491C02884FF6FF7303EA81211D
:1035D0000A430280216808884BF68F72104080F4FD
:1035E000405048F2800210430880C9E0018841F44D
:1035F00000410180EEE72068B0F850203B780621BA
:1036000001EBC3010A4408EB4201415A8905890DC7
:10361000009118D0FA8812E0324639462046FEF76B
:10362000AFFA00900FE0062202EBC1015A1808EB36
:103630004201415A8905890D009104D07A8979693E
:10364000009B01F091FDF86900990844F8617969DF
:10365000009808447861B86918B1396900988142C6
:1036600004D939782046FEF72FFA03E0394620685E
:1036700001F0F6FA30062ED505EB850004EBC0010B
:10368000206830F8252002EA090242F4004220F8BE
:103690002520C87C103101281ED0F0056CD420688C
:1036A000B0F850300D78022202EBC5021A4408EB44
:1036B0004202805A8A69C0F30900824255D9121A1F
:1036C0008A6154D04A6902444A61CA691044C86197
:1036D000206801F0C5FA53E0C1F818A0087B5246F3
:1036E00008B3700620D5487810B1012812D03AE00E
:1036F0002068B0F8502010440A7800EB0210B0F8AF
:103700000424C2F30902A0F80424B0F8042442F40B
:10371000004206E02068B0F8503018440B7800EB07
:103720000310A0F804241EE04B78206813B1012B8D
:1037300011D018E0B0F8502010440A7800EB0210C5
:10374000B0F80C24C2F30902A0F80C24B0F80C2441
:1037500042F4004205E0B0F8503018440B7800EB1A
:103760000310A0F80C24097802E0C1F818A0E9B20F
:103770002046FEF7A0F903E032462046FEF773FA32
:103780002068B0F8441009043FF53CAE0020BDE8C5
:10379000F88F0000FFF70CFD324C0122D1032046C8
:1037A000FDF71DFFA615651567144FF4804801202D
:1037B00002F048FA29462046FDF70CFF28B93146A9
:1037C0002046FDF707FF012805D031462046FDF7CA
:1037D00001FF10B107E0012218E029462046FDF75D
:1037E000F9FE012805D031462046FDF7F3FE38B139
:1037F0000BE0002239462046FDF7F1FE01220AE0E7
:1038000029462046FDF7E6FE50B100223946204603
:10381000FDF7E5FE002241462046FDF7E0FEC6E743
:10382000002239462046FDF7DAFE002241462046B6
:10383000FDF7D5FE02F074F902E0642002F002FA0E
:1038400031462046FDF7C6FE0028F6D1294620461F
:10385000FDF7C0FE0028F0D1C82002F0F3F902F015
:103860005FF9A4E7000C01401FB50A2002F0EAF955
:10387000FFF7E6FCFF20FFF7C7FC0020FFF7C4FCC2
:1038800002F04EF93B4C2068426A3BA1684601F0C9
:10389000C1FC002102236A460846FFF73BFD02F007
:1038A00077F9FCF762FF02460B4637A1684601F044
:1038B000B1FC02236A4619460020FFF72BFD68463B
:1038C00002F06CF902236A4604210020FFF722FD72
:1038D00002F032F9FCF749FF02460B462EA168467A
:1038E00001F098FC02236A4606210020FFF712FD32
:1038F0002068426A2CA1684601F08CFC02236A46CB
:1039000000214820FFF706FD02F042F9FCF72DFFE9
:1039100002460B4625A1684601F07CFC02236A465C
:1039200019464820FFF7F6FC684602F037F960B107
:1039300002236A4604210020FFF7ECFC6846FCF7EE
:1039400073FCC1B26846FDF74BFC02F0F5F8FCF7DA
:103950000CFF02460B4617A1684601F05BFC0223F0
:103960006A4606214820FFF7D5FCC82002F06AF914
:10397000BEE70000F8040020456E636F64657220A6
:103980003A25356400000000526F756E6473202084
:103990003A25352E306C660044697374616E636538
:1039A0003A25372E316C66002535640025352E30DA
:1039B0006C66000025372E316C6600004FF47A7477
:1039C000204602F03FF9FBE710B5FDF7B7FF02F024
:1039D000E5FD012803D0BDE8104002F071BD10BD27
:1039E00030B593B028216846FCF713FC14210AA8CF
:1039F000FCF70FFC002401200F9410941194010493
:103A000012948DE8130004904FF4E010CDE90810F3
:103A1000022507956846FEF715FE08B172B6FEE767
:103A20000F20CDE90A054FF48060CDE90C4002215A
:103A30000AA80E94FEF73AFD08B172B6FEE7102010
:103A40000F9012940FA8FEF7BBFC002801D072B6AD
:103A5000FEE713B030BD70470148FFF797B800008C
:103A6000F8040020F0B50268194B1A4C1A4D4FF0BB
:103A70008047984205D0B84203D0A04201D0A84266
:103A800003D122F070064A683243984205D0B8420A
:103A900003D0A04201D0A84203D122F44074CA68E6
:103AA00022434C6922F08002224302608A68C2628B
:103AB0000A688262984201D109690163012141616A
:103AC0000169C90703D0016921F001010161F0BD5D
:103AD000002C0140000400400008004010B501F037
:103AE0001F030121046A99408C430462016A9A40D1
:103AF0001143016210BD2DE9F041D0F8C032D0F879
:103B0000B822CAB101EB810500EB85040026E76904
:103B10003FB103EBC5031B6AB7FBF3F503FB15735A
:103B200023B1C2F814620020BDE8F08100231A46D8
:103B3000E66100F07FFCF6E70220F5E770B5054688
:103B4000D0F8B84200F07BFBC4F80C02D5F8B802FC
:103B500048B1D5F8BC12D4F80402CA6804F5037160
:103B60009047002070BD022070BD70B5044600264D
:103B7000812100F0B7FA002501212046E56200F01E
:103B8000B1FA82212046C4F86C5100F0ABFA2564EA
:103B9000D4F8B80248B1D4F8BC0204F52E744068D9
:103BA0008047206800F015FE2560304670BD10B5D6
:103BB000D0E9AE4159B194F80002FF2807D08B68D4
:103BC00094F8012221469847FF2084F80002002043
:103BD00010BD00000A2101800048704794000020B9
:103BE0004321018000487047E40000204321018008
:103BF00000487047A0000020432101800048704722
:103C0000280100202DE9F04104460026007C4FF4F5
:103C10000077012590B3402302228121204600F045
:103C200062FB4023E56202220121204600F05BFB9B
:103C30000823032282212046C4F86C5100F053FB74
:103C40004FF40770256400F0C5FDC4F8B802F8B160
:103C50000546D4F8BC02006880470020C5F814026D
:103C6000C5F81802207CD5F8042298B14023012120
:103C7000204600F044FB3046BDE8F081FFE73B46BC
:103C800002228121204600F02EFB3B46E562CAE776
:103C90000126F0E73B46EAE710B5D0F8B81269B163
:103CA000027C002AD1F8042205D04023012100F033
:103CB00026FB002010BD4FF40073F7E7022010BD73
:103CC00002460220002902D00020C2F8BC12704730
:103CD000D0F8B802C0F8041200207047D0F8B8023B
:103CE000C0F81022C0F80812002070472DE9FC41EE
:103CF0000546D0F8B87200208DF80000ADF8040039
:103D0000064608780C4610F0600121D020293BD1EE
:103D1000E288AAB10006607807D5D5F8BC128B6896
:103D200039469847E288394626E087F80002A079AC
:103D300087F80102E2883946284600F06AF828E050
:103D4000D5F8BC12607800228B682146984720E0A5
:103D5000607820B10A2809D00B2815D110E095F819
:103D60009C02032810D1022201A905E095F89C02CB
:103D7000032809D101226946284600F064F808E0CA
:103D800095F89C02032804D02146284600F036F816
:103D900002263046BDE8FC8110B5D0F8B812A1B1BA
:103DA000D1F814220AB1012010BD0122C1F8142259
:103DB000D1F810220263B1F8102293B2D1F8082290
:103DC000812100F037FB002010BD022010BD10B58E
:103DD000D0F8B42252689047002010BD134610B5A9
:103DE0000A46002100F08BFA002010BD134610B5E2
:103DF0000A46002100F01EFB002010BD10B504464D
:103E0000802100F0FCFA2046BDE81040002100F0BF
:103E1000F6BA10B50323C0F85C21C0F89432C0F89C
:103E2000602113460A46002100F069FA002010BD07
:103E300010B505210023C0F894121A46194600F067
:103E40005EFA002010BD10B50223C261C0F89432A2
:103E5000026213460A46002100F0ECFA002010BD71
:103E600010B504210023C0F894121A46194600F038
:103E7000E1FA002010BD000010B50A46024903A077
:103E800000F0E2F8004810BD04080020434443203D
:103E9000436F6E6669670000122008800048704713
:103EA0004000002010B50A46024903A000F0CCF8FB
:103EB000004810BD0408002043444320496E746547
:103EC0007266616365000000042008800048704746
:103ED0003C00002010B50A46024903A000F0B4F8E7
:103EE000004810BD0408002053544D6963726F658B
:103EF0006C656374726F6E696373000010B50A4677
:103F0000024903A000F0A0F8004810BD04080020FA
:103F100053544D3332205669727475616C20436F6F
:103F20006D506F727400000010B51A2008800A48A6
:103F30000168001D0468001D0068081809D00822E7
:103F40000649FFF73FF80549042210312046FFF7E4
:103F500039F80248801E10BDE8F7FF1F5600002008
:103F6000F8B504460020ADF8000048880D46010A67
:103F7000082948D2DFE801F04704091747473C45C4
:103F8000D4F8B012207C0A6819E0207C02260028B0
:103F9000D4F8B40205D0C16A684688470146467025
:103FA0003EE0816AF8E7C0B206282CD2DFE800F0D4
:103FB000030A1014181CD4F8B002426805E06946E0
:103FC00090471CE0D4F8B0028268E2B1207CF6E7AA
:103FD000D4F8B002C268F8E7D4F8B0020269F4E796
:103FE000D4F8B0024269F0E7D4F8B0028269ECE795
:103FF000207C40B9D4F8B402416B6846884701463A
:104000000EE0207C20B129462046FFF7F7FEF8BDE0
:10401000D4F8B402016B684688470146072048700F
:10402000BDF8000048B1EA8852B1824200D9024688
:10403000ADF800202046FFF706FFE8880028E6D10B
:104040002046FFF70DFFF8BD70B5002300281ED0F5
:104050000446002502E06D1CEDB2641C2678002E9B
:10406000F9D1022404EB450414801278CA545B1C75
:104070000322CA5400245B1C06E0CA545B1CDAB25B
:104080008C54521CD3B2401C0278002AF5D170BD6A
:1040900001004FF0000004D0012901D0022901D015
:1040A000022070470120704710B580B1D0F8B432BB
:1040B00013B10023C0F8B43209B1C0F8B012012125
:1040C00080F89C12027000F0BFF8002010BD0220A2
:1040D00010BD10B5D0F8C002FDF725FDBDE81040B9
:1040E000FFF7D6BF10B5D0F8C002FDF7F7FCBDE86A
:1040F0001040FFF7CDBF2DE9F0411746044651B1FE
:10410000D4F8B40242691AB194F89C02032851D041
:104110000220BDE8F081D4F89432002504F11400A7
:10412000022B03D0042B3AD0C3B33CE0D0E90363A5
:104130009E4207D9F11AC1608AB239462046FFF77C
:1041400055FE12E08068B0FBF3F103FB110199B951
:10415000984211D3D4F8981288420DD20022114609
:104160002046FFF743FEC4F8985200231A4619462A
:10417000204600F0C4F816E0D4F8B402C16829B1B2
:1041800094F89C02032801D12046884780212046CC
:1041900000F035F92046FFF74BFE04E0FFE78021F1
:1041A000204600F02CF994F8A002012804D184F8EC
:1041B000A05201E0204690470020AAE770B51546BE
:1041C000044649B1D4F8B40282691AB194F89C0249
:1041D000032830D0022070BDD4F8941204F5AA70E0
:1041E000032902D005291ED027E0D0E903218A4205
:1041F0000BD9531AC3600846834200D303469AB2D0
:1042000029462046FFF7EAFD17E0D4F8B402016919
:1042100029B194F89C02032801D120468847204602
:10422000FFF71EFE09E000200146C4F89402204674
:1042300000F0E5F801E020469047002070BDD0F87E
:10424000C002FDF7ACBE000010B504461C481D4975
:10425000C0F8D442C4F8C0020160082101710221F3
:10426000817100218172C1720173FDF7CDFF08B128
:10427000FCF7D3FF0022D4F8C0021823114604F53E
:104280003074FDF7F9FB5823002280212068FDF7E8
:10429000F3FBC023002281212068FDF7EDFB4FF4E2
:1042A0008873002201212068FDF7E6FB4FF480733C
:1042B000002282212068FDF7DFFB002010BD0000F6
:1042C00064140020005C00400A0601F07F01D0F871
:1042D000C00201EB810100EBC10001D5807C704779
:1042E00090F85201704710B51C461346D0F8C00232
:1042F0002246FDF75DFEBDE81040FFF7C9BE10B5D0
:10430000D0F8C002FDF780FEBDE81040FFF7C0BE48
:1043100070B50022044640231146FFF7E4FF402613
:104320000125C4F864613346002280212046C4F888
:104330005851FFF7D8FF6662A56184F89C520020AF
:10434000C4F894026060C4F8A402D4F8B80228B19A
:10435000D4F8B4020021426820469047002070BD86
:1043600090F89C12042903D190F89D1280F89C12B9
:104370000020704710B590F89C12032904D1D0F8A2
:10438000B412C96901B18847002010BD0174002032
:10439000704710B5D0F8C002FDF7CDFFBDE8104062
:1043A000FFF776BE70B5044600F52A70054600F0AA
:1043B0004AF80120C4F89402B4F8AE02C4F8980296
:1043C00094F8A80210F01F010AD001290DD002298B
:1043D00010D000F08001204600F011F8002070BDE0
:1043E0002946204600F09DF8F8E72946204600F0CF
:1043F000C9F9F3E72946204600F01CF9EEE710B5AD
:10440000D0F8C002FDF717FEBDE81040FFF740BE30
:1044100010B5D0F8C002FDF7A8FFBDE81040FFF7C7
:1044200037BE90F89C1280F89D12042180F89C12EF
:104430000020704710B5D0F8C002FDF734FEBDE88B
:104440001040FFF725BE0A7802704A7842708A78D9
:10445000CB7802EB032242800A794B7902EB0322EC
:1044600082808A79C97902EB0121C18070470246B6
:10447000002011B1C2F8B41270470220704710B585
:10448000D0F8B42202241AB11268904700B900246F
:10449000204610BD70B50E461E4D89780446297021
:1044A000012931D894F89C0202280BD003280FD0A0
:1044B00031462046FFF7A2FC29782046BDE870402F
:1044C000FFF785BCD9B10320616084F89C0209E044
:1044D00071B16068884212D0C1B22046FFF777FC04
:1044E000297861602046FFF7CAFF02280CD006E059
:1044F000022084F89C0220466160FFF768FC204699
:10450000BDE87040FFF7ACBC31462046BDE87040C6
:10451000FFF774BC9000002010B5FFF779FF002072
:1045200010BD2DE9F0410A78002612F0600208D093
:10453000202A01D0402A70D1D0F8B4229268904746
:104540006DE04B78002201250A2B66D2DFE803F0EC
:10455000405D6557650805652C29FFF701FD5EE0A4
:1045600004468888D8B9C888C8B94888802816D22F
:1045700000F07F0794F89C02032810D084F89E7204
:1045800039462046FFF705FF2046FFF769FC1FB1BB
:10459000022084F89C0242E084F89C523FE02046CE
:1045A0003BE0FFF777FF3AE0CB88012B35D190F85D
:1045B0009C32012B04D0022B02D0032B2DD104E01E
:1045C0008260012200F1080116E00122011D13E0C2
:1045D00090F89C22012A03D0022A01D0032A1CD180
:1045E000CA88022A19D1C560D0F8A41209B10321E2
:1045F000C160022200F10C01FFF725FC0FE04988A1
:1046000001290CD1C0F8A45211E090F89C32012B82
:1046100008D0022B06D0032B04D0FFF7EFFB304667
:10462000BDE8F08149880129F9D1C0F8A422FFF73B
:1046300017FCF4E72DE9F0410A46044610780027FC
:10464000097910F060030AD0202B01D0402B50D103
:10465000D4F8B40211468368204698478FE0C0F32F
:104660004110012806D05078D0B301282AD0032861
:104670003FD107E0D4F8B402114683682046BDE874
:10468000F041184794F89C02022802D0032872D106
:104690000AE071B380296ED02046FFF7B0FE80217A
:1046A0002046FFF7ACFE6AE0508838B931B1802966
:1046B00004D0D08810B92046FFF7A1FE2046FFF7AE
:1046C000CFFB5CE094F89C020228E2D0032852D190
:1046D000508898BB4806F1D02046FFF7FAFCEDE77A
:1046E000FFE794F89C020026022803D0032842D159
:1046F00012E040E009B180293DD1080601F07F00B9
:1047000000EB800004EB800101D5143101E001F5DC
:10471000AA7102220E602AE0080601F00F0000EBE9
:10472000800004EB80000AD5806920B301F07F008F
:1047300000EB800004EB800514350BE01FE0D0F89F
:104740005801C0B101F07F0000EB800004EB800550
:1047500005F5AA7541B1802906D02046FFF7B4FDC2
:1047600010B10120286000E02E6002222946204678
:10477000FFF769FB03E011462046FFF73FFB384691
:10478000BDE8F08170B5054608780C4610F0600071
:1047900003D0202801D0402816D195F89C0201288A
:1047A00003D0022801D003280ED1207901280BD88C
:1047B000D5F8B402826828469047E188014306D1C3
:1047C0002846FFF74DFB02E02846FFF717FB0020C5
:1047D00070BD704700487047441200202DE9F04733
:1047E0000C78002630F8243048F68F121340CA782F
:1047F000002A78D0012A7CD0022A02D0032A75D060
:10480000012648F28002134320F824300D7830F856
:10481000253048F68F7423402B43134320F825306E
:104820000D7B48F2C00948F6BF734CF2800A4BF684
:104830008F77EDB3CD7891F800C0022D30F82C5071
:104840007DD048F68F6805EA0805154320F82C50FE
:10485000B0F8505091F800C0054405EB0C15B1F8C4
:1048600008C02CF0010CA5F800C4B0F8505091F825
:1048700000C0054405EB0C15B1F80AC02CF0010C82
:10488000A5F808C44D78002D7ED00D7830F825C0ED
:104890005FEA4C4C07D530F825C00CEA040C4CEA12
:1048A0000A0C20F825C091F800C030F82C5000E028
:1048B00022E06D0606D530F82C50254045EA090562
:1048C00020F82C50CC780D78012C30F8254004EAE3
:1048D00003047CD084F02003134320F82530C1E08A
:1048E00001E006E002E043F400738AE743F4C063AA
:1048F00087E743F4806384E74D784DB3B0F85050B8
:104900000F78054405EB0715CF8827F00107A5F8B8
:1049100000740F7830F827506D0606D530F8275010
:10492000254045EA090520F82750CC78012C07D00E
:104930000C7830F82410194081F0200104E064E084
:104940000C7830F824101940114320F8241090E01E
:10495000B0F850300D78034403EB0513CD8825F0F3
:104960000105A3F80854B0F850300D78034403EB68
:104970000513B3F80C54C5F30905A3F80C540D69DD
:1049800003F20C433E2D00E045E00BD94FEA551CE5
:10499000ED0601D1ACF1010C1D884FF4004848EA46
:1049A0008C2C0BE035B34FEA550CED0701D00CF120
:1049B000010C1D884FF6FF7808EA8C2C45EA0C059F
:1049C0001D800D7830F825305B0408D500E046E006
:1049D00030F82530234043EA0A0320F825300978CF
:1049E00061B130F821303B4083F40053134320F889
:1049F00021303EE01D8845F40045E1E7018839405B
:104A000081F440511143018033E0254048F2801881
:104A100045EA08051AE791F800C030F82C506D04FB
:104A200006D530F82C50254045EA0A0520F82C50D0
:104A300091F800C030F82C506D0606D530F82C5097
:104A4000254045EA090520F82C500D7830F825401E
:104A50003C4084F44054144320F8254070E714434C
:104A600020F825400B7830F823103940114320F806
:104A700023103046BDE8F087002070472DE9F04351
:104A800091F80C804F780A7848F6BF7C4BF68F7906
:104A900048F2800348F2C0054CF2800648F68F7455
:104AA000B8F1000F28D0002F30F822704FEA4747A6
:104AB00048D0002F05DA30F822702740374320F81D
:104AC00022700A7830F822707F0605D530F82270FF
:104AD00027402F4320F822700D7830F825202240FF
:104AE000324320F825200C7830F8242002EA0C020A
:104AF0001A4320F824201AE07FB130F822607606AD
:104B000005D530F8226026402E4320F822600A782E
:104B100030F8221001EA0C010EE030F822506D044A
:104B200005D530F822502540354320F822500A7828
:104B300030F8221001EA0901194320F82210002060
:104B4000BDE8F083002F05DA30F8227027403743A4
:104B500020F822700A7830F82260760605D530F801
:104B6000226026402E4320F822600E7830F826205E
:104B700022402A4320F826200C7830F8242002EA2C
:104B800009021A4320F82420C1E7002070470020C2
:104B90007047012120F8401F00210180818001829F
:104BA0000846704730F8401F21F43F410180002043
:104BB00070470020704730B50A7BB2BB4A7848F690
:104BC0008F7548F28004C2B10B7830F8232052066A
:104BD00007D530F823202A4048F2C0052A4320F8A0
:104BE0002320CA78012A20D00A7830F8221048F60B
:104BF000BF73194081F0200114E00A7830F82230A8
:104C00005B0407D530F822302B404CF280052B4353
:104C100020F822300A7830F822104BF68F731940B2
:104C200081F44051214320F82210002030BD10B5FE
:104C30004A780978002A48F2800330F8212005D00C
:104C400048F6BF74224082F0100204E04BF68F74E5
:104C5000224082F480521A4320F82120002010BD07
:104C60002DE9F0470D464B78097B04464FF00009CB
:104C700048F68F7248F2800A4FF400474FF6FF78EB
:104C8000012B09D000296FD0E87802286DD00128C7
:104C90006CD00120BDE8F087AE692869864200D952
:104CA000064691B1E97802291ED0286A801B286245
:104CB000287834F820104906B4F85010214401EB4C
:104CC000001073D5A0F80C6416E1B3B2EA88204650
:104CD000696900F067FAB4F850002978204400EBC5
:104CE0000110A0F804640DE1296A814277D929787E
:104CF00034F82100104048F28012104324F82100BB
:104D0000286A801B2862287834F8201049066978C0
:104D100071D511B101292AD030E0B4F850102144E6
:104D200001EB0010B0F80C14C1F30901A0F80C1449
:104D300000F20C403E2E07D97109F20600D1491E3F
:104D4000028847EA812107E04EB17108F20700D0DE
:104D5000491C028808EA81210A4302800EE001888A
:104D600041F40041018009E0F1E020E195E1B4F86F
:104D70005020111901EB0010A0F80C646A89B3B23D
:104D80002046696900F00EFA686930446861296953
:104D9000286A884202D9801B286202E00646C5F8CC
:104DA0002090687818B101282BD032E02FE0B4F8B9
:104DB00050002978204400EB0110B0F80414C1F32E
:104DC0000901A0F8041400F204403E2E08D971092C
:104DD000F20600D1491E028847EA812108E0A1E0DD
:104DE00056B17108F20700D0491C028808EA8121F7
:104DF0000A4302800DE00EE0018841F40041018089
:104E000007E0B4F850002978204400EB0110A0F826
:104E100004642A8971E011B1012927D02DE0B4F88A
:104E20005010214401EB0010B0F80414C1F3090143
:104E3000A0F8041400F204403E2E07D97109F206CE
:104E400000D1491E028847EA812107E04EB171086E
:104E5000F20700D0491C028808EA81210A43028037
:104E60000BE0018841F40041018006E0B4F85010E5
:104E7000214401EB0010A0F804642A89B3B2204653
:104E8000696900F08FF96869304468612969286AA6
:104E9000884202D9801B286202E00646C5F82090AD
:104EA000687810B1012836D026E0B4F8500029788F
:104EB000204400EB0110B0F80C14C1F30901A0F874
:104EC0000C1400F20C403E2E07D97109F20600D1F5
:104ED000491E028847EA812107E04EB17108F207B6
:104EE00000D0491C028808EA81210A43028003E0BD
:104EF000018841F4004101806A89B3B220466969A2
:104F000000F050F9297834F8210048F6BF721040BB
:104F100080F030000FE1B4F850100819297800EB48
:104F20000110CFE62A7834F8220048F68F63184043
:104F300040EA0A0024F82200B4F850002A782044FD
:104F400000EB02108BB2A0F804342A89D6E7A969D5
:104F50002869814202D9091AA96102E00846C5F808
:104F60001890B4F850102A78214401EB0211B1F8DE
:104F70000C24C2F30902A1F80C2401F20C413E28D2
:104F80007DD94209C00600D1521E088847EA822214
:104F90000AE0088840F4004007E04208C00700D05B
:104FA000521C088808EA822210430880BBE033BB09
:104FB000B4F850002978204400EB0110B0F8041434
:104FC000C1F30901A0F80414296900F204403E2944
:104FD00007D94B09C90600D15B1E018847EA832324
:104FE00007E041B14B08C90700D05B1C018808EA03
:104FF0008323194302E0018841F40041018068786D
:1050000010B1012828D030E0B4F8500029782044AD
:1050100000EB0110B0F80C14C1F30901A0F80C1456
:10502000296900F20C403E2907D94B09C90600D175
:105030005B1E018847EA832307E041B14B08C9079B
:1050400000D05B1C018808EA8323194302E0018831
:1050500041F40041018008E0B4F8501008192978A3
:1050600000EB0110298AA0F80C14E869C0B3297874
:1050700034F82100430401D5430605D400E046E09E
:1050800044F2400318424ED134F82100104048F257
:10509000C002104324F8210045E0A9692869814233
:1050A00002D9091AA96102E00846C5F8189013BB95
:1050B000B4F850102A78214401EB0211B1F804240D
:1050C000C2F30902A1F8042401F204413E2808D9E0
:1050D0004209C30600D1521E0B8847EA822208E02B
:1050E00021E078B14208C30700D0521C0B8808EABF
:1050F000822213430B80697800293FF42EAF0129E7
:1051000009D010E00A8842F400420A80F3E7002840
:105110007FF443AF3DE7B4F8502011192A7801EB32
:105120000211A1F80C04297834F821004BF68F7293
:10513000104080F4405040EA0A0024F8210000208A
:10514000A8E50021A0F844104FF43F41A0F840101A
:10515000002070470148FCF7BDBF00006414002028
:10516000B0F844007047000010B500EB42005C0846
:1051700000F5806009D000BF30F8042B01F8012B46
:10518000120A01F8012B641EF6D1DA0701D000885B
:10519000087010BD0020704711B98021A0F84C1094
:1051A0000020704710B55B1C00EB42005B0800F567
:1051B000806009D011F8012B11F8014B42EA04225A
:1051C00020F8042B5B1EF5D110BDFEE701B584B0BD
:1051D00001214FF4807204A88DE807000B460022DD
:1051E00078210248FCF7CAFA05B000BD600400202F
:1051F00001B584B001214FF4807204A88DE8070046
:105200000B46402278210248FCF7B8FA05B000BDF1
:10521000600400200FB4084B10B504A902AA03983B
:1052200000F0F6F8044602A9002000F074FC2046C5
:1052300010BC5DF814FB0000175B00080907090E9D
:10524000002804DB00F1E02080F80014704700F033
:105250000F0000F1E02080F8141D704702E008C83C
:10526000121F08C1002AFAD170477047002001E0E0
:1052700001C1121F002AFBD1704700002DE9FF5F1A
:1052800082B00021DDE90430020DDDF840B00343B7
:1052900018D044F61050A2F2FF3242431514119870
:1052A00001281FD0A5EB0B00401C5FEA000A4FF05D
:1052B00000064E4FDFF83891B046504615D5CAF17A
:1052C000000413E0119801244AA3012801D16FEAD8
:1052D0000B010298119AC0E90031C0E9024206B000
:1052E000BDE8F09FCBF10000DFE704460021404A13
:1052F000491842EB0450CDE9001012E0E00707D056
:1053000032463B4640464946FBF79CFB8046894671
:1053100032463B4610461946FBF794FB06460F46BD
:105320006410002CEAD1DDE90401DDE90023BAF1C3
:10533000000F06DAFBF786FB42464B46FBF782FB83
:1053400005E0FBF7F1FB42464B46FBF7EDFB04465D
:105350000E460022284BFBF77BFC03D84FF0FF30B2
:10536000014607E00022254B20463146FBF7C3FAF1
:10537000FBF755FC102409E0002C0ADB0A2200236D
:10538000FBF71CFA039B30321A55641E50EA0102E7
:10539000F2D1641C039AC4F111031444119A012A36
:1053A00003D0012208430DD10AE0084304D00020B5
:1053B0004FF0110B119072E7A3EB0B056D1E0DE082
:1053C0005B4504DD4FF0000205F1010504E003DA5E
:1053D0004FF00002A5F10105002AECD002981199C6
:1053E000C0E90231C0E9004579E70000000014403F
:1053F0000000F03F300000000000F0430000E03FFC
:1054000030380A2801D20120704700207047000080
:105410002DE9FF4F95B09A46884606460025EEE1F5
:10542000252877D100242746F94A0121039400E07A
:10543000044316F8013F203B01FA03F01042F7D174
:1054400030782A2811D06FF02F033078A0F1300285
:10545000092A16D8039A44F0020402EB820203EBF5
:1054600042021044761C0390EFE758F8042B039295
:10547000002A03DA504244F40054039044F002043A
:10548000761C30782E2816D116F8010F44F004044B
:105490002A280DD06FF02F023078A0F13003092BAD
:1054A00009D807EB870302EB4303C718761CF3E721
:1054B00058F8047B761C30786C280FD006DC4C281A
:1054C00017D068280DD06A2814D104E0742810D0B1
:1054D0007A280FD10DE044F400140AE044F480145B
:1054E00001E044F440147278824202D104F5801441
:1054F000761C761C307866280BD013DC582877D0C1
:1055000009DC002875D04528F6D04628F4D0472875
:105510001AD193E118E0632835D0642879D0652842
:1055200012D18BE1702873D008DC6728F1D069288C
:105530006FD06E280DD06F2806D1ACE073282CD028
:10554000752874D0782853D05246179990476D1C0F
:1055500054E1C4F30250022809D003280DD0D8F832
:10556000001004280DD00D6008F1040846E1D8F8B9
:105570000010EA17C1E90052F6E7D8F800100D80D4
:10558000F2E70D70F0E718F8041B8DF8001000200A
:105590008DF80100EB46012003E058F804BB4FF002
:1055A000FF3061074FF0000102D40DE009F1010165
:1055B0008946B9420FDA8145F8DB1BF8091000294A
:1055C000F4D108E009F1010189468142FADB1BF8B8
:1055D00009100029F6D103985346A0EB090721468C
:1055E0003846179A00F080FA284400EB090507E0D6
:1055F00044E008E10DE01BF8010B52461799904773
:10560000B9F10109F7D2534621463846179AF2E01C
:1056100039E00A21C4F302524FF0000B0091022A34
:1056200006D058F8040BC117032A09D00AE023E07A
:1056300008F1070020F00702F2E80201904605E0B9
:1056400000B2C117042A01D140B2C117002906DAFD
:105650000A460021404261EB02012D2202E02205B0
:1056600004D52B228DF80420012203E0E20701D0AB
:105670002022F7E7914657E00A2100E010214FF081
:10568000000B00910BE010214FF0000B44F00404DC
:105690000827009103E008204FF0000B0090C4F3AE
:1056A0000252022A05D058F8040B0021032A08D020
:1056B00008E008F1070020F00702F2E80201904636
:1056C00003E080B2042A00D1C0B24FF000092207E3
:1056D0002AD53278702A07D0DDF800C08CF0100C83
:1056E0005CEA0B0C05D00EE040228DF8042001226C
:1056F00008E050EA010306D030238DF804308DF81D
:10570000052002229146009B83F0080353EA0B0315
:105710000AD150EA010201D1620705D530228DF885
:1057200004204FF001097F1E3278582A04D039A294
:105730000C920CAA02920BE03BA2F9E75B46009A9E
:10574000FBF73CF80C9B9B5C029A521E0292137072
:1057500050EA0102F2D1029804A9081A00F1200BC4
:10576000600702D524F4803400E001275F4502DDA4
:10577000A7EB0B0000E0002000EB0B01009003986A
:105780004944401A0390E00306D453462146179A31
:10579000039800F0A9F90544002706E001A8524645
:1057A000C05D179990476D1C7F1C4F45F6DBE003E9
:1057B0000CD553462146179A039800F095F90544F5
:1057C00004E030205246179990476D1C0099481EFE
:1057D00000900029F5DC08E0029802995246007812
:1057E000491C0291179990476D1CBBF10001ABF168
:1057F000010BF1DC5BE100F065F90544761C3078C3
:1058000000287FF40DAE19B02846BDE8F08F0000E7
:105810000928010030313233343536373839616286
:10582000636465660000000030313233343536374A
:10583000383941424344454600000000600700D427
:10584000062708F1070020F00700F0E80223804651
:1058500003F0004C5FEA0C0001D097A009E020059E
:1058600001D596A005E0E00701D095A001E0AFF2D8
:105870004C001390307823F0004365280CD006DCF0
:10588000452809D046281DD047287FD13BE066280F
:1058900018D067287AD136E00021112F01DB1120C2
:1058A00000E0781CCDE9000104A90CA8FFF7E6FC94
:1058B000DDE90D010C9A4FF0000B07F10109109280
:1058C00000914EE04FF000400097CDE9011004A98F
:1058D0000CA8FFF7D3FCDDE90D020C9B0F994FF0EC
:1058E000000B91461093009211B9791C00EB01094D
:1058F000B7EB090003D4C0F1FF3B07F10109A9EBA5
:105900000700019042E0012F00DA01270021112F4A
:1059100001DD112000E03846CDE9000104A90CA802
:10592000FFF7ACFCDDE90D010C9A00914FF0000B84
:10593000B946109221070FD4009A4A4503DA9146DE
:1059400001E0A9F10109B9F1010F05DD109AA9F1F2
:105950000101515C3029F4D0B84202DA10F1040F91
:1059600003DA0121CDE9011010E0002803DC8344B3
:10597000A9EB000102E0411C494500DD8946A0EB8E
:105980000B00401C01904FF000400290200705D40E
:105990000198484502DB4FF0FF30019000208DF860
:1059A0004B0002980DF14B07B0F1004F25D00220BB
:1059B0000C902B200D90029800280CDA40420290A7
:1059C0002D200D9007E00A210298FAF7E1FE303110
:1059D000029007F8011D0C99481E0C900029F2DC7A
:1059E00002980028EFD1791E0D980870307800F0E9
:1059F000200040F0450007F8020D11A8C01BC01D93
:105A000002901398007800B1012000EB0901019881
:105A100001EBE071029801440398401A401E039084
:105A2000E00306D453462146179A039800F05CF829
:105A300005441398007818B15246179990476D1C89
:105A4000E00323D553462146179A039800F04CF8FB
:105A500005441BE0BBF1000F07DB0098584504DD4F
:105A60001098179910F80B0001E017993020524652
:105A7000904701980BF1010B401E05F101050190C3
:105A800004D12E205246179990476D1CB9F10001A0
:105A9000A9F10109DEDC05E017F8010B5246179960
:105AA00090476D1C0299481E02900029F4DC534671
:105AB0002146179A03989EE62D0000002B00000057
:105AC000200000002DE9F041044600251E4617463F
:105AD000880404D405E039462020B0476D1C641EBC
