:020000040800F2
:10000000E82700209D010008BF290008BF24000840
:10001000BD290008970900082F49000800000000CA
:1000200000000000000000000000000005010008C2
:10003000E9090008000000004901000865310008D6
:10004000B7010008B7010008B7010008B7010008B0
:10005000B7010008B7010008B7010008B7010008A0
:10006000B7010008B7010008B7010008B701000890
:10007000B7010008B7010008B7010008B701000880
:10008000DD090008B7010008B7010008B701000842
:10009000B9480008B7010008B7010008B701000817
:1000A000B7010008B7010008B7010008B701000850
:1000B000F5310008B7010008B7010008B7010008D2
:1000C000B7010008B7010008B7010008B701000830
:1000D000B7010008B7010008B7010008B701000820
:1000E000B7010008B7010008B7010008DFF810D019
:1000F00000F014FC0048004759530008AFF300809B
:10010000E8270020224B19680868B0E8F00F80F358
:100110000988BFF36F8F4FF0000080F311884EF015
:100120000D0E70470000000006480068006880F36C
:10013000088862B661B6BFF34F8FBFF36F8F00DFE1
:1001400000BF00BF08ED00E0EFF30980BFF36F8F41
:100150000F4B1A6820E9F00F106008B54FF05000FF
:1001600080F31188BFF34F8FBFF36F8F05F0A2FCB0
:100170004FF0000080F31188BDE808401968086856
:10018000B0E8F00F80F30988BFF36F8F704700BFAE
:10019000A0010020EFF3058070470000064880476B
:1001A00006480047FEE7FEE7FEE7FEE7FEE7FEE75C
:1001B000FEE7FEE7FEE7FEE7F3310008ED0000088A
:1001C000202A04DB203A21FA02F00021704721FAAC
:1001D00002F3D040C2F12002914008431946704713
:1001E00040EA01039B0703D009E008C9121F08C0B9
:1001F000042AFAD203E011F8013B00F8013B521E39
:10020000F9D27047D2B201E000F8012B491EFBD2AF
:1002100070470022F6E710B513460A460446194611
:10022000FFF7F0FF204610BDF0B480EA0102D40FC2
:100230004200B2EB410F02D20246084611464A0084
:1002400042D0C30DDDB2C1F3C752AD1A202D35DA4D
:10025000C1F3160141F4000204B15242C5F1200677
:1002600002FA06F12A411044B3EBD05F23D0C4B1A7
:10027000012DA0EBC35009DCF0BC4FF0004202EAB4
:10028000C352DBB200F5000000F01BBA400000F1E1
:10029000807000EBC350A0F1807040EAD17049003B
:1002A00009E0490841EAC071A0EBC35000F5000025
:1002B000400800EBC350F0BC00F0FAB961420122E3
:1002C00002EB4101001BF6E7F0BC704781F00041F2
:1002D000AAE780F00040A7E780EA010210B502F02B
:1002E0000043400022D04A001FD0010E01EB1261F2
:1002F000C0F35600C2F3560240F4000042F400027C
:10030000A0FB022000047F39140400D0401C50EAF6
:10031000124001D44000491EC2B20C0604EBD010BA
:10032000401C4008802A02D003E0002010BD20F0CD
:100330000100002900DA0020184310BD2DE9FE4F0E
:10034000804681EA0300C00F0C46009021F0004176
:1003500023F00045B8EB0200A94105D240462146F2
:1003600090461C460B46024623F00040104347D0FF
:10037000270DC7F30A00C3F30A510290401A0190F7
:1003800040286BDAC3F3130040F4801B00989246B8
:1003900020B10023D2EB030A63EB0B0B0198594603
:1003A000C0F14002504600F062F906460D46504644
:1003B0005946019A00F06AF910EB080061410024E7
:1003C00087EA115284EAE7731A4340D0009A62B375
:1003D000019A012A4FEA075215DC001B61EB02016A
:1003E0004FF0004202EA0752CDE90042001C41F5FD
:1003F000801132462B4600F0A1F903B0BDE8F08F22
:1004000040462146F9E7001B61EB0201001C41F563
:10041000801300185B412018A2F5001747EB030179
:1004200040EAD570B6196D4111E06D084FEA360605
:1004300045EAC0754FEA0752001B61EB0201001C40
:1004400041F5801149084FEA300000195141324608
:100450002B4603B0BDE8F04F00F061B900980122CF
:1004600040000023D0EB020263EBE07300982146CA
:100470004FEAE074B8EB000061EB0401E9E783F0B8
:1004800000435BE781F0004158E72DE9F04D81EA38
:10049000030404F0004B21F0004514464FF0000A1D
:1004A00023F0004150EA050220D054EA01021DD099
:1004B000C5F30A570246C5F31303C1F31300C1F392
:1004C0000A5640F4801543F48013A7EB0608101B6E
:1004D000D64608F2FD3873EB050002D308F1010897
:1004E00001E092185B41B8F1000F03DA00200146E9
:1004F000BDE8F08D00204FF48011064684460EE0E2
:10050000171B73EB050705D3121B63EB05030643AB
:100510004CEA010C49084FEA300092185B4150EA5E
:100520000107EDD152EA030012D082EA040083EA07
:100530000501084305D0101BAB4106D20122002360
:1005400006E000224FF0004302E06FF0010253107A
:100550001AEB06004CEB085110EB0A0041EB0B01C3
:10056000BDE8F04D00F0DBB80EB540F2334102912A
:100570000021CDE900110A460B4600F0DFF803B078
:1005800000BD00F0004230F000400AD0C10D01F57E
:100590006071C0F3160042EA0151C20840071143DE
:1005A000704700200146704701F0004330B421F04D
:1005B000004150EA010206D00A0DA2F56072C1F3B3
:1005C0001301002A02DC30BC00207047440F44EACB
:1005D000C104C100E01830BC00EBC25000F068B8A4
:1005E00030B50B46014600202022012409E021FA03
:1005F00002F59D4205D303FA02F5491B04FA02F500
:100600002844151EA2F10102F1DC30BD2DE9F05F96
:100610000546002092469B46884606468146402471
:100620001BE02846414647462246FFF7C9FD534690
:100630005A46C01A914110D311461846224600F07E
:1006400016F82D1A67EB01084F46224601200021BB
:1006500000F00DF817EB00094E41201EA4F1010433
:10066000DFDC484631462A464346BDE8F09F202A53
:1006700004DB203A00FA02F1002070479140C2F1F9
:10068000200320FA03F3194390407047202A06DB29
:10069000CB17203A41FA02F043EAE07306E041FA50
:1006A00002F3D040C2F1200291400843194670473E
:1006B0000029A8BF7047401C490008BF20F0010076
:1006C000704710B4B0FA80FC00FA0CF050EA010454
:1006D00004BF10BC704749B1CCF1200421FA04F4E6
:1006E00011FA0CF118BF012121430843A3EB0C01BF
:1006F000CB1D4FEA00614FEA102042BF002010BC22
:10070000704700EBC35010440029A4BF10BC7047D1
:10071000401C490008BF20F0010010BC704710B514
:10072000141E73F1000408DA401C41F10001921814
:100730005B411A4301D120F0010010BD2DE9F04DBD
:1007400092469B4611B1B1FA81F202E0B0FA80F212
:1007500020329046FFF78BFF04460F4640EA0A001E
:1007600041EA0B0153465A46084313D0114653EA57
:10077000010019D0C8F140025046FFF721FD05469F
:100780000E46504659464246FFF771FF084305D0D2
:10079000012004E020463946BDE8F08D00200543E5
:1007A00046EAE0762C4337430A986305E40AA0EB57
:1007B00008000022FD0A44EA47540A3002D500200E
:1007C0000146E9E7010510196941DDE9084500190D
:1007D0006941BDE8F04DA2E72DE9FE4F81EA03042F
:1007E00004F0004421F0004100944FF0000B23F08E
:1007F000004350EA01045ED052EA03045BD0C3F325
:100800000A54C1F30A552C44A4F2F3340194A0FB1A
:100810000254C1F3130141F48011C3F3130343F4F1
:10082000801301FB024400FB034E840A970A44EA4A
:10083000815447EA8357A4FB076802958D0A05FB9C
:1008400007854FEA932C04FB0C542705029D4FEAC1
:10085000065847EA1637B5EB08056EEB070C870E0E
:10086000920E47EA811742EA8312A7FB0201B6EB18
:100870000B0164EB00042B0D43EA0C335E1844EBD0
:100880001C50DA465146E7FB0201C5F313044FEA58
:100890000B3343EA14534FEA0432019C43EA060344
:1008A000A4F10C040294009CCDE900B4FFF746FFCC
:1008B00003B0BDE8F08F00200146F9E7C1F30A520A
:1008C000C1F3130140F2FF3341F480119A4202DA7E
:1008D00000200146704740F233439A42A2F233426D
:1008E00002DC5242FFF76CBCFFF7C1BE30B5041EFC
:1008F00071F1000404DB4FF00044404264EB01015D
:10090000141E73F1000405DB1C464FF000435242F5
:1009100063EB0403994208BF904230BD064C074D7B
:1009200006E0E06840F0010394E8070098471034BF
:10093000AC42F6D3FFF7DEFBD4660008F46600088D
:1009400070B58C1810F8015B15F0070301D110F891
:10095000013B2A1106D110F8012B03E010F8016BBE
:1009600001F8016B5B1EF9D12B0705D40023521E41
:100970000DD401F8013BFAE710F8013BCB1A921CA9
:1009800003E013F8015B01F8015B521EF9D5A142A7
:10099000D8D3002070BDFEE70020704700207047CC
:1009A00010B500220449054802F066FD04490348D9
:1009B00002F05CFD002010BD000E00203C05002070
:1009C000000A002010B50146034802F04FFD02481E
:1009D00002F030FD002010BD3C050020014800F071
:1009E00007B80000B0040020704772B6FEE70000B0
:1009F0002DE9F05FC16B0C6801680B68D0F840C04E
:100A0000042202FA0CF2494DDFF824A1494E4A4F64
:100A1000DFF828B1DFF828E122422CD05A072AD586
:100A20000A68920603D40A6822F004020A60016888
:100A3000A94201D1042219E0514501D1402215E01B
:100A4000B14202D14FF4806210E0B94202D14FF4BA
:100A500080420BE0594502D14FF4802206E07145F7
:100A600002D14FF4800201E04FF080622F49083933
:100A70004A60C16A3BE04FF0020808FA0CF818EA35
:100A8000040F4FF000094FF0010235D05FEA837880
:100A900032D50B689B0605D40B6823F00A030B6064
:100AA00080F821200168A94201D1022219E05145B4
:100AB00001D1202215E0B14202D14FF4007210E0C2
:100AC000B94202D14FF400520BE0594502D14FF424
:100AD000003206E0714502D14FF4001201E04FF000
:100AE0000072124908394A6080F82090816A002912
:100AF0001AD0BDE8F05F0847082505FA0CF5254235
:100B000012D01B0710D50B6823F00E030B6090F872
:100B10004010C36B02FA01F15960826380F8212012
:100B200080F82090016BE2E7BDE8F09F08000240EA
:100B30001C000240300002404400024058000240C5
:100B40006C00024030B528B308C813491422194478
:100B5000B1FBF2F18900C163104981630221417741
:100B60001A6843F6F0718A43D0E900142143D0E9B2
:100B700002452C432143046921434469214384698C
:100B8000214311431960002141630122427701771B
:100B9000084630BD012030BDF8FFFDBF0000024017
:100BA00070B5044600F008F90546601C02D0044800
:100BB0000078044400F000F9401BA042FAD370BD55
:100BC0007C0000202DE9F84FDFF8B8910024A9F14E
:100BD000040B23460F2709F1040AABF1040EC9E008
:100BE0000125A5402A40AA427DD1674ED1F804C014
:100BF000ACEB0608B44532D014DCBCF1030F3AD09C
:100C000009DCBCF1000F2AD0BCF1010F1CD0BCF1F3
:100C1000020F31D11DE0BCF1110F17D0BCF1120F42
:100C20002AD119E0B8F5881F19D006DCB8F5803F45
:100C300015D0B8F5801F1FD111E0B8F5001F0ED0F8
:100C4000B8F5041F18D10AE0CB6815E0CB681B1D6E
:100C500012E0CB6808330FE0CB680C330CE08B68F4
:100C60002BB1012B4FF0080303D0456104E00423AE
:100C700002E0056100E00023FF2A01D8064601E0FA
:100C800000F104064FEA840501D9A5F12005D6F844
:100C9000008007FA05FC28EA0C0803FA05F548EA83
:100CA0000508C6F800804D68ED0062D5374DAE6985
:100CB00046F00106AE61AD6924F0030605F00105BA
:100CC0000095334D06EB050CDCF80850A607360FEF
:100CD00007FA06F825EA0805DFF8B880404503D191
:100CE0004FF0000817E044E0DFF8AC80404502D147
:100CF0004FF001080FE0DFF8A480404502D14FF02B
:100D0000020808E0DFF89880404502D14FF0030860
:100D100001E04FF0040808FA06F848EA0508CCF8A4
:100D200008804D68D9F80060ED024D4601D51643A4
:100D300000E096432E604D68DAF80060AD0255463B
:100D400001D5164300E096432E604D68DBF8006045
:100D5000AD035D4601D5164300E096432E604D6815
:100D6000DEF80060ED03754601D5164300E09643BA
:100D70002E60641C0D682A46E5407FF431AFBDE863
:100D8000F88F00000804014000001110001002401C
:100D90000000014000080140000C0140001001402B
:100DA000001401408068084000D0012070470AB15B
:100DB000016170470904FBE7014880687047000043
:100DC0007C00002070B5040025D094F83D0000257B
:100DD00020B984F83C50204600F050F9242084F8D3
:100DE0003D002068016821F0010101602068016870
:100DF00041F4004101602068016821F40041016074
:100E000000F0D2FF4D4A6168914201D84C4900E0A0
:100E10004C49884201D2012070BD4B492368B0FB88
:100E2000F1F15E6826F03F060E435E606368934210
:100E300006D94FF4967359434FF47A73B1FBF3F12B
:100E40002368491C1E6A26F03F0631431962616817
:100E5000914210D84900401EB0FBF1F2521CC2F37F
:100E60000B02042A01D2042022E0B0FBF1F0401C66
:100E7000C0F30B001CE0A268F2B301EBC10303EB6B
:100E80000116431EB3FBF6F35B1C43F480431B05C2
:100E900049D092B301EBC10202EB0111401EB0FB3D
:100EA000F1F0401CC0F30B0040F4804040F40040DF
:100EB0002168CA694CF6FF739A431043C861D4E9AC
:100EC000071001432068026822F0C002114301604C
:100ED000D4E9030101432068826848F2FF339A4352
:100EE00011438160D4E9050108432168CA6822F0F2
:100EF000FF021043C86001E00EE016E020680168C0
:100F000041F0010101602564202084F83D00256343
:100F100084F83E50002070BD01EB4106431EB3FB38
:100F2000F6F35B1CB3E70120C2E701EB4101401E71
:100F3000B0FBF1F0401CC0F30B00B7E7A086010046
:100F400080841E0000093D0040420F002DE9FF4F44
:100F500083B09A46DDE9119793460446DDF8408058
:100F6000FFF72AFF054694F83D0020287FD119237A
:100F7000012240492046009501F03AFB002876D135
:100F800094F83C00012872D0012084F83C002068CD
:100F90000168C90703D1016841F0010101602068BF
:100FA000016821F400610160212084F83D004020A7
:100FB00084F83E0000262664C4F82480A4F82A9011
:100FC000608D20852C48E062CDE9007553465A4675
:100FD0002046049901F08CFA70B930E02A4639466F
:100FE000204601F0ABFB58B1206C042804D12068E6
:100FF000016841F400710160012007B0BDE8F08F85
:10100000606A216800780861606A401C6062218D16
:10101000491E89B22185628D521E628522685369FC
:10102000DB435B070BD469B100781061606A401C38
:101030006062208D401E2085608D401E6085208D61
:101040000028CBD12A463946204601F0A5FA0028CF
:10105000CAD154F83D0B016841F4007101602020B1
:1010600004F81E09E67766770020C6E7FFE702204E
:10107000C3E70000020010000000FFFF70B586B05B
:1010800000250646009501950295039500681A49CA
:1010900088422FD1194CA06940F00800A061A069D6
:1010A000694600F008000490C020009012200190D2
:1010B000032003901248FFF785FDE06940F400101B
:1010C000E061E069104C00F4001004900D482060CD
:1010D0001020C4E901058020C4E9030540016561D1
:1010E000C4E906502046FFF72DFD08B1FFF77DFC4F
:1010F0007463666206B070BD005400400010024088
:10110000000C01406C000240B004002002488168DD
:1011100002781144816070477C000020074810B5B8
:10112000016841F010010160032000F07BF80F20FE
:1011300000F006F800F024F8002010BD0020024066
:1011400070B50D4D04464FF47A712878B1FBF0F07C
:101150000A490968B1FBF0F000F0ECFF48B9102C27
:1011600007D200222146501E00F03CF800206C609F
:1011700070BD012070BD00007C00002088000020B0
:101180000F4808B5816941F001018161816901F071
:1011900001010091C16941F08051C161C069002223
:1011A00000F0805000900F21901E00F01BF80548C1
:1011B000416821F0E06141F00071416008BD00002C
:1011C0000010024000000140002809DB00F01F026F
:1011D000012191404009800000F1E020C0F8001199
:1011E00070470000F0B40E4B1B680C46C3F302239B
:1011F000C3F10705042D00D90425191D072901D2C3
:10120000002300E0DB1E012606FA05F1491E2140FD
:1012100099409E40761E16403143F0BC03F0C0BB9F
:101220000CED00E0064900F0070208684FF6FF03E6
:10123000184040EA0220034A10430860704700004B
:101240000CED00E00000FA0510B50C0607D501F022
:10125000070101EB810100EBC100103005E001EB5B
:10126000810100EBC10000F5A87099B232B10122F2
:1012700002730181190C4181002010BD002202730C
:10128000C180F9E7704701EB810200EBC202D0F8A0
:10129000D402526A02F0E1BA01EB810200EBC20211
:1012A000D0F8D402D2F8642102F03ABB70B50446FB
:1012B0000B0601F0070000EB800104EBC1014FF0C9
:1012C00001024FF0000502D54A74103103E081F8A5
:1012D000515101F5A871087094F89002012808D0C6
:1012E00084F89022206802F07BFF84F8905200205E
:1012F00070BD022070BD70B5044601F00F00227968
:10130000904201D9012070BD0B0601F0070000EBEF
:10131000800104EBC1014FF001024FF0000502D53E
:101320004A74103103E081F8515101F5A8718D70B4
:10133000087094F89002012808D084F89022206860
:1013400002F0EBFF84F89052002070BD022070BDC7
:101350002DE9F05F04685FEA424C0B788D69B4F8C0
:1013600050C04FF000064BF68F7948F2800A48F6DD
:101370008F7B48F2C00E4FF480672AD54FF00208E9
:1013800008EBC308C44407EB4C07E45BC4F309044F
:10139000A54203D32D1B8D6101D00BE08E61066841
:1013A00036F8235005EA090585F4005545EA0A0593
:1013B00026F82350520609D50D78036833F8252006
:1013C00002EA0B0242EA0E0223F8252084B30A89BE
:1013D00029E04FF0060808EBC308C44407EB4C07AC
:1013E000E45BC4F30904A54203D32D1B8D6101D036
:1013F0000BE08E61066836F8235005EA090585F48E
:10140000005545EA0A0526F82350520609D40B7800
:10141000056835F8232002EA0B0242EA0E0225F89D
:1014200023202CB14A8949690068234603F04EFA0B
:101430002046BDE8F09F2DE9F05F054600680C46A8
:101440005FEA426C16468B692278B0F850C048F6C5
:101450008F774CF280094FF4004B4FF6FF7E4FF42C
:10146000806A4FF0000172D54FF0020808EBC20805
:10147000E0440AEB480C30F80C00C0F3090083424A
:1014800011D91B1AA3610FD0730407D52E6836F843
:1014900022303B4043EA090326F8223094F8242006
:1014A000012A47D052E1A161607810B1012813D020
:1014B0001AE02868B0F85030184400EB0210B0F879
:1014C0000424C2F30902A0F80424B0F8042442F46E
:1014D0000042A0F8042407E02868B0F8503018440F
:1014E00000EB0210A0F804146278286812B1012AF7
:1014F00011D018E0B0F850100844217800EB01102A
:10150000B0F80C14C1F30901A0F80C14B0F80C14D5
:1015100041F4004105E0B0F850201044227800EB7F
:101520000210A0F80C1421782846FFF7ACFE7004D6
:1015300072D40BE1626902446261E2690244E261D1
:101540002369226A9A4203D31846111A04E03EE046
:1015500084F824100AB110462162617811B1012982
:1015600029D031E02968B1F850201144227801EBEC
:101570000211B1F80424C2F30902A1F8042401F213
:1015800004413E2807D94209C30600D1521E0B88E8
:101590004BEA822207E048B14208C30700D0521C40
:1015A0000B880EEA822213430B800DE00A8842F476
:1015B00000420A8008E02968B1F8502011442278DE
:1015C00001EB0211A1F8040483B22289BAE04FF0C2
:1015D000060808EBC208E0440AEB480C30F80C009F
:1015E000C0F30900834211D31B1AA3610FD0730407
:1015F00007D42E6836F822303B4043EA090326F828
:10160000223094F82420012A51D09FE0A161607813
:1016100018B1012814D01BE03FE02868B0F8503022
:10162000184400EB0210B0F80424C2F30902A0F839
:101630000424B0F8042442F40042A0F8042407E093
:101640002868B0F85030184400EB0210A0F80414D9
:101650006278286812B1012A11D018E0B0F8501051
:101660000844217800EB0110B0F80C14C1F3090113
:10167000A0F80C14B0F80C1441F4004105E0B0F8E7
:1016800050201044227800EB0210A0F80C142178AE
:101690002846FFF7F8FD700458D42278296831F8FD
:1016A0002200384040EA090021F822004EE0626939
:1016B00002446261E2690244E2612369226A9A4259
:1016C00003D31846111A216204E00AB110462162C0
:1016D00084F824106278296812B1012A28D02FE0FA
:1016E000B1F850201144227801EB0211B1F80C241A
:1016F000C2F30902A1F80C2401F20C413E2807D9DB
:101700004209C30600D1521E0B884BEA822207E031
:1017100048B14208C30700D0521C0B880EEA82224F
:1017200013430B800CE00A8842F400420A8007E071
:10173000B1F850201144227801EB0211A1F80C04F9
:10174000628983B26169286803F0DEF8227829682B
:1017500031F8220048F6BF73184080F0300048F29C
:101760008003184321F822000020BDE8F09F01F01B
:10177000070101EB810100EBC100D0F86C0170475B
:101780002DE9F04104460F0601F0070000EB80014F
:1017900004EBC1014FF001064FF0000502D54E7475
:1017A000103103E081F8515101F5A871022B087046
:1017B0000A61CB7000D10D7194F89002012809D014
:1017C00084F89062206802F0BBFB284684F89052AF
:1017D000BDE8F0810220FBE710B501F0070404EB3F
:1017E000840100EBC101C1E959230022C1F86C2139
:1017F00081F8512181F85041006801F5A87102F08B
:10180000E1FD002010BD70B504460D4601F0070053
:101810002179884201D9012070BD29064FF00006C8
:101820004FF0010206D500EB800104EBC1014A74C0
:10183000103107E005EB850104EBC10181F851612E
:1018400001F5A8718A70087094F89002012807D0F9
:1018500084F89022206802F09CFD680702D006E020
:10186000022070BD04F52671206802F054FD84F852
:101870009062002070BD10B501F0070404EB8401F4
:1018800000EBC101C1E90923012281F834200B6377
:101890000023CB624A7401F8104F006802F092FDF9
:1018A000002010BD1FB50446006803F00BF80104CA
:1018B00003D5204601F076F91FBD41050DD52068FE
:1018C00030F8441F21F480610180204600F000F9C7
:1018D0000021204600F017F91FBD410405D52068FE
:1018E00030F8441F21F4804174E0810405D520685C
:1018F00030F8441F21F400516CE0C10414D5206875
:1019000030F8401F21F004010180206830F8401FAA
:1019100021F008010180204600F0EDF8206830F841
:10192000441F21F4805155E0010540D5D4F8002032
:101930000020694632F8203021F81030401CC0B237
:101940000828F7D332F8400F40F0010010802068DB
:1019500030F8402F22F0010202802068B0F84420C5
:101960005205FBD530F8442F22F48062028000201B
:10197000236831F8102023F82020401CC0B208282A
:10198000F6D3206830F8401F41F00801018020683C
:1019900030F8441F21F400610180206830F8401FB6
:1019A00041F004010180204600F0E0F81FBD8105F0
:1019B00009D5206830F8441F21F4007101802046C9
:1019C00000F09DF81FBDC005FCD5206830F8441F0D
:1019D00021F4807101801FBD2DE9F041040004D085
:1019E00094F89102002518B107E00120BDE8F081CC
:1019F00084F89052204600F04DF8032084F89102BC
:101A00006571206802F080FC94E80F0002F0E6FBAC
:101A1000022698BB0021206802F06EFF70BB0020F8
:101A200001270BE000EB800104EBC1014F74087447
:101A3000CD740D624D62401CC0B28D62217981422D
:101A4000F0D8002012E000BF00EB800104EBC101E0
:101A500081F8515181F8500181F85351C1F860511A
:101A6000C1F86451401CC0B2C1F86851217981426B
:101A7000EAD894E80F0002F03EFC10B184F89162BD
:101A8000B3E7657384F89172206802F032FC00209D
:101A9000ACE7000008B500680B49884212D10B483A
:101AA000C16941F40001C161C069002200F4000075
:101AB000009005211420FFF795FBBDE80840142095
:101AC000FFF782BB08BD0000005C00400010024030
:101AD00070B5044680790125022801D0FEF785FF04
:101AE0002946D4F8D40202F003F8D4F8D402BDE8B1
:101AF000704001F0BFBFD0F8D40201F0E3BFD0F8CE
:101B0000D40201F0E9BF10B5044690F89002012814
:101B10000AD0012084F890026173206802F0EEFE82
:101B2000002084F8900210BD022010BDD0F8D4220D
:101B300000F52671104601F0E7BF10B5044690F895
:101B40009002012810D0012084F89002206802F051
:101B5000AAFE01212046FFF795FB206802F0C7FB93
:101B6000002084F8900210BD022010BD10B504467C
:101B7000D0F8D40202F007F8A07A002804D0034875
:101B8000016841F00601016010BD000010ED00E0A9
:101B90002DE9F84305460078354CC00754D0E0697C
:101BA0000026C00008D4E06940F08050E061E069A0
:101BB000012600F0805000902E480168C90512D41B
:101BC0000168804641F480710160FFF7F5F807462F
:101BD00005E000BFFFF7F0F8C01B642823D8D8F851
:101BE0000000C005F6D5206A10F4407021D0A98805
:101BF00001F4407181421CD0206A1F49012220F467
:101C000040700A6000220A602062C00711D0FFF70E
:101C1000D3F8074641F2883808E000BFFFF7CCF858
:101C2000C11B414502D90320BDE8F883206A800723
:101C3000F4D5206A696820F44070084320621EB120
:101C4000E06920F08050E0612878800705D5606861
:101C5000A96820F44040084360602878C00605D594
:101C60006068E96820F48000084360600020DBE7DA
:101C70000010024000700040400442422DE9F0474D
:101C80000F46050061D0434E306800F00700B842AF
:101C900009D2306820F0070038433060306800F027
:101CA0000700B84251D128683B4C810712D5400744
:101CB00003D5606840F4E06060602878000703D5D1
:101CC000606840F4605060606068A96820F0F000CF
:101CD000084360602878C00728D06868012810D0C1
:101CE0002168022810D0890700292EDA616821F0C6
:101CF000030101436160FFF75FF8804641F28839D4
:101D00000DE021688903EFE78901EDE7FFF754F85B
:101D1000A0EB0801494502D90320BDE8F0876068BF
:101D2000696800F00C00B0EB810FEFD1306800F073
:101D30000700B8420BD9306820F007003843306004
:101D4000306800F00700B84201D00120E5E72878AC
:101D5000400705D56068E96820F4E06008436060EA
:101D60002878000706D56068296920F4605040EAA9
:101D7000C100606000F028F86168084AC1F30311EF
:101D8000515CC8400649086006480068FFF7D8F96A
:101D90000020C2E700200240001002408A5E0008D6
:101DA0008800002080000020044805490068496838
:101DB000044AC1F30221515CC840704788000020EA
:101DC000001002409A5E00080E4A51680E4801F069
:101DD0000C03042B11D0082B0FD10C48C1F3834303
:101DE000C903C05C0AD55168084AC1F34041921E3C
:101DF000515C054A5043B0FBF1F070470449484339
:101E0000704700000010024000127A007A5E00085D
:101E100000093D002DE9F84F040070D02078C04D36
:101E2000C00749D06868C0F38100012807D06868FE
:101E3000C0F38100022809D16868C00306D528686C
:101E4000800339D560680028E7D035E06068B0F5D8
:101E5000803F0BD010B1B0F5A02F11D0286820F42E
:101E600080302860286820F4802002E0286840F450
:101E700080302860606890B1FEF79EFF06460AE059
:101E8000286840F480202860F0E700BFFEF794FF48
:101E9000801B642873D828688003F7D50CE0FEF710
:101EA0008BFF064605E000BFFEF786FF801B642817
:101EB000F0D828688003F7D420789A4E80074FF036
:101EC00001094FF0000839D5686810F00C0F07D0F1
:101ED0006868C0F38100022809D16868C00306D48D
:101EE0002868800714D52069012808D110E02069EE
:101EF000B0B1C6F80090FEF75FFF074605E00AE1C3
:101F0000FEF75AFFC01B0228C4D828688007F7D5FF
:101F10002868616920F0F80040EAC10028600DE0FF
:101F2000C6F80080FEF748FF074604E0FEF744FFCE
:101F3000C01B022823D828688007F7D42078000720
:101F40002CD57948A169D9B1C0F80090FEF734FFCB
:101F5000074604E0FEF730FFC01B02280FD8686A6E
:101F60008007F7D571484FF4FA510068B0FBF1F0E3
:101F7000009000BF0098411E0091FAD20EE080E070
:101F8000C0F80080FEF718FF074604E0FEF714FFD4
:101F9000C01B022875D8686A8007F7D420784007EC
:101FA00060D5E8690027C00008D4E86940F0805097
:101FB000E861E869012700F0805000905C48016802
:101FC000C90513D40168834641F480710160FEF7AE
:101FD000F3FE824606E000BFFEF7EEFEA0EB0A002D
:101FE00064284ED8DBF80000C005F5D5E06801286C
:101FF0000AD008B1052813D0286A20F00100286211
:10200000286A20F0040002E0286A40F001002862FB
:10201000E06841F2883B98B1FEF7CEFE82460BE0C5
:10202000286A40F004002862EEE700BFFEF7C4FE15
:10203000A0EB0A0159455AD8286A8007F6D50CE06A
:10204000FEF7BAFE824605E0FEF7B6FEA0EB0A01F7
:1020500059454CD8286A8007F6D41FB1E86920F0AA
:102060008050E861E06988B36968C1F381010229A1
:1020700044D00228C6F8608004D0FEF79DFE0446D6
:1020800038E034E0FEF798FE074604E0FEF794FEE1
:10209000C01B02282BD828688001F7D4206AB0F52D
:1020A000803F05D16868A16820F40030084368606B
:1020B000D4E908010843696821F474110843686091
:1020C000C6F86090FEF778FE044606E025E000BF03
:1020D000FEF772FE001B022809D828688001F7D598
:1020E0001BE000BFFEF768FE001B022802D9032098
:1020F000BDE8F88F28688001F4D40EE00128F7D0FD
:102100006868226A00F48031914204D1616A00F467
:102110007010884201D00120EAE70020E8E70000C3
:102120000010024000004242800442428800002029
:102130000070004010B5401EB0F1807F01D3012037
:1021400010BD4FF0E02460610F21601702F028FC01
:102150000020A06107202061002010BD704770475B
:1021600070B590F83C20012A26D0012480F83C402C
:10217000022280F83D2003685A689D6822F07006AC
:102180000A6832435A600D4B02689A4208D0B2F195
:10219000804F05D00A4B9A4202D00A4B9A4204D192
:1021A000496825F080031943916080F83D40002183
:1021B00080F83C10084670BD022070BD002C014024
:1021C00000040040000800402DE9F0410D460400E5
:1021D00003D094F83D0018B108E00120BDE8F0817B
:1021E000002084F83C00204600F040F8022084F8EB
:1021F0003D002068816844F2070291438160211DFF
:10220000206800F0FDFF226890689169166A2B68CB
:10221000AF69034340F20330814341EA0721A868D4
:10222000EF6908434FF6FC418843E96840EA07201C
:10223000014328692F6A000140EA073008436968B2
:102240006D6926F0220646EA051529439360226847
:10225000906154F8460B0162012004F81F09E075F3
:102260002076E0762077A0750020B7E700B585B02E
:10227000002100910191029103910068B0F1804F1B
:102280001ED11048C16941F00101C161C16901F06D
:1022900001010491816941F004018161806969460D
:1022A00000F004000490032000900748FEF78AFC29
:1022B000002205211C20FEF795FF1C20FEF784FF5D
:1022C00005B000BD001002400008014070B590F854
:1022D0003E60044690F83F5090F8423090F843201A
:1022E000022021B104290ED0012E1BD114E0012EB1
:1022F00018D1012B16D184F83E0084F84200012247
:102300000021206820E0012D0CD1012A0AD184F897
:102310003F0084F8430014E0012D03D1012B01D1CB
:10232000012A01D0012070BD84F83E0084F83F00EE
:1023300084F8420084F8430001220021206800F064
:102340009BFF01220421206800F096FF20680168AD
:1023500041F001010160002070BD70472DE9F0419E
:1023600004460068C66805694FF00007A90713D541
:10237000B10711D5F91E016101202077206880691D
:102380008007204602D0FFF7E8FF04E000F07EF867
:10239000204600F07CF82777680716D5700714D51B
:1023A00021686FF0040008610220207720688069AE
:1023B00010F4407F204602D0FFF7CFFF04E000F08A
:1023C00065F8204600F063F82777280715D5300711
:1023D00013D521686FF00800086104202077206879
:1023E000C0698007204602D0FFF7B7FF04E000F085
:1023F0004DF8204600F04BF82777E80616D5F00692
:1024000014D521686FF0100008610820207720683B
:10241000C06910F4407F204602D0FFF79EFF04E021
:1024200000F034F8204600F032F82777E80708D0AB
:10243000F00706D021686FF001000861204600F027
:1024400027F8280608D5300606D521686FF08000E9
:1024500008612046FFF782FE680608D5700606D59B
:1024600021686FF040000861204600F027F8A806B8
:102470000AD5B00608D521686FF020000861204613
:10248000BDE8F041FFF76BBEBDE8F08170477047D3
:1024900010B50068B0F1804F0CD10068064CC00642
:1024A0004FF07E51606802D5FDF710FF01E0FDF7A7
:1024B000BBFE606010BD0000080000207047FEE712
:1024C00001684A69D24352050FD46FF480624A61B1
:1024D000002140F8301F202242738173026942F0CC
:1024E0000402026101730120704700207047000060
:1024F0002DE9F843044600680D46DDE908970168B8
:102500009846164641F4807101604B4600224FF018
:1025100001112046009700F06BF848B12068006870
:10252000C00502D54FF4007020640320BDE8F88395
:10253000216805F0FE0008613B464A4615492046E1
:1025400000F09EF888B920684169806900903A4699
:102550004946204600F0F2F848B1206C042804D126
:102560002068016841F4007101600120DEE7F5B2E6
:10257000B8F1010F09D02168300A08613A4649468E
:10258000204600F0DBF80028E7D120680561002034
:10259000CCE700000200010070B516460D46044667
:1025A0001EE02046FFF78CFF08B1012070BD681CBB
:1025B00016D0FEF701FC801BA84200D885B9206820
:1025C0004069C04340070BD5002044F8300F20215C
:1025D0006173A073216941F0200121612073E4E758
:1025E00020684069C0434007DBD4002070BD000074
:1025F0002DE9F047984617460D460446C1F30746B5
:10260000DDF820902AE000BFB8F1FF3F26D0FEF7AA
:10261000D3FBA0EB0901414502D8B8F1000F1DD151
:102620002068012E16D0806925EA00000004000C05
:1026300012D00020B84211D1002044F8300F2021E0
:102640006173A073216941F0200121612073012091
:10265000BDE8F0874069E7E70120EBE72068012E3D
:102660000AD0806925EA00000004000C06D0002092
:10267000B842C9D00020EBE74069F3E70120F7E753
:102680002DE9F047984616460D4604464FF00009DE
:102690004FF0200AC1F3074723E020684069C04398
:1026A000400515D42068016841F40071016021687B
:1026B0006FF480604861C4F8309084F83DA084F8DD
:1026C0003E90216C41F00401216484F83C9021E0AB
:1026D000701C06D0FEF770FBA0EB0800B04203D8D8
:1026E00016B1012F1FD021E02068012F15D080697D
:1026F00025EA00000004000C18D000BF44F8309F09
:1027000084F80DA084F80E90216941F02001216128
:1027100084F80C900120BDE8F087406925EA0000AC
:102720000004000CEAD12068406901E0206880695B
:1027300025EA00000004000CAFD1ECE770B51646A6
:102740000D4604461EE02046FFF7BAFE08B1012000
:1027500070BD681C16D0FEF72FFB801BA84200D866
:1027600085B920684069C04300060BD5002044F8B5
:10277000300F20216173A073216941F02001216194
:102780002073E4E720684069C0430006DBD40020E2
:1027900070BD0000F0B500230A24302537261F46FF
:1027A00011E000BFB4EB107F02D905EB107C01E013
:1027B00006EB107C01F813C001EB430C00015B1C1D
:1027C0008CF80170DBB29342ECD3F0BD094808B538
:1027D000416941F0010141614069002200F00100BE
:1027E000009005211020FEF7FDFCBDE808401020F8
:1027F000FEF7EABC0010024010B58EB01C220B4957
:102800006846FDF7EDFC0021684602F0D7FD084C54
:1028100006491C2220601C3107A8FDF7E1FC0021BD
:1028200007A802F0CBFD60600EB010BD405E00084E
:102830000000002070B586B000251D480095019568
:1028400002950395816941F020018161816901F060
:1028500020010491816941F004018161816901F0E5
:1028600004010491816941F0080181618069114E80
:1028700000F008004FF460440490002221463046E6
:10288000FEF795FA009401240320CDE90240694641
:1028900001943046FEF796F94FF44070CDE90005FB
:1028A000694602943046FEF78DF906B070BD00000F
:1028B00000100240000C01400D4810B50B490160AA
:1028C0000C49416000214FF480428160C0E903124D
:1028D00041618161C1610162FEF774FA002803D091
:1028E000BDE81040FEF781B810BD00000054004064
:1028F0005C040020A086010010B58CB0242168463D
:10290000FDF787FC0024174809944FF080410A9492
:1029100001600421C0E901144FF4C861C0E9031447
:10292000802181610320CDE900040120CDE902046A
:1029300007210491CDE90540CDE9074169460948E1
:10294000FFF742FC08B1FEF750F82020CDE909045A
:1029500009A90448FFF704FC002801D0FEF745F858
:102960000CB010BDF404002010B500220F4910482F
:1029700000F04CFF08B1FEF738F80E490C4801F0A2
:1029800028F908B1FEF731F80B49094800F066FD57
:1029900008B1FEF72AF8064801F070F9002803D0C4
:1029A000BDE81040FEF721B810BD00001C0000205B
:1029B0003C050020680100206C000020FEE7FEE7D7
:1029C00070B506465FF0000404F1B000C0B201F03B
:1029D000AFFF002001F0ACFF102001F0A9FF00259F
:1029E000304601F0B7FF6D1CEDB2802DF8D3641CAA
:1029F000E4B2082CE8D370BD10B5AE2001F098FF0A
:102A0000202001F095FF022001F092FFB02001F09C
:102A10008FFFC82001F08CFF002001F089FF1020FB
:102A200001F086FF402001F083FF812001F080FF4C
:102A3000FF2001F07DFFA12001F07AFFA62001F028
:102A400077FFA82001F074FF3F2001F071FFA42060
:102A500001F06EFFD32001F06BFF002001F068FF52
:102A6000D52001F065FFF02001F062FFD92001F0D0
:102A70005FFF222001F05CFFDA2001F059FF1220F5
:102A800001F056FFDB2001F053FF202001F050FF42
:102A90008D2001F04DFF142001F04AFFAF2001F01E
:102AA00047FF10BD10B50446B031C8B201F040FF79
:102AB000102040EA141001F03BFF04F00F00BDE8C5
:102AC000104040F0010001F033BF00002DE9F04755
:102AD000002591468A460446012B22D0DFF8BC80AF
:102AE000022B24D155E02038C7B27E2C04D90AF13C
:102AF0000100002400F0FF0A51462046FFF7D2FFF4
:102B000007EB4700002608EB4007B85D01F022FF05
:102B1000761CF6B2062EF8D3A41D6D1CE4B2EDB2FD
:102B200001E0DFF87C8019F805000028DBD1BDE862
:102B3000F0872038C7B2782C04D90AF101000024AC
:102B400000F0FF0A51462046FFF7ACFF5FF0000699
:102B500006EB071118F8010001F0FCFE761CF6B236
:102B6000082EF5D30AF10100C1B22046FFF79AFF03
:102B70005FF0000606EB071101EB0800007A01F098
:102B8000E9FE761CF6B2082EF4D308346D1CE4B2CC
:102B9000EDB219F805000028CBD1C8E7CA600008DB
:102BA000A25E00082DE9F84F044640F68F7B48F6F8
:102BB0000F794FF480684FF0000ABDE1B0F844107F
:102BC00011F00F0539D030F8256031047ED530F88A
:102BD000251001EA0B0141F0800120F8251005EBDA
:102BE000850004EBC00797F85C0107F5A87700287B
:102BF0006DD0F87802286BD03978226832F821003D
:102C000048F68F73184048F2C003184322F8210099
:102C10003978206830F82120B0F8503052047DD542
:102C2000022202EBC1015A1808EB4201415A890500
:102C3000890D009173D03A89DDE0C9062BD4018853
:102C400001EA090141F400410180206804F1100506
:102C5000B0F85030217C022202EBC1015A1808EB77
:102C60004201405AC0F30900E062616A08446062B0
:102C700000212046FEF707FB607B00289DD0A86955
:102C800000289AD1607B216840F08000A1F84C00B8
:102C900084F80DA050E1018804F5A8750A0521D536
:102CA000B0F850202B78062101EBC3010A4408EB51
:102CB0004201405A04F52671C0F30903EB61EA882A
:102CC000206801F003FE2068018802E0AEE06EE0BB
:102CD0007EE001EA0B0141F0800101802046FEF711
:102CE00025FF29E10904D5D5018801EA0B0141F04E
:102CF000800101802068B0F850202B78062101EB7C
:102D0000C3010A4408EB4201405A83059B0DEB6165
:102D100010D0696971B1EA88206801E05FE05DE088
:102D200001F0D4FDE9696869084468610021204622
:102D3000FEF7B2FA216808880205ABD4C0F301306F
:102D40000328A7D0B1F850000844B0F80C14C1F320
:102D50000901A0F80C142A6900F20C403E2A09D996
:102D60005109D20600D1491E02884FF4004343EABC
:102D7000812109E0B2B15108D20700D0491C028874
:102D80004FF6FF7303EA81210A4302802168088815
:102D90004BF68F72104080F4405048F2800210438E
:102DA0000880C9E0018841F400410180EEE7206815
:102DB000B0F850203B78062101EBC3010A4408EB30
:102DC0004201415A8905890D009118D0FA8812E014
:102DD000324639462046FEF7BBFA00900FE0062245
:102DE00002EBC1015A1808EB4201415A8905890DCD
:102DF000009104D07A897969009B01F067FDF86938
:102E000000990844F8617969009808447861B869C4
:102E100018B139690098814204D939782046FEF703
:102E20003BFA03E03946206801F0CCFA30062ED593
:102E300005EB850004EBC001206830F8252002EA8C
:102E4000090242F4004220F82520C87C10310128F4
:102E50001ED0F0056CD42068B0F850300D780222F6
:102E600002EBC5021A4408EB4202805A8A69C0F399
:102E70000900824255D9121A8A6154D04A69024423
:102E80004A61CA691044C861206801F09BFA53E0A6
:102E9000C1F818A0087B524608B3700620D54878C0
:102EA00010B1012812D03AE02068B0F85020104448
:102EB0000A7800EB0210B0F80424C2F30902A0F86B
:102EC0000424B0F8042442F4004206E02068B0F87C
:102ED000503018440B7800EB0310A0F804241EE0D7
:102EE0004B78206813B1012B11D018E0B0F85020B6
:102EF00010440A7800EB0210B0F80C24C2F3090267
:102F0000A0F80C24B0F80C2442F4004205E0B0F81C
:102F1000503018440B7800EB0310A0F80C2409780B
:102F200002E0C1F818A0E9B22046FEF7ACF903E0D0
:102F300032462046FEF77FFA2068B0F844100904B4
:102F40003FF53CAE0020BDE8F88F0000FFF70CFD18
:102F5000324C0122D1032046FDF729FFA615651545
:102F600067144FF48048012002F01CFA29462046DD
:102F7000FDF718FF28B931462046FDF713FF012859
:102F800005D031462046FDF70DFF10B107E00122C4
:102F900018E029462046FDF705FF012805D03146F7
:102FA0002046FDF7FFFE38B10BE0002239462046EF
:102FB000FDF7FDFE01220AE029462046FDF7F2FE5C
:102FC00050B1002239462046FDF7F1FE002241466D
:102FD0002046FDF7ECFEC6E7002239462046FDF705
:102FE000E6FE002241462046FDF7E1FE02F042F9EE
:102FF00002E0642002F0D6F931462046FDF7D2FE09
:103000000028F6D129462046FDF7CCFE0028F0D155
:10301000C82002F0C7F902F02DF9A4E7000C014026
:103020001FB50A2002F0BEF9FFF7E6FCFF20FFF70C
:10303000C7FC0020FFF7C4FC02F01CF9374C2068E5
:10304000426A37A1684601F097FC002102236A46D4
:103050000846FFF73BFD02F04BF9FDF792FA0246F6
:103060000B4633A1684601F087FC02236A461946E5
:103070000020FFF72BFD684602F040F902236A4664
:1030800004210020FFF722FD02F000F9FDF779FA94
:1030900002460B462AA1684601F06EFC02236A46EE
:1030A00006210020FFF712FD2068426A28A1684629
:1030B00001F062FC02236A4600214820FFF706FD6A
:1030C00002F016F9FDF75DFA02460B4621A16846AB
:1030D00001F052FC02236A4619464820FFF7F6FC2D
:1030E000684602F00BF928B102236A460421002049
:1030F000FFF7ECFC02F0CAF8FDF743FA02460B4674
:1031000016A1684601F038FC02236A4606214820D1
:10311000FFF7DCFCC82002F045F9C5E7F404002005
:10312000456E636F646572203A25356400000000C7
:10313000526F756E647320203A25352E306C660010
:1031400044697374616E63653A25372E316C66008D
:103150002535640025352E306C66000025372E316C
:103160006C66000010B5FDF7D1FF02F093FD012859
:1031700003D0BDE8104002F01FBD10BD30B593B0C4
:1031800028216846FDF745F814210AA8FDF741F803
:10319000002401200F9410941194010412948DE8DE
:1031A000130004904FF4E010CDE9081002250795B4
:1031B0006846FEF72FFE08B172B6FEE70F20CDE994
:1031C0000A054FF48060CDE90C4002210AA80E9454
:1031D000FEF754FD08B172B6FEE710200F9012946E
:1031E0000FA8FEF7D5FC002801D072B6FEE713B099
:1031F00030BD70470148FFF7B1B80000F40400206B
:10320000F0B50268194B1A4C1A4D4FF0804798429E
:1032100005D0B84203D0A04201D0A84203D122F089
:1032200070064A683243984205D0B84203D0A042A3
:1032300001D0A84203D122F44074CA6822434C69E9
:1032400022F08002224302608A68C2620A688262B7
:10325000984201D109690163012141610169C907EE
:1032600003D0016921F001010161F0BD002C014092
:10327000000400400008004010B501F01F030121C8
:10328000046A99408C430462016A9A4011430162C6
:1032900010BD2DE9F041D0F8C032D0F8B822CAB143
:1032A00001EB810500EB85040026E7693FB103EBE4
:1032B000C5031B6AB7FBF3F503FB157323B1C2F813
:1032C00014620020BDE8F08100231A46E66100F098
:1032D00063FCF6E70220F5E770B50546D0F8B84282
:1032E00000F05FFBC4F80C02D5F8B80248B1D5F87D
:1032F000BC12D4F80402CA6804F503719047002098
:1033000070BD022070BD70B504460026812100F01A
:103310009BFA002501212046E56200F095FA822102
:103320002046C4F86C5100F08FFA2564D4F8B80236
:1033300048B1D4F8BC0204F52E7440688047206878
:1033400000F0F9FD2560304670BD10B5D0E9AE4102
:1033500059B194F80002FF2807D08B6894F8012235
:1033600021469847FF2084F80002002010BD00008D
:103370000A2101800048704790000020432101800D
:1033800000487047E000002043210180004870475A
:103390009C00002043210180004870472401002048
:1033A0002DE9F04104460026007C4FF4007701250A
:1033B00090B3402302228121204600F046FB4023A7
:1033C000E56202220121204600F03FFB0823032290
:1033D00082212046C4F86C5100F037FB4FF407708F
:1033E000256400F0A9FDC4F8B802F8B10546D4F888
:1033F000BC02006880470020C5F81402C5F8180216
:10340000207CD5F8042298B140230121204600F009
:1034100028FB3046BDE8F081FFE73B4602228121D0
:10342000204600F012FB3B46E562CAE70126F0E7C2
:103430003B46EAE710B5D0F8B81269B1027C002A21
:10344000D1F8042205D04023012100F00AFB00201E
:1034500010BD4FF40073F7E7022010BD02460220B2
:10346000002902D00020C2F8BC127047D0F8B80280
:10347000C0F8041200207047D0F8B802C0F810223B
:10348000C0F80812002070472DE9FC410546D0F82D
:10349000B87200208DF80000ADF8040006460878E8
:1034A0000C4610F0600121D020293BD1E288AAB15E
:1034B0000006607807D5D5F8BC128B683946984766
:1034C000E288394626E087F80002A07987F80102F1
:1034D000E2883946284600F04FF828E0D5F8BC12BB
:1034E000607800228B682146984720E0607820B100
:1034F0000A2809D00B2815D110E095F89C02032862
:1035000010D1022201A905E095F89C02032809D1F7
:1035100001226946284600F049F808E095F89C0227
:10352000032804D02146284600F01BF80226304626
:10353000BDE8FC8110B5D0F8B42252689047002055
:1035400010BD134610B50A46002100F08AFA00208B
:1035500010BD134610B50A46002100F01DFB0020E7
:1035600010BD10B50446802100F0FBFA2046BDE8EE
:103570001040002100F0F5BA10B50323C0F85C211B
:10358000C0F89432C0F8602113460A46002100F0CA
:1035900068FA002010BD10B505210023C0F8941270
:1035A0001A46194600F05DFA002010BD10B502233E
:1035B000C261C0F89432026213460A46002100F04C
:1035C000EBFA002010BD10B504210023C0F89412BE
:1035D0001A46194600F0E0FA002010BD10B50A4660
:1035E000024903A000F0E2F8004810BD00080020E6
:1035F00043444320436F6E666967000012200880D1
:10360000004870473C00002010B50A46024903A05C
:1036100000F0CCF8004810BD0008002043444320CF
:10362000496E74657266616365000000042008805D
:10363000004870473800002010B50A46024903A030
:1036400000F0B4F8004810BD0008002053544D6944
:1036500063726F656C656374726F6E69637300008B
:1036600010B50A46024903A000F0A0F8004810BDBA
:103670000008002053544D3332205669727475612E
:103680006C20436F6D506F727400000010B51A20EB
:1036900008800A480168001D0468001D00680818B9
:1036A00009D008220649FFF775F8054904221031B0
:1036B0002046FFF76FF80248801E10BDE8F7FF1F95
:1036C00052000020F8B504460020ADF800004888FC
:1036D0000D46010A082948D2DFE801F0470409171E
:1036E00047473C45D4F8B012207C0A6819E0207C9A
:1036F00002260028D4F8B40205D0C16A684688477B
:10370000014646703EE0816AF8E7C0B206282CD236
:10371000DFE800F0030A1014181CD4F8B002426865
:1037200005E0694690471CE0D4F8B0028268E2B137
:10373000207CF6E7D4F8B002C268F8E7D4F8B0020B
:103740000269F4E7D4F8B0024269F0E7D4F8B002B5
:103750008269ECE7207C40B9D4F8B402416B68463A
:10376000884701460EE0207C20B129462046FFF71D
:10377000F8FEF8BDD4F8B402016B684688470146EC
:1037800007204870BDF8000048B1EA8852B1824273
:1037900000D90246ADF800202046FFF707FFE88871
:1037A0000028E6D12046FFF70EFFF8BD70B50023D4
:1037B00000281ED00446002502E06D1CEDB2641CFA
:1037C0002678002EF9D1022404EB450414801278E7
:1037D000CA545B1C0322CA5400245B1C06E0CA5472
:1037E0005B1CDAB28C54521CD3B2401C0278002A03
:1037F000F5D170BD01004FF0000004D0012901D0C7
:10380000022901D0022070470120704710B580B115
:10381000D0F8B43213B10023C0F8B43209B1C0F803
:10382000B012012180F89C12027000F0BFF8002055
:1038300010BD022010BD10B5D0F8C002FDF75BFD31
:10384000BDE81040FFF7D6BF10B5D0F8C002FDF7B5
:103850002DFDBDE81040FFF7CDBF2DE9F041174623
:10386000044651B1D4F8B40242691AB194F89C02EA
:10387000032851D00220BDE8F081D4F8943200250D
:1038800004F11400022B03D0042B3AD0C3B33CE064
:10389000D0E903639E4207D9F11AC1608AB2394662
:1038A0002046FFF756FE12E08068B0FBF3F103FB01
:1038B000110199B9984211D3D4F8981288420DD2C7
:1038C000002211462046FFF744FEC4F89852002318
:1038D0001A461946204600F0C4F816E0D4F8B4029F
:1038E000C16829B194F89C02032801D12046884779
:1038F0008021204600F035F92046FFF74CFE04E019
:10390000FFE78021204600F02CF994F8A00201285E
:1039100004D184F8A05201E0204690470020AAE795
:1039200070B51546044649B1D4F8B40282691AB19B
:1039300094F89C02032830D0022070BDD4F8941271
:1039400004F5AA70032902D005291ED027E0D0E98A
:1039500003218A420BD9531AC3600846834200D31D
:1039600003469AB229462046FFF7EBFD17E0D4F84C
:10397000B402016929B194F89C02032801D12046C0
:1039800088472046FFF71FFE09E000200146C4F8E3
:103990009402204600F0E5F801E020469047002020
:1039A00070BDD0F8C002FDF7E2BE000010B50446BD
:1039B0001C481D49C0F8D442C4F8C0020160082167
:1039C00001710221817100218172C1720173FEF7C0
:1039D00003F808B1FDF709F80022D4F8C002182353
:1039E000114604F53074FDF72FFC58230022802186
:1039F0002068FDF729FCC023002281212068FDF703
:103A000023FC4FF48873002201212068FDF71CFC81
:103A10004FF48073002282212068FDF715FC0020FE
:103A200010BD000020140020005C00400A0601F0D8
:103A30007F01D0F8C00201EB810100EBC10001D58C
:103A4000807C704790F85201704710B51C461346B1
:103A5000D0F8C0022246FDF793FEBDE81040FFF704
:103A6000C9BE10B5D0F8C002FDF7B6FEBDE81040E3
:103A7000FFF7C0BE70B50022044640231146FFF791
:103A8000E4FF40260125C4F864613346002280210A
:103A90002046C4F85851FFF7D8FF6662A56184F844
:103AA0009C520020C4F894026060C4F8A402D4F8C8
:103AB000B80228B1D4F8B4020021426820469047E9
:103AC000002070BD90F89C12042903D190F89D123B
:103AD00080F89C120020704710B590F89C120329C2
:103AE00004D1D0F8B412C96901B18847002010BDD3
:103AF00001740020704710B5D0F8C002FEF703F83B
:103B0000BDE81040FFF776BE70B5044600F52A7098
:103B1000054600F04AF80120C4F89402B4F8AE0259
:103B2000C4F8980294F8A80210F01F010AD00129E5
:103B30000DD0022910D000F08001204600F011F8CD
:103B4000002070BD2946204600F09DF8F8E7294680
:103B5000204600F0C9F9F3E72946204600F01CF999
:103B6000EEE710B5D0F8C002FDF74DFEBDE81040FD
:103B7000FFF740BE10B5D0F8C002FDF7DEFFBDE88C
:103B80001040FFF737BE90F89C1280F89D12042178
:103B900080F89C120020704710B5D0F8C002FDF7E5
:103BA0006AFEBDE81040FFF725BE0A7802704A7829
:103BB00042708A78CB7802EB032242800A794B79F3
:103BC00002EB032282808A79C97902EB0121C1804C
:103BD00070470246002011B1C2F8B41270470220AB
:103BE000704710B5D0F8B42202241AB11268904779
:103BF00000B90024204610BD70B50E461E4D8978D0
:103C000004462970012931D894F89C0202280BD06F
:103C100003280FD031462046FFF7A3FC2978204621
:103C2000BDE87040FFF786BCD9B10320616084F81D
:103C30009C0209E071B16068884212D0C1B220468E
:103C4000FFF778FC297861602046FFF7CAFF022859
:103C50000CD006E0022084F89C0220466160FFF749
:103C600069FC2046BDE87040FFF7ADBC31462046F8
:103C7000BDE87040FFF775BC8C00002010B5FFF761
:103C800079FF002010BD2DE9F0410A78002612F0DE
:103C9000600208D0202A01D0402A70D1D0F8B42286
:103CA000926890476DE04B78002201250A2B66D27E
:103CB000DFE803F0405D6557650805652C29FFF7CF
:103CC00001FD5EE004468888D8B9C888C8B948882C
:103CD000802816D200F07F0794F89C02032810D0A9
:103CE00084F89E7239462046FFF705FF2046FFF70D
:103CF0006AFC1FB1022084F89C0242E084F89C52C6
:103D00003FE020463BE0FFF777FF3AE0CB88012B0E
:103D100035D190F89C32012B04D0022B02D0032B1A
:103D20002DD104E08260012200F1080116E0012299
:103D3000011D13E090F89C22012A03D0022A01D031
:103D4000032A1CD1CA88022A19D1C560D0F8A4124E
:103D500009B10321C160022200F10C01FFF726FC2A
:103D60000FE0498801290CD1C0F8A45211E090F865
:103D70009C32012B08D0022B06D0032B04D0FFF776
:103D8000F0FB3046BDE8F08149880129F9D1C0F83F
:103D9000A422FFF718FCF4E72DE9F0410A46044697
:103DA00010780027097910F060030AD0202B01D089
:103DB000402B50D1D4F8B40211468368204698476E
:103DC0008FE0C0F34110012806D05078D0B301280D
:103DD0002AD003283FD107E0D4F8B4021146836803
:103DE0002046BDE8F041184794F89C02022802D012
:103DF000032872D10AE071B380296ED02046FFF704
:103E0000B0FE80212046FFF7ACFE6AE0508838B94A
:103E100031B1802904D0D08810B92046FFF7A1FE27
:103E20002046FFF7D0FB5CE094F89C020228E2D029
:103E3000032852D1508898BB4806F1D02046FFF79E
:103E4000FAFCEDE7FFE794F89C020026022803D075
:103E5000032842D112E040E009B180293DD1080693
:103E600001F07F0000EB800004EB800101D51431EC
:103E700001E001F5AA7102220E602AE0080601F0B5
:103E80000F0000EB800004EB80000AD5806920B3AE
:103E900001F07F0000EB800004EB800514350BE09F
:103EA0001FE0D0F85801C0B101F07F0000EB8000A6
:103EB00004EB800505F5AA7541B1802906D020469E
:103EC000FFF7B4FD10B10120286000E02E6002224F
:103ED00029462046FFF76AFB03E011462046FFF71C
:103EE00040FB3846BDE8F08170B5054608780C46C1
:103EF00010F0600003D0202801D0402816D195F89A
:103F00009C02012803D0022801D003280ED1207979
:103F100001280BD8D5F8B402826828469047E1887A
:103F2000014306D12846FFF74EFB02E02846FFF783
:103F300018FB002070BD7047004870470012002039
:103F40002DE9F0470C78002630F8243048F68F121F
:103F50001340CA78002A78D0012A7CD0022A02D0E5
:103F6000032A75D0012648F28002134320F824303A
:103F70000D7830F8253048F68F7423402B431343D7
:103F800020F825300D7B48F2C00948F6BF734CF28B
:103F9000800A4BF68F77EDB3CD7891F800C0022DF3
:103FA00030F82C507DD048F68F6805EA0805154397
:103FB00020F82C50B0F8505091F800C0054405EBA3
:103FC0000C15B1F808C02CF0010CA5F800C4B0F82D
:103FD000505091F800C0054405EB0C15B1F80AC02B
:103FE0002CF0010CA5F808C44D78002D7ED00D787A
:103FF00030F825C05FEA4C4C07D530F825C00CEAF4
:10400000040C4CEA0A0C20F825C091F800C030F8E6
:104010002C5000E022E06D0606D530F82C502540EB
:1040200045EA090520F82C50CC780D78012C30F8A1
:10403000254004EA03047CD084F02003134320F8D5
:104040002530C1E001E006E002E043F400738AE7B6
:1040500043F4C06387E743F4806384E74D784DB34E
:10406000B0F850500F78054405EB0715CF8827F0BE
:104070000107A5F800740F7830F827506D0606D5B3
:1040800030F82750254045EA090520F82750CC781C
:10409000012C07D00C7830F82410194081F0200151
:1040A00004E064E00C7830F824101940114320F843
:1040B000241090E0B0F850300D78034403EB051362
:1040C000CD8825F00105A3F80854B0F850300D78DC
:1040D000034403EB0513B3F80C54C5F30905A3F827
:1040E0000C540D6903F20C433E2D00E045E00BD962
:1040F0004FEA551CED0601D1ACF1010C1D884FF4BF
:10410000004848EA8C2C0BE035B34FEA550CED071C
:1041100001D00CF1010C1D884FF6FF7808EA8C2CB9
:1041200045EA0C051D800D7830F825305B0408D574
:1041300000E046E030F82530234043EA0A0320F847
:104140002530097861B130F821303B4083F40053C9
:10415000134320F821303EE01D8845F40045E1E797
:104160000188394081F440511143018033E02540FA
:1041700048F2801845EA08051AE791F800C030F8BF
:104180002C506D0406D530F82C50254045EA0A0520
:1041900020F82C5091F800C030F82C506D0606D550
:1041A00030F82C50254045EA090520F82C500D78B0
:1041B00030F825403C4084F44054144320F8254016
:1041C00070E7144320F825400B7830F8231039406D
:1041D000114320F823103046BDE8F08700207047D7
:1041E0002DE9F04391F80C804F780A7848F6BF7CAF
:1041F0004BF68F7948F2800348F2C0054CF28006F6
:1042000048F68F74B8F1000F28D0002F30F82270D4
:104210004FEA474748D0002F05DA30F82270274090
:10422000374320F822700A7830F822707F0605D5CF
:1042300030F8227027402F4320F822700D7830F894
:1042400025202240324320F825200C7830F8242005
:1042500002EA0C021A4320F824201AE07FB130F859
:104260002260760605D530F8226026402E4320F8DD
:1042700022600A7830F8221001EA0C010EE030F8D2
:1042800022506D0405D530F822502540354320F8E2
:1042900022500A7830F8221001EA0901194320F867
:1042A00022100020BDE8F083002F05DA30F82270DC
:1042B0002740374320F822700A7830F822607606CB
:1042C00005D530F8226026402E4320F822600E7873
:1042D00030F8262022402A4320F826200C7830F897
:1042E000242002EA09021A4320F82420C1E7002012
:1042F000704700207047012120F8401F00210180F5
:10430000818001820846704730F8401F21F43F4108
:104310000180002070470020704730B50A7BB2BB97
:104320004A7848F68F7548F28004C2B10B7830F8AD
:104330002320520607D530F823202A4048F2C00532
:104340002A4320F82320CA78012A20D00A7830F89E
:10435000221048F6BF73194081F0200114E00A785A
:1043600030F822305B0407D530F822302B404CF275
:1043700080052B4320F822300A7830F822104BF6C3
:104380008F73194081F44051214320F822100020FE
:1043900030BD10B54A780978002A48F2800330F819
:1043A000212005D048F6BF74224082F0100204E0BC
:1043B0004BF68F74224082F480521A4320F8212059
:1043C000002010BD2DE9F0470D464B78097B0446CF
:1043D0004FF0000948F68F7248F2800A4FF4004708
:1043E0004FF6FF78012B09D000296FD0E87802281A
:1043F0006DD001286CD00120BDE8F087AE69286936
:10440000864200D9064691B1E97802291ED0286A71
:10441000801B2862287834F820104906B4F8501020
:10442000214401EB001073D5A0F80C6416E1B3B27F
:10443000EA882046696900F067FAB4F850002978E4
:10444000204400EB0110A0F804640DE1296A8142C8
:1044500077D9297834F82100104048F280121043AF
:1044600024F82100286A801B2862287834F820105C
:104470004906697871D511B101292AD030E0B4F824
:104480005010214401EB0010B0F80C14C1F30901E5
:10449000A0F80C1400F20C403E2E07D97109F20668
:1044A00000D1491E028847EA812107E04EB1710818
:1044B000F20700D0491C028808EA81210A430280E1
:1044C0000EE0018841F40041018009E0F1E020E1C3
:1044D00095E1B4F85020111901EB0010A0F80C641C
:1044E0006A89B3B22046696900F00EFA68693044FF
:1044F00068612969286A884202D9801B286202E023
:104500000646C5F82090687818B101282BD032E013
:104510002FE0B4F850002978204400EB0110B0F8E7
:104520000414C1F30901A0F8041400F204403E2E63
:1045300008D97109F20600D1491E028847EA812193
:1045400008E0A1E056B17108F20700D0491C0288CA
:1045500008EA81210A4302800DE00EE0018841F45F
:104560000041018007E0B4F850002978204400EBB6
:104570000110A0F804642A8971E011B1012927D043
:104580002DE0B4F85010214401EB0010B0F80414F1
:10459000C1F30901A0F8041400F204403E2E07D92B
:1045A0007109F20600D1491E028847EA812107E01D
:1045B0004EB17108F20700D0491C028808EA812137
:1045C0000A4302800BE0018841F40041018006E0CB
:1045D000B4F85010214401EB0010A0F804642A89BB
:1045E000B3B22046696900F08FF9686930446861A8
:1045F0002969286A884202D9801B286202E006469F
:10460000C5F82090687810B1012836D026E0B4F8BB
:1046100050002978204400EB0110B0F80C14C1F3CD
:104620000901A0F80C1400F20C403E2E07D97109C4
:10463000F20600D1491E028847EA812107E04EB107
:104640007108F20700D0491C028808EA81210A4358
:10465000028003E0018841F4004101806A89B3B21D
:104660002046696900F050F9297834F8210048F6AD
:10467000BF72104080F030000FE1B4F850100819FC
:10468000297800EB0110CFE62A7834F8220048F6AA
:104690008F63184040EA0A0024F82200B4F8500062
:1046A0002A78204400EB02108BB2A0F804342A8947
:1046B000D6E7A9692869814202D9091AA96102E0ED
:1046C0000846C5F81890B4F850102A78214401EB38
:1046D0000211B1F80C24C2F30902A1F80C2401F272
:1046E0000C413E287DD94209C00600D1521E0888DF
:1046F00047EA82220AE0088840F4004007E04208C6
:10470000C00700D0521C088808EA822210430880A3
:10471000BBE033BBB4F850002978204400EB011013
:10472000B0F80414C1F30901A0F80414296900F2D7
:1047300004403E2907D94B09C90600D15B1E0188F8
:1047400047EA832307E041B14B08C90700D05B1C4F
:10475000018808EA8323194302E0018841F40041FB
:104760000180687810B1012828D030E0B4F85000FA
:104770002978204400EB0110B0F80C14C1F30901B2
:10478000A0F80C14296900F20C403E2907D94B0906
:10479000C90600D15B1E018847EA832307E041B1C7
:1047A0004B08C90700D05B1C018808EA8323194322
:1047B00002E0018841F40041018008E0B4F85010A3
:1047C0000819297800EB0110298AA0F80C14E8696F
:1047D000C0B3297834F82100430401D5430605D439
:1047E00000E046E044F2400318424ED134F8210084
:1047F000104048F2C002104324F8210045E0A969A6
:104800002869814202D9091AA96102E00846C5F85F
:10481000189013BBB4F850102A78214401EB021110
:10482000B1F80424C2F30902A1F8042401F20441FE
:104830003E2808D94209C30600D1521E0B8847EA18
:10484000822208E021E078B14208C30700D0521C60
:104850000B8808EA822213430B80697800293FF411
:104860002EAF012909D010E00A8842F400420A80E4
:10487000F3E700287FF443AF3DE7B4F85020111967
:104880002A7801EB0211A1F80C04297834F82100F0
:104890004BF68F72104080F4405040EA0A0024F832
:1048A00021000020A8E50021A0F844104FF43F416A
:1048B000A0F84010002070470148FCF7F3BF00004B
:1048C00020140020B0F844007047000010B500EB41
:1048D00042005C0800F5806009D000BF30F8042B6E
:1048E00001F8012B120A01F8012B641EF6D1DA0738
:1048F00001D00088087010BD0020704711B98021D8
:10490000A0F84C100020704710B55B1C00EB420073
:104910005B0800F5806009D011F8012B11F8014BFC
:1049200042EA042220F8042B5B1EF5D110BDFEE7FD
:1049300001B584B001214FF4807204A88DE807000E
:104940000B46002278210248FCF700FB05B000BDB1
:104950005C04002001B584B001214FF4807204A8EA
:104960008DE807000B46402278210248FCF7EEFA5A
:1049700005B000BD5C0400200FB4084B10B504A9BD
:1049800002AA039800F0EEF8044602A9002000F005
:104990006CFC204610BC5DF814FB00006B52000854
:1049A0000907090E002804DB00F1E02080F800145C
:1049B000704700F00F0000F1E02080F8141D7047F0
:1049C00002E008C8121F08C1002AFAD170477047D8
:1049D000002001E001C1121F002AFBD17047000036
:1049E0002DE9FF5F82B00021DDE90430020DDDF822
:1049F00040B0034318D044F61050A2F2FF324243B5
:104A00001514119801281FD0A5EB0B00401C5FEA7C
:104A1000000A4FF000064E4FDFF83891B04650467E
:104A200015D5CAF1000413E0119801244AA3012806
:104A300001D16FEA0B010298119AC0E90031C0E977
:104A4000024206B0BDE8F09FCBF10000DFE704466C
:104A50000021404A491842EB0450CDE9001012E011
:104A6000E00707D032463B4640464946FBF7B4FED6
:104A70008046894632463B4610461946FBF7ACFE57
:104A800006460F466410002CEAD1DDE90401DDE999
:104A90000023BAF1000F06DAFBF79EFE42464B46B2
:104AA000FBF79AFE05E0FBF7F0FC42464B46FBF7AE
:104AB000ECFC04460E460022284BFBF717FF03D8F8
:104AC0004FF0FF30014607E00022254B20463146DB
:104AD000FBF734FCFBF7F2FE102409E0002C0ADBA4
:104AE0000A220023FBF792FD039B30321A55641E05
:104AF00050EA0102F2D1641C039AC4F11103144478
:104B0000119A012A03D0012208430DD10AE008437B
:104B100004D000204FF0110B119072E7A3EB0B05AE
:104B20006D1E0DE05B4504DD4FF0000205F101054F
:104B300004E003DA4FF00002A5F10105002AECD0F1
:104B400002981199C0E90231C0E9004579E70000F7
:104B5000000014400000F03F300000000000F0436F
:104B60000000E03F2DE9FF4F95B09A468846064683
:104B70000025EEE1252877D100242746F94A0121B6
:104B8000039400E0044316F8013F203B01FA03F0D0
:104B90001042F7D130782A2811D06FF02F033078E7
:104BA000A0F13002092A16D8039A44F0020402EB5D
:104BB000820203EB42021044761C0390EFE758F8A0
:104BC000042B0392002A03DA504244F40054039069
:104BD00044F00204761C30782E2816D116F8010F06
:104BE00044F004042A280DD06FF02F023078A0F191
:104BF0003003092B09D807EB870302EB4303C718DF
:104C0000761CF3E758F8047B761C30786C280FD0BC
:104C100006DC4C2817D068280DD06A2814D104E08F
:104C2000742810D07A280FD10DE044F400140AE063
:104C300044F4801401E044F440147278824202D1BA
:104C400004F58014761C761C307866280BD013DCB3
:104C5000582877D009DC002875D04528F6D046289A
:104C6000F4D047281AD193E118E0632835D064289E
:104C700079D0652812D18BE1702873D008DC6728C1
:104C8000F1D069286FD06E280DD06F2806D1ACE026
:104C900073282CD0752874D0782853D05246179991
:104CA00090476D1C54E1C4F30250022809D0032838
:104CB0000DD0D8F8001004280DD00D6008F10408BC
:104CC00046E1D8F80010EA17C1E90052F6E7D8F833
:104CD00000100D80F2E70D70F0E718F8041B8DF856
:104CE000001000208DF80100EB46012003E058F889
:104CF00004BB4FF0FF3061074FF0000102D40DE01C
:104D000009F101018946B9420FDA8145F8DB1BF848
:104D100009100029F4D108E009F101018946814216
:104D2000FADB1BF809100029F6D103985346A0EBD3
:104D3000090721463846179A00F080FA284400EB0C
:104D4000090507E044E008E10DE01BF8010B5246BD
:104D500017999047B9F10109F7D2534621463846D1
:104D6000179AF2E039E00A21C4F302524FF0000B27
:104D70000091022A06D058F8040BC117032A09D063
:104D80000AE023E008F1070020F00702F2E8020140
:104D9000904605E000B2C117042A01D140B2C11704
:104DA000002906DA0A460021404261EB02012D2269
:104DB00002E0220504D52B228DF80420012203E015
:104DC000E20701D02022F7E7914657E00A2100E0F0
:104DD00010214FF0000B00910BE010214FF0000B61
:104DE00044F004040827009103E008204FF0000B72
:104DF0000090C4F30252022A05D058F8040B002197
:104E0000032A08D008E008F1070020F00702F2E8C2
:104E10000201904603E080B2042A00D1C0B24FF0F4
:104E2000000922072AD53278702A07D0DDF800C0A1
:104E30008CF0100C5CEA0B0C05D00EE040228DF8D3
:104E40000420012208E050EA010306D030238DF847
:104E500004308DF8052002229146009B83F0080360
:104E600053EA0B030AD150EA010201D1620705D5CA
:104E700030228DF804204FF001097F1E3278582A25
:104E800004D039A20C920CAA02920BE03BA2F9E7E3
:104E90005B46009AFBF7BAFB0C9B9B5C029A521E86
:104EA0000292137050EA0102F2D1029804A9081A82
:104EB00000F1200B600702D524F4803400E00127C4
:104EC0005F4502DDA7EB0B0000E0002000EB0B01CB
:104ED000009003984944401A0390E00306D45346D7
:104EE0002146179A039800F0A9F90544002706E027
:104EF00001A85246C05D179990476D1C7F1C4F4515
:104F0000F6DBE0030CD553462146179A039800F0D0
:104F100095F9054404E030205246179990476D1CDE
:104F20000099481E00900029F5DC08E002980299DB
:104F300052460078491C0291179990476D1CBBF1AD
:104F40000001ABF1010BF1DC5BE100F065F9054418
:104F5000761C307800287FF40DAE19B02846BDE8E5
:104F6000F08F0000092801003031323334353637F4
:104F700038396162636465660000000030313233A5
:104F80003435363738394142434445460000000045
:104F9000600700D4062708F1070020F00700F0E8BA
:104FA0000223804603F0004C5FEA0C0001D097A07A
:104FB00009E0200501D596A005E0E00701D095A005
:104FC00001E0AFF24C001390307823F000436528E5
:104FD0000CD006DC452809D046281DD047287FD1B3
:104FE0003BE0662818D067287AD136E00021112FDF
:104FF00001DB112000E0781CCDE9000104A90CA818
:10500000FFF7EEFCDDE90D010C9A4FF0000B07F104
:105010000109109200914EE04FF000400097CDE959
:10502000011004A90CA8FFF7DBFCDDE90D020C9BC5
:105030000F994FF0000B91461093009211B9791C13
:1050400000EB0109B7EB090003D4C0F1FF3B07F106
:105050000109A9EB0700019042E0012F00DA0127C6
:105060000021112F01DD112000E03846CDE90001BB
:1050700004A90CA8FFF7B4FCDDE90D010C9A00911E
:105080004FF0000BB946109221070FD4009A4A4501
:1050900003DA914601E0A9F10109B9F1010F05DD3B
:1050A000109AA9F10101515C3029F4D0B84202DA1A
:1050B00010F1040F03DA0121CDE9011010E00028FE
:1050C00003DC8344A9EB000102E0411C494500DDFB
:1050D0008946A0EB0B00401C01904FF0004002906D
:1050E000200705D40198484502DB4FF0FF300190BE
:1050F00000208DF84B0002980DF14B07B0F1004FE6
:1051000025D002200C902B200D90029800280CDA5C
:10511000404202902D200D9007E00A210298FBF7F3
:105120005FFA3031029007F8011D0C99481E0C906F
:105130000029F2DC02980028EFD1791E0D98087042
:10514000307800F0200040F0450007F8020D11A86B
:10515000C01BC01D02901398007800B1012000EB25
:105160000901019801EBE071029801440398401A8B
:10517000401E0390E00306D453462146179A039835
:1051800000F05CF805441398007818B1524617995E
:1051900090476D1CE00323D553462146179A039888
:1051A00000F04CF805441BE0BBF1000F07DB009852
:1051B000584504DD1098179910F80B0001E0179975
:1051C00030205246904701980BF1010B401E05F12B
:1051D0000105019004D12E205246179990476D1C6D
:1051E000B9F10001A9F10109DEDC05E017F8010BB6
:1051F0005246179990476D1C0299481E029000294B
:10520000F4DC53462146179A03989EE62D000000D1
:105210002B000000200000002DE9F041044600258D
:105220001E461746880404D405E039462020B047BE
:105230006D1C641EF9D52846BDE8F0812DE9F041CA
:10524000044600251E469046C80301D5302700E0DD
:105250002027880404D505E041463846B0476D1C38
:10526000641EF9D52846BDE8F0810A68531C0B601E
:10527000107070470349002048600349096848627C
:105280007047000008000020F404002070B5154CA1
:105290006068FBF776F9064613480D460068406AD9
:1052A000FBF762F90022114BFBF7EFF832462B4671
:1052B000FBF744F8FBF778F905460146E068FBF791
:1052C0000BF806462946A068FBF706F82946FBF7C7
:1052D00003F83146FAF7A8FF2169BDE87040FAF7F4
:1052E000A3BF000008000020F40400200000994043
:1052F0000148406870470000080000202DE9FF4782
:105300000E4C81462069FBF73CF907468846E06869
:10531000FBF737F905460E46A068FBF732F98DE832
:10532000E00102460B4606A14846FFF725FB207820
:105330000021217004B0BDE8F087000008000020C3
:10534000593D252E316C66582B252E316C66782BF5
:10535000252E316C66000000FBF7E0FEFDF70EFF26
:10536000FDF768FAFDF732FAFDF7C6FAFDF7A4FA81
:105370003C210848FCF7AAFF06480068C16841F0D4
:105380000101C160FDF738FA00F013F83220FBF795
:1053900007FCFBE7F404002001460020842900D02C
:1053A000C81C704710B500B9012000F01FFB002099
:1053B00010BD10B500F040FB002010BD7FB50D46BC
:1053C00004464169B0F9080081B1A16971B1FFF7E4
:1053D000E3FFD4E905128DE80700D4E900102B465D
:1053E000226900F02CFC039004B070BDFFF7D4FFDD
:1053F00003A9CDE90001208A2B4682B2D4E900102E
:1054000000F0F0FB012801D00020EDE70398EBE766
:105410002DE9F041184C0F460546E6682068001D4E
:1054200000F01CFA38B9206890F82C100120884050
:10543000216981432161681C07D137B12168BDE82A
:10544000F0410E48091D00F04DBA20683544B542C0
:105450004560216805D2A06BBDE8F041091D00F050
:1054600029BA606B091D00F025FAA06A854200D2B6
:10547000A562BDE8F0810000A0010020D417002043
:105480002DE9F041054600F039FA2E4CA068401C89
:10549000A06020682C4F10B1606940B32DE02560FA
:1054A000A068012829D1002606EB860007EB8000C2
:1054B00000F0F2F9761C072EF6D323488C3000F06A
:1054C000EBF92148A03000F0E7F91F48B43000F0B4
:1054D000E3F91D48C83000F0DFF91B48DC3000F06C
:1054E000DBF919488C3060631430A06305E0206854
:1054F000E96AC06A884200D82560606A401C606220
:10550000E96A0120226988401043206101EB810093
:1055100007EB8000291D00F0E5F900F00FFA606943
:1055200000280CD02068E96AC06A884207D207497F
:105530004FF080500860BFF34F8FBFF36F8FBDE80F
:10554000F0810000A0010020F816002004ED00E02A
:1055500010B5044690F8510058B101280CD002282B
:105560000FD0502080F31188BFF34F8FBFF36F8FA0
:10557000FEE7206B00F0F6F92046BDE8104000F091
:10558000F1B910BD10484FF44061420706D0C01D6C
:105590000D4920F00700411AC1F540610B4A002374
:1055A0000144C2E900030839183A21F007011160EB
:1055B0004B600B600B1AC0E9001393604FF0004082
:1055C0005360506170470000E8170020F40100208C
:1055D000144E154CA6F1C8074FF08058DFF84C90D8
:1055E00012E000BF00F08AF9F068C568281D00F0DD
:1055F00035F9A068401EA0606068401E606000F041
:105600009DF92846FFF7A4FF60680028EAD13868B2
:105610000128F9D9C9F80080BFF34F8FBFF36F8F0E
:10562000F2E70000C0170020A001002004ED00E018
:105630002DE9F0479A46DDE9098481466FF00303BE
:10564000206B03EB82021044089E20F007077807C6
:1056500007D0502080F31188BFF34F8FBFF36F8FB7
:10566000FEE7002561B1002023180A5C83F834208E
:105670000A5C12B1401C1028F6D384F8435001E0B4
:1056800084F83450072E00D30626E662C4E911657B
:10569000201D00F00CF904F1180000F008F9246155
:1056A000C6F107006462A061E56484F85050524678
:1056B0004946384600F0C0F82060B8F1000F01D02C
:1056C000C8F80040BDE8F08730B5114900E0114648
:1056D0000A688242FBD34B685C18844203D140685D
:1056E00018444860084643681C18944209D1084C85
:1056F000183C2468A24209D052681A4442600A68E1
:1057000012680260814200D0086030BD0460F9E791
:10571000F40100200648416B096829B1416BC96852
:10572000C9684968816270474FF0FF31FAE70000AD
:10573000A001002008484068401C4FF0500080F352
:10574000118804D0BFF34F8FBFF36F8FFEE7BFF315
:105750004F8FBFF36F8FFEE7FC0100202DE9F04172
:105760000546002700F09EF9324E306808B9FFF771
:1057700009FF706905424ED1C5B3083568070ED0E0
:1057800005F00700C0F108000544680707D0502065
:1057900080F31188BFF34F8FBFF36F8FFEE72DB3F8
:1057A0007068854237D82348183001460C6801E0FC
:1057B00020460C466168A94202D221680029F7D12F
:1057C00031688C4227D0076821680160606808371B
:1057D000411B10290FD96019420708D0502080F3CF
:1057E0001188BFF34F8FBFF36F8FFEE713E0416067
:1057F0006560FFF769FF61687068401A7060B268A1
:10580000904200D2B060706901430020C4E90001F9
:10581000F068401CF06000F0B1FA780707D0502023
:1058200080F31188BFF34F8FBFF36F8FFEE73846C9
:10583000BDE8F081DC01002010B5031F4FF080743B
:105840001C601B1F21F001011960191F024B0B6026
:10585000143940380A6010BD35570008D0E90132CC
:1058600001699A60D0E901235A604A68824201D1F5
:1058700082684A60002202610868401E0860086869
:1058800070470000034B036003F154000860802060
:10589000106070470802002000F108014FF0FF324D
:1058A000C0E90112C160016100210160704700215F
:1058B0000161704730B50B685A1C02D000F1080234
:1058C00002E0026904E02246546825689D42FAD944
:1058D00053684B6099608A60516008610168491C97
:1058E000016030BD42684A6093688B60936859607C
:1058F000916008610168491C01607047502080F385
:105900001188BFF34F8FBFF36F8F0A494868401C5F
:10591000486001280CD10848006810F0FF0F07D03C
:10592000502080F31188BFF34F8FBFF36F8FFEE7D6
:1059300070470000FC01002004ED00E008494868C1
:1059400028B1401E486001D180F311887047502073
:1059500080F31188BFF34F8FBFF36F8FFEE7000016
:10596000FC01002070B500282AD0164DA0F10804D3
:1059700060686969084207D1502080F31188BFF33D
:105980004F8FBFF36F8FFEE722683AB1502080F34C
:105990001188BFF34F8FBFF36F8FFEE788436060BE
:1059A00000F080F860686968084468602046FFF786
:1059B0008BFE2869401C2861BDE8704000F0DEB90C
:1059C00070BD0000DC0100204FF0E02000210161EB
:1059D000816105494FF47A720968B1FBF2F1491E01
:1059E00041610721016170478800002010B5020065
:1059F00014D00F48006B38B1502080F31188BFF3EA
:105A00004F8FBFF36F8FFEE700F04CF80021104678
:105A1000FFF7FEFC00F0B2F9002807D105494FF06E
:105A200080500860BFF34F8FBFF36F8F10BD000031
:105A3000A001002004ED00E010B586B0002403941E
:105A400005AA04A903A80494FFF71CFFDDE90301DC
:105A50000094CDE9011000230EA11048059A00F032
:105A6000EEF80F490028C86211D0502080F3118849
:105A7000BFF34F8FBFF36F8F4FF0FF30886201206D
:105A80004861CC6006B0BDE8104000F041B806B0F7
:105A900010BD000049444C4500000000D1550008ED
:105AA000A00100200248016B491C016370470000FF
:105AB000A00100201448016B11B10121C1617047A0
:105AC0000021C1610169B1FA81F1C1F11F0101EB4E
:105AD00081020E4951F822306BB101EB820101F1D4
