:020000040800F2
:10000000D82700209D0100081B2200081F1D0008A2
:1000100019220008AF020008274000080000000075
:1000200000000000000000000000000005010008C2
:1000300001030008000000004901000879280008B9
:10004000B7010008B7010008B7010008B7010008B0
:10005000B7010008B7010008B7010008B7010008A0
:10006000B7010008B7010008B7010008B701000890
:10007000B7010008B7010008B7010008B701000880
:10008000F5020008B7010008B7010008B701000831
:10009000B13F0008B7010008B7010008B701000828
:1000A000B7010008B7010008B7010008B701000850
:1000B00009290008B7010008B7010008B7010008C6
:1000C000B7010008B7010008B7010008B701000830
:1000D000B7010008B7010008B7010008B701000820
:1000E000B7010008B7010008B7010008DFF810D019
:1000F00000F0A0F80048004737420008AFF3008046
:10010000D8270020224B19680868B0E8F00F80F368
:100110000988BFF36F8F4FF0000080F311884EF015
:100120000D0E70470000000006480068006880F36C
:10013000088862B661B6BFF34F8FBFF36F8F00DFE1
:1001400000BF00BF08ED00E0EFF30980BFF36F8F41
:100150000F4B1A6820E9F00F106008B54FF05000FF
:1001600080F31188BFF34F8FBFF36F8F04F006FC4D
:100170004FF0000080F31188BDE808401968086856
:10018000B0E8F00F80F30988BFF36F8F704700BFAE
:100190008C010020EFF3058070470000064880477F
:1001A00006480047FEE7FEE7FEE7FEE7FEE7FEE75C
:1001B000FEE7FEE7FEE7FEE707290008ED0000087E
:1001C00040EA01039B0703D009E008C9121F08C0D9
:1001D000042AFAD203E011F8013B00F8013B521E59
:1001E000F9D27047D2B201E000F8012B491EFBD2D0
:1001F00070470022F6E710B513460A460446194632
:10020000FFF7F0FF204610BD30B50B460146002039
:100210002022012409E021FA02F59D4205D303FAC8
:1002200002F5491B04FA02F52844151EA2F1010249
:10023000F1DC30BD064C074D06E0E06840F00103FC
:1002400094E8070098471034AC42F6D3FFF752FF0A
:100250009C550008BC55000870B58C1810F8015B5F
:1002600015F0070301D110F8013B2A1106D110F84F
:10027000012B03E010F8016B01F8016B5B1EF9D153
:100280002B0705D40023521E0DD401F8013BFAE7D9
:1002900010F8013BCB1A921C03E013F8015B01F844
:1002A000015B521EF9D5A142D8D3002070BDFEE7F4
:1002B000002070470020704710B50022044905480F
:1002C00002F056FC0449034802F04CFC002010BD2B
:1002D000EC0D002028050020EC09002010B5014697
:1002E000034802F03FFC024802F020FC002010BD51
:1002F00028050020014800F007B800009C040020F9
:10030000704772B6FEE700002DE9F05FC16B0C6824
:1003100001680B68D0F840C0042202FA0CF2494D83
:10032000DFF824A1494E4A4FDFF828B1DFF828E171
:1003300022422CD05A072AD50A68920603D40A68AA
:1003400022F004020A600168A94201D1042219E0E6
:10035000514501D1402215E0B14202D14FF48062F3
:1003600010E0B94202D14FF480420BE0594502D16E
:100370004FF4802206E0714502D14FF4800201E083
:100380004FF080622F4908394A60C16A3BE04FF064
:10039000020808FA0CF818EA040F4FF000094FF0B1
:1003A000010235D05FEA837832D50B689B0605D40D
:1003B0000B6823F00A030B6080F821200168A94232
:1003C00001D1022219E0514501D1202215E0B142AC
:1003D00002D14FF4007210E0B94202D14FF4005242
:1003E0000BE0594502D14FF4003206E0714502D1CD
:1003F0004FF4001201E04FF00072124908394A60D0
:1004000080F82090816A00291AD0BDE8F05F084783
:10041000082505FA0CF5254212D01B0710D50B68EC
:1004200023F00E030B6090F84010C36B02FA01F149
:100430005960826380F8212080F82090016BE2E708
:10044000BDE8F09F080002401C000240300002405E
:1004500044000240580002406C00024030B528B30E
:1004600008C8134914221944B1FBF2F18900C16391
:1004700010498163022141771A6843F6F0718A437B
:10048000D0E900142143D0E902452C4321430469FB
:1004900021434469214384692143114319600021A8
:1004A0004163012242770177084630BD012030BD0B
:1004B000F8FFFDBF0000024070B5044600F008F9E7
:1004C0000546601C02D004480078044400F000F99E
:1004D000401BA042FAD370BD680000202DE9F84F00
:1004E000DFF8B8910024A9F1040B23460F2709F186
:1004F000040AABF1040EC9E00125A5402A40AA4236
:100500007DD1674ED1F804C0ACEB0608B44532D0BB
:1005100014DCBCF1030F3AD009DCBCF1000F2AD087
:10052000BCF1010F1CD0BCF1020F31D11DE0BCF1B8
:10053000110F17D0BCF1120F2AD119E0B8F5881F9E
:1005400019D006DCB8F5803F15D0B8F5801F1FD153
:1005500011E0B8F5001F0ED0B8F5041F18D10AE05D
:10056000CB6815E0CB681B1D12E0CB6808330FE0A9
:10057000CB680C330CE08B682BB1012B4FF00803D8
:1005800003D0456104E0042302E0056100E000239C
:10059000FF2A01D8064601E000F104064FEA84056F
:1005A00001D9A5F12005D6F8008007FA05FC28EA54
:1005B0000C0803FA05F548EA0508C6F800804D68FE
:1005C000ED0062D5374DAE6946F00106AE61AD690A
:1005D00024F0030605F001050095334D06EB050CEC
:1005E000DCF80850A607360F07FA06F825EA0805D2
:1005F000DFF8B880404503D14FF0000817E044E031
:10060000DFF8AC80404502D14FF001080FE0DFF881
:10061000A480404502D14FF0020808E0DFF898803E
:10062000404502D14FF0030801E04FF0040808FAFA
:1006300006F848EA0508CCF808804D68D9F800604B
:10064000ED024D4601D5164300E096432E604D68FD
:10065000DAF80060AD02554601D5164300E0964336
:100660002E604D68DBF80060AD035D4601D5164392
:1006700000E096432E604D68DEF80060ED0375469D
:1006800001D5164300E096432E60641C0D682A468F
:10069000E5407FF431AFBDE8F88F00000804014069
:1006A000000011100010024000000140000801404D
:1006B000000C014000100140001401408068084017
:1006C00000D0012070470AB1016170470904FBE7BF
:1006D00001488068704700006800002070B5040081
:1006E00025D094F83D00002520B984F83C502046E0
:1006F00000F050F9242084F83D002068016821F0C2
:10070000010101602068016841F400410160206836
:10071000016821F40041016000F0D2FF4D4A616898
:10072000914201D84C4900E04C49884201D2012055
:1007300070BD4B492368B0FBF1F15E6826F03F06BF
:100740000E435E606368934206D94FF49673594333
:100750004FF47A73B1FBF3F12368491C1E6A26F04B
:100760003F06314319626168914210D84900401E2A
:10077000B0FBF1F2521CC2F30B02042A01D2042096
:1007800022E0B0FBF1F0401CC0F30B001CE0A268BB
:10079000F2B301EBC10303EB0116431EB3FBF6F307
:1007A0005B1C43F480431B0549D092B301EBC102AB
:1007B00002EB0111401EB0FBF1F0401CC0F30B0036
:1007C00040F4804040F400402168CA694CF6FF7351
:1007D0009A431043C861D4E90710014320680268B6
:1007E00022F0C00211430160D4E9030101432068F3
:1007F000826848F2FF339A4311438160D4E90501CE
:1008000008432168CA6822F0FF021043C86001E073
:100810000EE016E02068016841F0010101602564E6
:10082000202084F83D00256384F83E50002070BDF0
:1008300001EB4106431EB3FBF6F35B1CB3E701205B
:10084000C2E701EB4101401EB0FBF1F0401CC0F3D8
:100850000B00B7E7A086010080841E0000093D0060
:1008600040420F002DE9FF4F83B09A46DDE9119712
:1008700093460446DDF84080FFF72AFF054694F8CA
:100880003D0020287FD119230122404920460095B0
:1008900001F0DEFA002876D194F83C00012872D0ED
:1008A000012084F83C0020680168C90703D1016871
:1008B00041F0010101602068016821F400610160DC
:1008C000212084F83D00402084F83E000026266464
:1008D000C4F82480A4F82A90608D20852C48E0621A
:1008E000CDE9007553465A462046049901F030FA86
:1008F00070B930E02A463946204601F04FFB58B126
:10090000206C042804D12068016841F40071016062
:10091000012007B0BDE8F08F606A216800780861A7
:10092000606A401C6062218D491E89B22185628DFA
:10093000521E628522685369DB435B070BD469B1A1
:1009400000781061606A401C6062208D401E208526
:10095000608D401E6085208D0028CBD12A46394607
:10096000204601F049FA0028CAD154F83D0B01682D
:1009700041F400710160202004F81E09E6776677D3
:100980000020C6E7FFE70220C3E7000002001000D6
:100990000000FFFF70B586B0002506460095019562
:1009A0000295039500681A4988422FD1194CA06915
:1009B00040F00800A061A069694600F008000490BA
:1009C000C020009012200190032003901248FFF7EE
:1009D00085FDE06940F40010E061E069104C00F42E
:1009E000001004900D4820601020C4E9010580200B
:1009F000C4E9030540016561C4E906502046FFF7DC
:100A00002DFD08B1FFF77DFC7463666206B070BD12
:100A10000054004000100240000C01406C000240F5
:100A20009C0400200248816802781144816070476C
:100A300068000020074810B5016841F0100101600E
:100A4000032000F07BF80F2000F006F800F024F8F7
:100A5000002010BD0020024070B50D4D04464FF43B
:100A60007A712878B1FBF0F00A490968B1FBF0F01F
:100A700000F0ECFF48B9102C07D200222146501E8E
:100A800000F03CF800206C6070BD012070BD0000DB
:100A900068000020740000200F4808B5816941F00B
:100AA00001018161816901F001010091C16941F099
:100AB0008051C161C069002200F0805000900F2178
:100AC000901E00F01BF80548416821F0E06141F0FC
:100AD0000071416008BD00000010024000000140AC
:100AE000002809DB00F01F0201219140400980002D
:100AF00000F1E020C0F8001170470000F0B40E4B88
:100B00001B680C46C3F30223C3F10705042D00D96B
:100B10000425191D072901D2002300E0DB1E012650
:100B200006FA05F1491E214099409E40761E164066
:100B30003143F0BC03F0B0BA0CED00E0064900F020
:100B4000070208684FF6FF03184040EA0220034AF4
:100B500010430860704700000CED00E00000FA054B
:100B600010B50C0607D501F0070101EB810100EB80
:100B7000C100103005E001EB810100EBC10000F580
:100B8000A87099B232B1012202730181190C41811E
:100B9000002010BD00220273C180F9E7704701EB0D
:100BA000810200EBC202D0F8D402526A02F0D1B93D
:100BB00001EB810200EBC202D0F8D402D2F864212A
:100BC00002F02ABA70B504460B0601F0070000EBEC
:100BD000800104EBC1014FF001024FF0000502D586
:100BE0004A74103103E081F8515101F5A871087081
:100BF00094F89002012808D084F89022206802F02E
:100C00006BFE84F89052002070BD022070BD70B55C
:100C1000044601F00F002279904201D9012070BDF5
:100C20000B0601F0070000EB800104EBC1014FF05F
:100C300001024FF0000502D54A74103103E081F83B
:100C4000515101F5A8718D70087094F89002012837
:100C500008D084F89022206802F0DBFE84F89052DD
:100C6000002070BD022070BD2DE9F05F04685FEACE
:100C7000424C0B788D69B4F850C04FF000064BF62B
:100C80008F7948F2800A48F68F7B48F2C00E4FF405
:100C900080672AD54FF0020808EBC308C44407EB6D
:100CA0004C07E45BC4F30904A54203D32D1B8D61FB
:100CB00001D00BE08E61066836F8235005EA09057D
:100CC00085F4005545EA0A0526F82350520609D551
:100CD0000D78036833F8252002EA0B0242EA0E027F
:100CE00023F8252084B30A8929E04FF0060808EB91
:100CF000C308C44407EB4C07E45BC4F30904A542F2
:100D000003D32D1B8D6101D00BE08E61066836F890
:100D1000235005EA090585F4005545EA0A0526F839
:100D20002350520609D40B78056835F8232002EACF
:100D30000B0242EA0E0225F823202CB14A894969A8
:100D40000068234603F03EF92046BDE8F09F2DE9F8
:100D5000F05F054600680C465FEA426C16468B69F8
:100D60002278B0F850C048F68F774CF280094FF4E3
:100D7000004B4FF6FF7E4FF4806A4FF0000172D5B2
:100D80004FF0020808EBC208E0440AEB480C30F8C8
:100D90000C00C0F30900834211D91B1AA3610FD0C4
:100DA000730407D52E6836F822303B4043EA090326
:100DB00026F8223094F82420012A47D052E1A1617C
:100DC000607810B1012813D01AE02868B0F85030CC
:100DD000184400EB0210B0F80424C2F30902A0F892
:100DE0000424B0F8042442F40042A0F8042407E0EC
:100DF0002868B0F85030184400EB0210A0F8041432
:100E00006278286812B1012A11D018E0B0F85010A9
:100E10000844217800EB0110B0F80C14C1F309016B
:100E2000A0F80C14B0F80C1441F4004105E0B0F83F
:100E300050201044227800EB0210A0F80C14217806
:100E40002846FFF7ACFE700472D40BE162690244DD
:100E50006261E2690244E2612369226A9A4203D331
:100E60001846111A04E03EE084F824100AB1104636
:100E70002162617811B1012929D031E02968B1F8E6
:100E800050201144227801EB0211B1F80424C2F37E
:100E90000902A1F8042401F204413E2807D94209BD
:100EA000C30600D1521E0B884BEA822207E048B1EC
:100EB0004208C30700D0521C0B880EEA822213435B
:100EC0000B800DE00A8842F400420A8008E029689D
:100ED000B1F850201144227801EB0211A1F804046A
:100EE00083B22289BAE04FF0060808EBC208E0445A
:100EF0000AEB480C30F80C00C0F30900834211D310
:100F00001B1AA3610FD0730407D42E6836F8223061
:100F10003B4043EA090326F8223094F82420012AB2
:100F200051D09FE0A161607818B1012814D01BE076
:100F30003FE02868B0F85030184400EB0210B0F8D9
:100F40000424C2F30902A0F80424B0F8042442F4F3
:100F50000042A0F8042407E02868B0F85030184494
:100F600000EB0210A0F804146278286812B1012A7C
:100F700011D018E0B0F850100844217800EB0110AF
:100F8000B0F80C14C1F30901A0F80C14B0F80C145B
:100F900041F4004105E0B0F850201044227800EB05
:100FA0000210A0F80C1421782846FFF7F8FD700411
:100FB00058D42278296831F82200384040EA0900E4
:100FC00021F822004EE0626902446261E269024453
:100FD000E2612369226A9A4203D31846111A2162F8
:100FE00004E00AB11046216284F82410627829686E
:100FF00012B1012A28D02FE0B1F8502011442278F4
:1010000001EB0211B1F80C24C2F30902A1F80C247F
:1010100001F20C413E2807D94209C30600D1521EF5
:101020000B884BEA822207E048B14208C30700D090
:10103000521C0B880EEA822213430B800CE00A88B4
:1010400042F400420A8007E0B1F8502011442278AF
:1010500001EB0211A1F80C04628983B2616928686E
:1010600002F0CEFF2278296831F8220048F6BF73DB
:10107000184080F0300048F28003184321F8220025
:101080000020BDE8F09F01F0070101EB810100EBBA
:10109000C100D0F86C0170472DE9F04104460F06FD
:1010A00001F0070000EB800104EBC1014FF00106E5
:1010B0004FF0000502D54E74103103E081F8515114
:1010C00001F5A871022B08700A61CB7000D10D7177
:1010D00094F89002012809D084F89062206802F008
:1010E000ABFA284684F89052BDE8F0810220FBE775
:1010F00010B501F0070404EB840100EBC101C1E964
:1011000059230022C1F86C2181F8512181F8504106
:10111000006801F5A87102F0D1FC002010BD70B587
:1011200004460D4601F007002179884201D90120CB
:1011300070BD29064FF000064FF0010206D500EB06
:10114000800104EBC1014A74103107E005EB850111
:1011500004EBC10181F8516101F5A8718A70087032
:1011600094F89002012807D084F89022206802F0B9
:101170008CFC680702D006E0022070BD04F52671E1
:10118000206802F044FC84F89062002070BD10B525
:1011900001F0070404EB840100EBC101C1E909235C
:1011A000012281F834200B630023CB624A7401F8DA
:1011B000104F006802F082FC002010BD1FB50446ED
:1011C000006802F0FBFE010403D5204601F018F987
:1011D0001FBD41050DD5206830F8441F21F4806102
:1011E0000180204600F000F90021204600F017F9A8
:1011F0001FBD410405D5206830F8441F21F480410B
:1012000074E0810405D5206830F8441F21F40051B2
:101210006CE0C10414D5206830F8401F21F00401AF
:101220000180206830F8401F21F00801018020462D
:1012300000F0EDF8206830F8441F21F4805155E0AB
:10124000010540D5D4F800200020694632F820304E
:1012500021F81030401CC0B20828F7D332F8400FF4
:1012600040F001001080206830F8402F22F0010289
:1012700002802068B0F844205205FBD530F8442F96
:1012800022F4806202800020236831F8102023F8C5
:101290002020401CC0B20828F6D3206830F8401F38
:1012A00041F008010180206830F8441F21F40061FA
:1012B0000180206830F8401F41F004010180204681
:1012C00000F0E0F81FBD810509D5206830F8441F03
:1012D00021F400710180204600F09DF81FBDC0057B
:1012E000FCD5206830F8441F21F4807101801FBDB7
:1012F0002DE9F041040004D094F89102002518B1C2
:1013000007E00120BDE8F08184F89052204600F00B
:101310004DF8032084F891026571206802F070FB9B
:1013200094E80F0002F0D6FA022698BB002120684C
:1013300002F05EFE70BB002001270BE000EB800195
:1013400004EBC1014F740874CD740D624D62401CF2
:10135000C0B28D6221798142F0D8002012E000BF36
:1013600000EB800104EBC10181F8515181F850017B
:1013700081F85351C1F86051C1F86451401CC0B2AA
:10138000C1F8685121798142EAD894E80F0002F04F
:101390002EFB10B184F89162B3E7657384F8917203
:1013A000206802F022FB0020ACE7000008B50068CE
:1013B0000B49884212D10B48C16941F40001C16157
:1013C000C069002200F40000009005211420FFF7FE
:1013D00095FBBDE808401420FFF782BB08BD000064
:1013E000005C00400010024070B504468079012581
:1013F000022801D0FEF785FF2946D4F8D40201F077
:10140000F3FED4F8D402BDE8704001F0AFBED0F8CE
:10141000D40201F0D3BED0F8D40201F0D9BE10B589
:10142000044690F8900201280AD0012084F8900226
:101430006173206802F0DEFD002084F8900210BD88
:10144000022010BDD0F8D42200F52671104601F01C
:10145000D7BE10B5044690F89002012810D00120A4
:1014600084F89002206802F09AFD01212046FFF7DF
:1014700095FB206802F0B7FA002084F8900210BDB6
:10148000022010BD10B50446D0F8D40201F0F7FEDA
:10149000A07A002804D00348016841F006010160E9
:1014A00010BD000010ED00E02DE9F843054600787E
:1014B000354CC00754D0E0690026C00008D4E0696C
:1014C00040F08050E061E069012600F0805000901B
:1014D0002E480168C90512D40168804641F4807124
:1014E0000160FFF7F5F8074605E000BFFFF7F0F8E9
:1014F000C01B642823D8D8F80000C005F6D5206AA0
:1015000010F4407021D0A98801F4407181421CD0B0
:10151000206A1F49012220F440700A6000220A60FC
:101520002062C00711D0FFF7D3F8074641F2883890
:1015300008E000BFFFF7CCF8C11B414502D90320EA
:10154000BDE8F883206A8007F4D5206A696820F432
:101550004070084320621EB1E06920F08050E061D5
:101560002878800705D56068A96820F440400843C2
:1015700060602878C00605D56068E96820F48000BE
:10158000084360600020DBE700100240007000406C
:10159000400442422DE9F0470F46050061D0434E1A
:1015A000306800F00700B84209D2306820F0070028
:1015B00038433060306800F00700B84251D12868E5
:1015C0003B4C810712D5400703D5606840F4E060CA
:1015D00060602878000703D5606840F46050606060
:1015E0006068A96820F0F000084360602878C007B0
:1015F00028D06868012810D02168022810D08907F7
:1016000000292EDA616821F0030101436160FFF7D0
:101610005FF8804641F288390DE021688903EFE7E1
:101620008901EDE7FFF754F8A0EB0801494502D91D
:101630000320BDE8F0876068696800F00C00B0EB3B
:10164000810FEFD1306800F00700B8420BD9306845
:1016500020F0070038433060306800F00700B842DF
:1016600001D00120E5E72878400705D56068E968E2
:1016700020F4E060084360602878000706D56068C1
:10168000296920F4605040EAC100606000F028F849
:101690006168084AC1F30311515CC84006490860FB
:1016A00006480068FFF7D8F90020C2E70020024092
:1016B00000100240524D0008740000206C00002011
:1016C0000448054900684968044AC1F30221515C95
:1016D000C84070477400002000100240624D0008AE
:1016E0000E4A51680E4801F00C03042B11D0082B50
:1016F0000FD10C48C1F38343C903C05C0AD55168BC
:10170000084AC1F34041921E515C054A5043B0FB68
:10171000F1F0704704494843704700000010024050
:1017200000127A00424D000800093D002DE9F84FF3
:10173000040070D02078C04DC00749D06868C0F35D
:101740008100012807D06868C0F38100022809D110
:101750006868C00306D52868800339D5606800280A
:10176000E7D035E06068B0F5803F0BD010B1B0F540
:10177000A02F11D0286820F480302860286820F439
:10178000802002E0286840F480302860606890B1D2
:10179000FEF79EFF06460AE0286840F48020286095
:1017A000F0E700BFFEF794FF801B642873D8286819
:1017B0008003F7D50CE0FEF78BFF064605E000BF7F
:1017C000FEF786FF801B6428F0D828688003F7D4D2
:1017D00020789A4E80074FF001094FF0000839D564
:1017E000686810F00C0F07D06868C0F38100022809
:1017F00009D16868C00306D42868800714D5206919
:10180000012808D110E02069B0B1C6F80090FEF7B9
:101810005FFF074605E00AE1FEF75AFFC01B0228FA
:10182000C4D828688007F7D52868616920F0F800D7
:1018300040EAC10028600DE0C6F80080FEF748FFCE
:10184000074604E0FEF744FFC01B022823D828689F
:101850008007F7D4207800072CD57948A169D9B141
:10186000C0F80090FEF734FF074604E0FEF730FFB3
:10187000C01B02280FD8686A8007F7D571484FF45B
:10188000FA510068B0FBF1F0009000BF0098411ED3
:101890000091FAD20EE080E0C0F80080FEF718FF59
:1018A000074604E0FEF714FFC01B022875D8686ADB
:1018B0008007F7D42078400760D5E8690027C0008A
:1018C00008D4E86940F08050E861E869012700F039
:1018D000805000905C480168C90513D401688346B4
:1018E00041F480710160FEF7F3FE824606E000BF1E
:1018F000FEF7EEFEA0EB0A0064284ED8DBF80000ED
:10190000C005F5D5E06801280AD008B1052813D034
:10191000286A20F001002862286A20F0040002E012
:10192000286A40F001002862E06841F2883B98B1E3
:10193000FEF7CEFE82460BE0286A40F004002862E3
:10194000EEE700BFFEF7C4FEA0EB0A0159455AD8E6
:10195000286A8007F6D50CE0FEF7BAFE824605E05D
:10196000FEF7B6FEA0EB0A0159454CD8286A80075D
:10197000F6D41FB1E86920F08050E861E06988B3CF
:101980006968C1F38101022944D00228C6F8608049
:1019900004D0FEF79DFE044638E034E0FEF798FEE2
:1019A000074604E0FEF794FEC01B02282BD82868E7
:1019B0008001F7D4206AB0F5803F05D16868A1683E
:1019C00020F4003008436860D4E9080108436968DE
:1019D00021F4741108436860C6F86090FEF778FE41
:1019E000044606E025E000BFFEF772FE001B022859
:1019F00009D828688001F7D51BE000BFFEF768FE14
:101A0000001B022802D90320BDE8F88F2868800156
:101A1000F4D40EE00128F7D06868226A00F480311F
:101A2000914204D1616A00F47010884201D0012013
:101A3000EAE70020E8E70000001002400000424210
:101A400080044242740000200070004010B5401E27
:101A5000B0F1807F01D3012010BD4FF0E024606120
:101A60000F21601702F018FB0020A0610720206101
:101A7000002010BD7047704770B590F83C20012AD7
:101A800026D0012480F83C40022280F83D200368E3
:101A90005A689D6822F070060A6832435A600D4BFE
:101AA00002689A4208D0B2F1804F05D00A4B9A42A0
:101AB00002D00A4B9A4204D1496825F080031943A9
:101AC000916080F83D40002180F83C10084670BDD0
:101AD000022070BD002C01400004004000080040BE
:101AE0002DE9F0410D46040003D094F83D0018B1F3
:101AF00008E00120BDE8F081002084F83C00204689
:101B000000F040F8022084F83D002068816844F22B
:101B1000070291438160211D206800F0FBFE2268CE
:101B200090689169166A2B68AF69034340F20330ED
:101B3000814341EA0721A868EF6908434FF6FC4159
:101B40008843E96840EA0720014328692F6A0001B9
:101B500040EA0730084369686D6926F0220646EAC4
:101B60000515294393602268906154F8460B016281
:101B7000012004F81F09E0752076E0762077A07533
:101B80000020B7E700B585B00021009101910291D6
:101B900003910068B0F1804F1ED11048C16941F037
:101BA0000101C161C16901F001010491816941F044
:101BB000040181618069694600F0040004900320FB
:101BC00000900748FEF78AFC002205211C20FEF742
:101BD00095FF1C20FEF784FF05B000BD00100240F9
:101BE0000008014070472DE9F04104460068C668CE
:101BF00005694FF00007A90713D5B10711D5F91EE4
:101C0000016101202077206880698007204602D08A
:101C1000FFF7E8FF04E000F07EF8204600F07CF8D3
:101C20002777680716D5700714D521686FF0040070
:101C30000861022020772068806910F4407F2046E8
:101C400002D0FFF7CFFF04E000F065F8204600F077
:101C500063F82777280715D5300713D521686FF06B
:101C600008000861042020772068C06980072046AA
:101C700002D0FFF7B7FF04E000F04DF8204600F077
:101C80004BF82777E80616D5F00614D521686FF0D3
:101C900010000861082020772068C06910F4407F98
:101CA000204602D0FFF79EFF04E000F034F8204603
:101CB00000F032F82777E80708D0F00706D021684F
:101CC0006FF001000861204600F027F8280608D5CB
:101CD000300606D521686FF0800008612046FFF7C6
:101CE000C9FE680608D5700606D521686FF0400069
:101CF0000861204600F012F8A8060AD5B00608D5FB
:101D000021686FF0200008612046BDE8F041FFF730
:101D1000B2BEBDE8F0817047704770477047FEE77C
:101D200001684A69D24352050FD46FF480624A6158
:101D3000002140F8301F202242738173026942F073
:101D40000402026101730120704700207047000007
:101D50002DE9F843044600680D46DDE9089701685F
:101D60009846164641F4807101604B4600224FF0C0
:101D700001112046009700F06BF848B12068006818
:101D8000C00502D54FF4007020640320BDE8F8833D
:101D9000216805F0FE0008613B464A461549204689
:101DA00000F09EF888B920684169806900903A4641
:101DB0004946204600F0F2F848B1206C042804D1CE
:101DC0002068016841F4007101600120DEE7F5B28E
:101DD000B8F1010F09D02168300A08613A46494636
:101DE000204600F0DBF80028E7D1206805610020DC
:101DF000CCE700000200010070B516460D4604460F
:101E00001EE02046FFF78CFF08B1012070BD681C62
:101E100016D0FEF75DFC801BA84200D885B920686B
:101E20004069C04340070BD5002044F8300F202103
:101E30006173A073216941F0200121612073E4E7FF
:101E400020684069C0434007DBD4002070BD00001B
:101E50002DE9F047984617460D460446C1F307465C
:101E6000DDF820902AE000BFB8F1FF3F26D0FEF752
:101E70002FFCA0EB0901414502D8B8F1000F1DD19C
:101E80002068012E16D0806925EA00000004000CAD
:101E900012D00020B84211D1002044F8300F202188
:101EA0006173A073216941F0200121612073012039
:101EB000BDE8F0874069E7E70120EBE72068012EE5
:101EC0000AD0806925EA00000004000C06D000203A
:101ED000B842C9D00020EBE74069F3E70120F7E7FB
:101EE0002DE9F047984616460D4604464FF0000986
:101EF0004FF0200AC1F3074723E020684069C04340
:101F0000400515D42068016841F400710160216822
:101F10006FF480604861C4F8309084F83DA084F884
:101F20003E90216C41F00401216484F83C9021E052
:101F3000701C06D0FEF7CCFBA0EB0800B04203D823
:101F400016B1012F1FD021E02068012F15D0806924
:101F500025EA00000004000C18D000BF44F8309FB0
:101F600084F80DA084F80E90216941F020012161D0
:101F700084F80C900120BDE8F087406925EA000054
:101F80000004000CEAD12068406901E02068806903
:101F900025EA00000004000CAFD1ECE770B516464E
:101FA0000D4604461EE02046FFF7BAFE08B10120A8
:101FB00070BD681C16D0FEF78BFB801BA84200D8B2
:101FC00085B920684069C04300060BD5002044F85D
:101FD000300F20216173A073216941F0200121613C
:101FE0002073E4E720684069C0430006DBD400208A
:101FF00070BD0000F0B500230A24302537261F46A7
:1020000011E000BFB4EB107F02D905EB107C01E0BA
:1020100006EB107C01F813C001EB430C00015B1CC4
:102020008CF80170DBB29342ECD3F0BD094808B5DF
:10203000416941F0010141614069002200F0010065
:10204000009005211020FEF759FDBDE80840102042
:10205000FEF746BD0010024010B58EB01C220B49A1
:102060006846FEF7ADF80021684602F00AF9084C10
:1020700006491C2220601C3107A8FEF7A1F80021A8
:1020800007A802F0FEF860600EB010BD084D000811
:102090000000002070B586B000251D480095019510
:1020A00002950395816941F020018161816901F008
:1020B00020010491816941F004018161816901F08D
:1020C00004010491816941F0080181618069114E28
:1020D00000F008004FF4604404900022214630468E
:1020E000FEF7F1FA009401240320CDE9024069468D
:1020F00001943046FEF7F2F94FF44070CDE9000547
:10210000694602943046FEF7E9F906B070BD00005A
:1021100000100240000C01400D4810B50B49016051
:102120000C49416000214FF480428160C0E90312F4
:1021300041618161C1610162FEF7D0FA002803D0DC
:10214000BDE81040FEF7DDB810BD000000540040AF
:1021500048040020A086010010B58CB024216846F8
:10216000FEF747F80024164809944FF080410A947E
:1021700001600421C0E901144FF6FF71C0E90314A6
:1021800084610320CDE900040120CDE90204072188
:102190000491CDE90540CDE9074169460848FFF7BC
:1021A0009FFC08B1FEF7ADF8099409A904480A9408
:1021B000FFF762FC002801D0FEF7A3F80CB010BDB9
:1021C000E004002010B500220F49104800F09AFEEC
:1021D00008B1FEF796F80E490C4801F076F808B100
:1021E000FEF78FF80B49094800F0B4FC08B1FEF780
:1021F00088F8064801F0BEF8002803D0BDE810407A
:10220000FEF77FB810BD0000080000202805002060
:102210005401002058000020FEE7FEE770B5064696
:102220005FF0000404F1B000C0B201F0FDFE002038
:1022300001F0FAFE102001F0F7FE0025304601F013
:1022400005FF6D1CEDB2802DF8D3641CE4B2082CA0
:10225000E8D370BD10B5AE2001F0E6FE202001F0FD
:10226000E3FE022001F0E0FEB02001F0DDFEC82018
:1022700001F0DAFE002001F0D7FE102001F0D4FEBC
:10228000402001F0D1FE812001F0CEFEFF2001F0C0
:10229000CBFEA12001F0C8FEA62001F0C5FEA820BB
:1022A00001F0C2FE3F2001F0BFFEA42001F0BCFE01
:1022B000D32001F0B9FE002001F0B6FED52001F0D8
:1022C000B3FEF02001F0B0FED92001F0ADFE2220D7
:1022D00001F0AAFEDA2001F0A7FE122001F0A4FE10
:1022E000DB2001F0A1FE202001F09EFE8D2001F0F8
:1022F0009BFE142001F098FEAF2001F095FE10BD6A
:1023000010B50446B031C8B201F08EFE102040EA8C
:10231000141001F089FE04F00F00BDE8104040F0F9
:10232000010001F081BE00002DE9F0470025914633
:102330008A460446012B22D0DFF8BC80022B24D130
:1023400055E02038C7B27E2C04D90AF101000024E0
:1023500000F0FF0A51462046FFF7D2FF07EB470087
:10236000002608EB4007B85D01F070FE761CF6B25F
:10237000062EF8D3A41D6D1CE4B2EDB201E0DFF827
:102380007C8019F805000028DBD1BDE8F0872038F3
:10239000C7B2782C04D90AF10100002400F0FF0A2A
:1023A00051462046FFF7ACFF5FF0000606EB071131
:1023B00018F8010001F04AFE761CF6B2082EF5D39B
:1023C0000AF10100C1B22046FFF79AFF5FF0000654
:1023D00006EB071101EB0800007A01F037FE761CCE
:1023E000F6B2082EF4D308346D1CE4B2EDB219F83D
:1023F00005000028CBD1C8E7924F00086A4D0008BD
:102400002DE9F84F044640F68F7B48F60F794FF4DC
:1024100080684FF0000ABDE1B0F8441011F00F05DC
:1024200039D030F8256031047ED530F8251001EA26
:102430000B0141F0800120F8251005EB850004EB2D
:10244000C00797F85C0107F5A87700286DD0F878E9
:1024500002286BD03978226832F8210048F68F7351
:10246000184048F2C003184322F821003978206848
:1024700030F82120B0F8503052047DD5022202EB12
:10248000C1015A1808EB4201415A8905890D009192
:1024900073D03A89DDE0C9062BD4018801EA09012D
:1024A00041F400410180206804F11005B0F850307B
:1024B000217C022202EBC1015A1808EB4201405A6A
:1024C000C0F30900E062616A0844606200212046AE
:1024D000FEF765FB607B00289DD0A86900289AD193
:1024E000607B216840F08000A1F84C0084F80DA0CA
:1024F00050E1018804F5A8750A0521D5B0F85020EF
:102500002B78062101EBC3010A4408EB4201405A33
:1025100004F52671C0F30903EB61EA88206801F035
:1025200051FD2068018802E0AEE06EE07EE001EA45
:102530000B0141F0800101802046FEF783FF29E175
:102540000904D5D5018801EA0B0141F08001018021
:102550002068B0F850202B78062101EBC3010A4413
:1025600008EB4201405A83059B0DEB6110D069696D
:1025700071B1EA88206801E05FE05DE001F022FDD2
:10258000E96968690844686100212046FEF710FB8C
:10259000216808880205ABD4C0F301300328A7D016
:1025A000B1F850000844B0F80C14C1F30901A0F8C8
:1025B0000C142A6900F20C403E2A09D95109D206AE
:1025C00000D1491E02884FF4004343EA812109E00B
:1025D000B2B15108D20700D0491C02884FF6FF73F0
:1025E00003EA81210A430280216808884BF68F7232
:1025F000104080F4405048F2800210430880C9E047
:10260000018841F400410180EEE72068B0F85020D5
:102610003B78062101EBC3010A4408EB4201415A11
:102620008905890D009118D0FA8812E032463946A2
:102630002046FEF719FB00900FE0062202EBC101D5
:102640005A1808EB4201415A8905890D009104D0BE
:102650007A897969009B01F0B5FCF8690099084412
:10266000F8617969009808447861B86918B13969E6
:102670000098814204D939782046FEF799FA03E0A0
:102680003946206801F01AFA30062ED505EB850090
:1026900004EBC001206830F8252002EA090242F468
:1026A000004220F82520C87C103101281ED0F005FA
:1026B0006CD42068B0F850300D78022202EBC502CD
:1026C0001A4408EB4202805A8A69C0F30900824228
:1026D00055D9121A8A6154D04A6902444A61CA69BA
:1026E0001044C861206801F0E9F953E0C1F818A06E
:1026F000087B524608B3700620D5487810B10128EF
:1027000012D03AE02068B0F8502010440A7800EB6C
:102710000210B0F80424C2F30902A0F80424B0F8AF
:10272000042442F4004206E02068B0F85030184417
:102730000B7800EB0310A0F804241EE04B7820680F
:1027400013B1012B11D018E0B0F8502010440A78D2
:1027500000EB0210B0F80C24C2F30902A0F80C241C
:10276000B0F80C2442F4004205E0B0F850301844B0
:102770000B7800EB0310A0F80C24097802E0C1F8F4
:1027800018A0E9B22046FEF70AFA03E032462046D6
:10279000FEF7DDFA2068B0F8441009043FF53CAEBE
:1027A0000020BDE8F88F0000FFF70CFD1F4C012250
:1027B000D1032046FDF787FFA71565154FF4005894
:1027C0006E01012001F051FD29462046FDF776FFFC
:1027D00028B939462046FDF771FF012805D0394652
:1027E0002046FDF76BFF38B10CE001223146204650
:1027F000FDF769FF002216E029462046FDF75EFF3F
:1028000001280AD0002231462046FDF75CFF002255
:1028100031462046FDF757FFD3E7002231462046D8
:10282000FDF751FF01224146F3E70000000C014093
:102830001FB50A20FDF740FEFFF70CFDFF20FFF754
:10284000EDFC0020FFF7EAFC00244FF47A752246E5
:10285000641CA4B206A1684601F00AFC0021012311
:102860006A460846FFF760FD284601F0FEFCEEE7E9
:10287000646174613A25640010B5FEF7D3F802F084
:102880006DF9012803D0BDE8104002F0F9B810BD81
:1028900030B593B028216846FDF7ABFC14210AA897
:1028A000FDF7A7FC002401200F941094119401045B
:1028B00012948DE8130004904FF4E010CDE9081055
:1028C000022507956846FEF731FF08B172B6FEE7AC
:1028D0000F20CDE90A054FF48060CDE90C400221BC
:1028E0000AA80E94FEF756FE08B172B6FEE7102055
:1028F0000F9012940FA8FEF7D7FD002801D072B6F2
:10290000FEE713B030BD70470148FFF76CB9000017
:10291000E0040020F0B50268194B1A4C1A4D4FF034
:102920008047984205D0B84203D0A04201D0A842C7
:1029300003D122F070064A683243984205D0B8426B
:1029400003D0A04201D0A84203D122F44074CA6847
:1029500022434C6922F08002224302608A68C262EC
:102960000A688262984201D10969016301214161CB
:102970000169C90703D0016921F001010161F0BDBE
:10298000002C014000040040000800402DE9F04107
:10299000D0F8C032D0F8B822CAB101EB810500EB03
:1029A00085040026E7693FB103EBC5031B6AB7FB4B
:1029B000F3F503FB157323B1C2F814620020BDE8E0
:1029C000F08100231A46E66100F062FCF6E702207F
:1029D000F5E770B50546D0F8B84200F05EFBC4F8E4
:1029E0000C02D5F8B80248B1D5F8BC12D4F80402EC
:1029F000CA6804F503719047002070BD022070BDC5
:102A000070B504460026812100F09AFA00250121C4
:102A10002046E56200F094FA82212046C4F86C5109
:102A200000F08EFA2564D4F8B80248B1D4F8BC029C
:102A300004F52E7440688047206800F0F8FD25609A
:102A4000304670BD10B5D0E9AE4159B194F80002DE
:102A5000FF2807D08B6894F8012221469847FF2071
:102A600084F80002002010BD0A2101800048704750
:102A70007C0000204321018000487047CC000020EA
:102A800043210180004870478800002043210180D5
:102A900000487047100100202DE9F041044600264F
:102AA000007C4FF40077012590B34023022281215E
:102AB000204600F046FB4023E56202220121204629
:102AC00000F03FFB0823032282212046C4F86C510A
:102AD00000F037FB4FF40770256400F0A9FDC4F83F
:102AE000B802F8B10546D4F8BC020068804700205F
:102AF000C5F81402C5F81802207CD5F8042298B154
:102B000040230121204600F028FB3046BDE8F0813B
:102B1000FFE73B4602228121204600F012FB3B46A4
:102B2000E562CAE70126F0E73B46EAE710B5D0F8D0
:102B3000B81269B1027C002AD1F8042205D04023E2
:102B4000012100F00AFB002010BD4FF40073F7E7ED
:102B5000022010BD02460220002902D00020C2F847
:102B6000BC127047D0F8B802C0F8041200207047B9
:102B7000D0F8B802C0F81022C0F808120020704740
:102B80002DE9FC410546D0F8B87200208DF8000010
:102B9000ADF80400064608780C4610F0600121D01C
:102BA00020293BD1E288AAB10006607807D5D5F884
:102BB000BC128B6839469847E288394626E087F888
:102BC0000002A07987F80102E2883946284600F021
:102BD0004FF828E0D5F8BC12607800228B682146B7
:102BE000984720E0607820B10A2809D00B2815D139
:102BF00010E095F89C02032810D1022201A905E0FB
:102C000095F89C02032809D101226946284600F064
:102C100049F808E095F89C02032804D0214628468C
:102C200000F01BF802263046BDE8FC8110B5D0F854
:102C3000B42252689047002010BD134610B50A46D2
:102C4000002100F08AFA002010BD134610B50A4694
:102C5000002100F01DFB002010BD10B504468021AE
:102C600000F0FBFA2046BDE81040002100F0F5BA64
:102C700010B50323C0F85C21C0F89432C0F860217D
:102C800013460A46002100F068FA002010BD10B576
:102C900005210023C0F894121A46194600F05DFA87
:102CA000002010BD10B50223C261C0F89432026248
:102CB00013460A46002100F0EBFA002010BD10B5C3
:102CC00004210023C0F894121A46194600F0E0FAD5
:102CD000002010BD10B50A46024903A000F0E2F83A
:102CE000004810BDEC07002043444320436F6E664C
:102CF0006967000012200880004870472800002003
:102D000010B50A46024903A000F0CCF8004810BDF7
:102D1000EC07002043444320496E7465726661638A
:102D2000650000000420088000487047240000204F
:102D300010B50A46024903A000F0B4F8004810BDDF
:102D4000EC07002053544D6963726F656C656374C2
:102D5000726F6E696373000010B50A46024903A0E2
:102D600000F0A0F8004810BDEC07002053544D338C
:102D700032205669727475616C20436F6D506F72AA
:102D80007400000010B51A2008800A480168001D70
:102D90000468001D0068081809D008220649FFF7DA
:102DA00029F90549042210312046FFF723F902488A
:102DB000801E10BDE8F7FF1F3E000020F8B5044656
:102DC0000020ADF8000048880D46010A082948D2C5
:102DD000DFE801F04704091747473C45D4F8B01233
:102DE000207C0A6819E0207C02260028D4F8B4026E
:102DF00005D0C16A68468847014646703EE0816A50
:102E0000F8E7C0B206282CD2DFE800F0030A10145D
:102E1000181CD4F8B002426805E0694690471CE0EF
:102E2000D4F8B0028268E2B1207CF6E7D4F8B002B0
:102E3000C268F8E7D4F8B0020269F4E7D4F8B00247
:102E40004269F0E7D4F8B0028269ECE7207C40B92F
:102E5000D4F8B402416B6846884701460EE0207CF6
:102E600020B129462046FFF7F8FEF8BDD4F8B40299
:102E7000016B68468847014607204870BDF800008E
:102E800048B1EA8852B1824200D90246ADF800202A
:102E90002046FFF707FFE8880028E6D12046FFF725
:102EA0000EFFF8BD70B5002300281ED00446002593
:102EB00002E06D1CEDB2641C2678002EF9D10224CC
:102EC00004EB450414801278CA545B1C0322CA54D4
:102ED00000245B1C06E0CA545B1CDAB28C54521C02
:102EE000D3B2401C0278002AF5D170BD01004FF02A
:102EF000000004D0012901D0022901D0022070472E
:102F00000120704710B580B1D0F8B43213B100235E
:102F1000C0F8B43209B1C0F8B012012180F89C1297
:102F2000027000F0BFF8002010BD022010BD10B5E7
:102F3000D0F8C002FDF76BFEBDE81040FFF7D6BF2A
:102F400010B5D0F8C002FDF73DFEBDE81040FFF718
:102F5000CDBF2DE9F0411746044651B1D4F8B40273
:102F600042691AB194F89C02032851D00220BDE8AE
:102F7000F081D4F89432002504F11400022B03D020
:102F8000042B3AD0C3B33CE0D0E903639E4207D997
:102F9000F11AC1608AB239462046FFF756FE12E0A8
:102FA0008068B0FBF3F103FB110199B9984211D38A
:102FB000D4F8981288420DD2002211462046FFF71D
:102FC00044FEC4F8985200231A461946204600F0E1
:102FD000C4F816E0D4F8B402C16829B194F89C0290
:102FE000032801D1204688478021204600F035F98A
:102FF0002046FFF74CFE04E0FFE78021204600F06A
:103000002CF994F8A002012804D184F8A05201E020
:10301000204690470020AAE770B51546044649B1FE
:10302000D4F8B40282691AB194F89C02032830D013
:10303000022070BDD4F8941204F5AA70032902D0BE
:1030400005291ED027E0D0E903218A420BD9531A63
:10305000C3600846834200D303469AB229462046FD
:10306000FFF7EBFD17E0D4F8B402016929B194F839
:103070009C02032801D1204688472046FFF71FFE07
:1030800009E000200146C4F89402204600F0E5F86B
:1030900001E020469047002070BDD0F8C002FDF747
:1030A000F2BF000010B504461C481D49C0F8D442C8
:1030B000C4F8C00201600821017102218171002160
:1030C0008172C1720173FEF713F908B1FDF719F9A6
:1030D0000022D4F8C0021823114604F53074FDF71D
:1030E0003FFD5823002280212068FDF739FDC023D1
:1030F000002281212068FDF733FD4FF48873002200
:1031000001212068FDF72CFD4FF4807300228221FD
:103110002068FDF725FD002010BD00000C140020E4
:10312000005C00400A0601F07F01D0F8C00201EB0C
:10313000810100EBC10001D5807C704790F85201FD
:10314000704710B51C461346D0F8C0022246FDF762
:10315000A3FFBDE81040FFF7C9BE10B5D0F8C0020C
:10316000FDF7C6FFBDE81040FFF7C0BE70B50022F6
:10317000044640231146FFF7E4FF40260125C4F82A
:1031800064613346002280212046C4F85851FFF77D
:10319000D8FF6662A56184F89C520020C4F89402AE
:1031A0006060C4F8A402D4F8B80228B1D4F8B4021C
:1031B0000021426820469047002070BD90F89C1284
:1031C000042903D190F89D1280F89C1200207047CA
:1031D00010B590F89C12032904D1D0F8B412C96933
:1031E00001B18847002010BD01740020704710B560
:1031F000D0F8C002FEF713F9BDE81040FFF776BE25
:1032000070B5044600F52A70054600F04AF8012022
:10321000C4F89402B4F8AE02C4F8980294F8A80274
:1032200010F01F010AD001290DD0022910D000F0A2
:103230008001204600F011F8002070BD294620468C
:1032400000F09DF8F8E72946204600F0C9F9F3E7B9
:103250002946204600F01CF9EEE710B5D0F8C00270
:10326000FDF75DFFBDE81040FFF740BE10B5D0F898
:10327000C002FEF7EEF8BDE81040FFF737BE90F849
:103280009C1280F89D12042180F89C120020704747
:1032900010B5D0F8C002FDF77AFFBDE81040FFF787
:1032A00025BE0A7802704A7842708A78CB7802EBA1
:1032B000032242800A794B7902EB032282808A79C9
:1032C000C97902EB0121C18070470246002011B18B
:1032D000C2F8B41270470220704710B5D0F8B4227B
:1032E00002241AB11268904700B90024204610BD8C
:1032F00070B50E461E4D897804462970012931D8D3
:1033000094F89C0202280BD003280FD031462046A7
:10331000FFF7A3FC29782046BDE87040FFF786BC84
:10332000D9B10320616084F89C0209E071B1606842
:10333000884212D0C1B22046FFF778FC297861603C
:103340002046FFF7CAFF02280CD006E0022084F8CE
:103350009C0220466160FFF769FC2046BDE8704092
:10336000FFF7ADBC31462046BDE87040FFF775BCA5
:103370007800002010B5FFF779FF002010BD2DE97F
:10338000F0410A78002612F0600208D0202A01D00D
:10339000402A70D1D0F8B422926890476DE04B7803
:1033A000002201250A2B66D2DFE803F0405D655755
:1033B000650805652C29FFF701FD5EE00446888855
:1033C000D8B9C888C8B94888802816D200F07F07C5
:1033D00094F89C02032810D084F89E723946204647
:1033E000FFF705FF2046FFF76AFC1FB1022084F8B3
:1033F0009C0242E084F89C523FE020463BE0FFF70D
:1034000077FF3AE0CB88012B35D190F89C32012B25
:1034100004D0022B02D0032B2DD104E082600122C4
:1034200000F1080116E00122011D13E090F89C2232
:10343000012A03D0022A01D0032A1CD1CA88022AF9
:1034400019D1C560D0F8A41209B10321C1600222CC
:1034500000F10C01FFF726FC0FE0498801290CD18F
:10346000C0F8A45211E090F89C32012B08D0022B36
:1034700006D0032B04D0FFF7F0FB3046BDE8F08107
:1034800049880129F9D1C0F8A422FFF718FCF4E714
:103490002DE9F0410A46044610780027097910F01A
:1034A00060030AD0202B01D0402B50D1D4F8B402B5
:1034B00011468368204698478FE0C0F341100128E9
:1034C00006D05078D0B301282AD003283FD107E096
:1034D000D4F8B402114683682046BDE8F04118478D
:1034E00094F89C02022802D0032872D10AE071B33A
:1034F00080296ED02046FFF7B0FE80212046FFF7DE
:10350000ACFE6AE0508838B931B1802904D0D08847
:1035100010B92046FFF7A1FE2046FFF7D0FB5CE084
:1035200094F89C020228E2D0032852D1508898BB1C
:103530004806F1D02046FFF7FAFCEDE7FFE794F8E4
:103540009C020026022803D0032842D112E040E06A
:1035500009B180293DD1080601F07F0000EB800011
:1035600004EB800101D5143101E001F5AA710222BA
:103570000E602AE0080601F00F0000EB800004EB6B
:1035800080000AD5806920B301F07F0000EB800045
:1035900004EB800514350BE01FE0D0F85801C0B1F2
:1035A00001F07F0000EB800004EB800505F5AA75B3
:1035B00041B1802906D02046FFF7B4FD10B10120AB
:1035C000286000E02E60022229462046FFF76AFBB1
:1035D00003E011462046FFF740FB3846BDE8F08186
:1035E00070B5054608780C4610F0600003D020281E
:1035F00001D0402816D195F89C02012803D002285A
:1036000001D003280ED1207901280BD8D5F8B402B7
:10361000826828469047E188014306D12846FFF793
:103620004EFB02E02846FFF718FB002070BD7047F4
:1036300000487047EC1100202DE9F0470C78002677
:1036400030F8243048F68F121340CA78002A78D018
:10365000012A7CD0022A02D0032A75D0012648F222
:103660008002134320F824300D7830F8253048F6D6
:103670008F7423402B43134320F825300D7B48F2F1
:10368000C00948F6BF734CF2800A4BF68F77EDB352
:10369000CD7891F800C0022D30F82C507DD048F63E
:1036A0008F6805EA0805154320F82C50B0F85050F3
:1036B00091F800C0054405EB0C15B1F808C02CF0DA
:1036C000010CA5F800C4B0F8505091F800C00544B2
:1036D00005EB0C15B1F80AC02CF0010CA5F808C4D4
:1036E0004D78002D7ED00D7830F825C05FEA4C4C27
:1036F00007D530F825C00CEA040C4CEA0A0C20F877
:1037000025C091F800C030F82C5000E022E06D0692
:1037100006D530F82C50254045EA090520F82C50F4
:10372000CC780D78012C30F8254004EA03047CD0D5
:1037300084F02003134320F82530C1E001E006E0C7
:1037400002E043F400738AE743F4C06387E743F47D
:10375000806384E74D784DB3B0F850500F7805443E
:1037600005EB0715CF8827F00107A5F800740F783F
:1037700030F827506D0606D530F82750254045EA29
:10378000090520F82750CC78012C07D00C7830F8A8
:103790002410194081F0200104E064E00C7830F836
:1037A00024101940114320F8241090E0B0F8503054
:1037B0000D78034403EB0513CD8825F00105A3F82C
:1037C0000854B0F850300D78034403EB0513B3F8F8
:1037D0000C54C5F30905A3F80C540D6903F20C430E
:1037E0003E2D00E045E00BD94FEA551CED0601D116
:1037F000ACF1010C1D884FF4004848EA8C2C0BE01A
:1038000035B34FEA550CED0701D00CF1010C1D88C2
:103810004FF6FF7808EA8C2C45EA0C051D800D78E0
:1038200030F825305B0408D500E046E030F825305C
:10383000234043EA0A0320F82530097861B130F8C3
:1038400021303B4083F40053134320F821303EE005
:103850001D8845F40045E1E70188394081F4405175
:103860001143018033E0254048F2801845EA0805FD
:103870001AE791F800C030F82C506D0406D530F8E6
:103880002C50254045EA0A0520F82C5091F800C03C
:1038900030F82C506D0606D530F82C50254045EAFE
:1038A000090520F82C500D7830F825403C4084F470
:1038B0004054144320F8254070E7144320F8254075
:1038C0000B7830F823103940114320F8231030468C
:1038D000BDE8F087002070472DE9F04391F80C8097
:1038E0004F780A7848F6BF7C4BF68F7948F2800310
:1038F00048F2C0054CF2800648F68F74B8F1000F0C
:1039000028D0002F30F822704FEA474748D0002FC8
:1039100005DA30F822702740374320F822700A7801
:1039200030F822707F0605D530F8227027402F43EB
:1039300020F822700D7830F825202240324320F8FC
:1039400025200C7830F8242002EA0C021A4320F8D3
:1039500024201AE07FB130F82260760605D530F8D1
:10396000226026402E4320F822600A7830F8221088
:1039700001EA0C010EE030F822506D0405D530F854
:1039800022502540354320F822500A7830F8221082
:1039900001EA0901194320F822100020BDE8F08354
:1039A000002F05DA30F822702740374320F82270C4
:1039B0000A7830F82260760605D530F82260264075
:1039C0002E4320F822600E7830F8262022402A4329
:1039D00020F826200C7830F8242002EA09021A4345
:1039E00020F82420C1E70020704700207047012103
:1039F00020F8401F00210180818001820846704725
:103A000030F8401F21F43F41018000207047002022
:103A1000704730B50A7BB2BB4A7848F68F7548F2DA
:103A20008004C2B10B7830F82320520607D530F855
:103A300023202A4048F2C0052A4320F82320CA78D0
:103A4000012A20D00A7830F8221048F6BF731940B6
:103A500081F0200114E00A7830F822305B0407D5A9
:103A600030F822302B404CF280052B4320F82230D6
:103A70000A7830F822104BF68F73194081F44051C8
:103A8000214320F82210002030BD10B54A78097873
:103A9000002A48F2800330F8212005D048F6BF7490
:103AA000224082F0100204E04BF68F74224082F430
:103AB00080521A4320F82120002010BD2DE9F04744
:103AC0000D464B78097B04464FF0000948F68F728B
:103AD00048F2800A4FF400474FF6FF78012B09D0D7
:103AE00000296FD0E87802286DD001286CD0012021
:103AF000BDE8F087AE692869864200D9064691B1D3
:103B0000E97802291ED0286A801B2862287834F8B8
:103B100020104906B4F85010214401EB001073D571
:103B2000A0F80C6416E1B3B2EA882046696900F097
:103B300067FAB4F850002978204400EB0110A0F88F
:103B400004640DE1296A814277D9297834F821008B
:103B5000104048F28012104324F82100286A801B8C
:103B60002862287834F820104906697871D511B197
:103B700001292AD030E0B4F85010214401EB0010A4
:103B8000B0F80C14C1F30901A0F80C1400F20C40B9
:103B90003E2E07D97109F20600D1491E028847EA74
:103BA000812107E04EB17108F20700D0491C02885C
:103BB00008EA81210A4302800EE0018841F40041B5
:103BC000018009E0F1E020E195E1B4F850201119FD
:103BD00001EB0010A0F80C646A89B3B22046696951
:103BE00000F00EFA6869304468612969286A8842E1
:103BF00002D9801B286202E00646C5F8209068784A
:103C000018B101282BD032E02FE0B4F85000297809
:103C1000204400EB0110B0F80414C1F30901A0F82E
:103C2000041400F204403E2E08D97109F20600D1B6
:103C3000491E028847EA812108E0A1E056B17108D7
:103C4000F20700D0491C028808EA81210A43028059
:103C50000DE00EE0018841F40041018007E0B4F876
:103C600050002978204400EB0110A0F804642A8950
:103C700071E011B1012927D02DE0B4F85010214492
:103C800001EB0010B0F80414C1F30901A0F804140A
:103C900000F204403E2E07D97109F20600D1491EF8
:103CA000028847EA812107E04EB17108F20700D08F
:103CB000491C028808EA81210A4302800BE001883E
:103CC00041F40041018006E0B4F85010214401EBBA
:103CD0000010A0F804642A89B3B22046696900F094
:103CE0008FF96869304468612969286A884202D975
:103CF000801B286202E00646C5F82090687810B163
:103D0000012836D026E0B4F850002978204400EB92
:103D10000110B0F80C14C1F30901A0F80C1400F262
:103D20000C403E2E07D97109F20600D1491E0288C7
:103D300047EA812107E04EB17108F20700D0491C23
:103D4000028808EA81210A43028003E0018841F4E5
:103D5000004101806A89B3B22046696900F050F9D8
:103D6000297834F8210048F6BF72104080F0300006
:103D70000FE1B4F850100819297800EB0110CFE6D4
:103D80002A7834F8220048F68F63184040EA0A0087
:103D900024F82200B4F850002A78204400EB0210E6
:103DA0008BB2A0F804342A89D6E7A9692869814230
:103DB00002D9091AA96102E00846C5F81890B4F8BA
:103DC00050102A78214401EB0211B1F80C24C2F3FF
:103DD0000902A1F80C2401F20C413E287DD94209C8
:103DE000C00600D1521E088847EA82220AE00888ED
:103DF00040F4004007E04208C00700D0521C088889
:103E000008EA822210430880BBE033BBB4F85000BC
:103E10002978204400EB0110B0F80414C1F3090123
:103E2000A0F80414296900F204403E2907D94B097F
:103E3000C90600D15B1E018847EA832307E041B130
:103E40004B08C90700D05B1C018808EA832319438B
:103E500002E0018841F400410180687810B1012836
:103E600028D030E0B4F850002978204400EB01104D
:103E7000B0F80C14C1F30901A0F80C14296900F280
:103E80000C403E2907D94B09C90600D15B1E0188A9
:103E900047EA832307E041B14B08C90700D05B1C08
:103EA000018808EA8323194302E0018841F40041B4
:103EB000018008E0B4F850100819297800EB0110CF
:103EC000298AA0F80C14E869C0B3297834F82100D5
:103ED000430401D5430605D400E046E044F2400324
:103EE00018424ED134F82100104048F2C00210436D
:103EF00024F8210045E0A9692869814202D9091AFC
:103F0000A96102E00846C5F8189013BBB4F8501038
:103F10002A78214401EB0211B1F80424C2F309020A
:103F2000A1F8042401F204413E2808D94209C3063D
:103F300000D1521E0B8847EA822208E021E078B1C6
:103F40004208C30700D0521C0B8808EA82221343A0
:103F50000B80697800293FF42EAF012909D010E0C9
:103F60000A8842F400420A80F3E700287FF443AF56
:103F70003DE7B4F8502011192A7801EB0211A1F89D
:103F80000C04297834F821004BF68F72104080F42D
:103F9000405040EA0A0024F821000020A8E5002152
:103FA000A0F844104FF43F41A0F8401000207047A3
:103FB0000148FDF703B900000C140020B0F84400DC
:103FC0007047000010B500EB42005C0800F580600F
:103FD00009D000BF30F8042B01F8012B120A01F8B8
:103FE000012B641EF6D1DA0701D00088087010BDDD
:103FF0000020704711B98021A0F84C1000207047B4
:1040000010B55B1C00EB42005B0800F5806009D036
:1040100011F8012B11F8014B42EA042220F8042B7D
:104020005B1EF5D110BDFEE701B584B001214FF450
:10403000807204A88DE807000B4600227821024810
:10404000FCF710FC05B000BD4804002001B584B0A9
:1040500001214FF4807204A88DE807000B4640222E
:1040600078210248FCF7FEFB05B000BD48040020A3
:104070000FB4084B10B504A902AA039800F02CF85D
:10408000044602A9002000F0D1F8204610BC5DF8DB
:1040900014FB00002D4200080907090E002804DB6C
:1040A00000F1E02080F80014704700F00F0000F1EC
:1040B000E02080F8141D704702E008C8121F08C1F4
:1040C000002AFAD170477047002001E001C1121F99
:1040D000002AFBD1704700002DE9FF4F89B09B46B5
:1040E0000446002506E025280BD05A460B99904738
:1040F000641C6D1C20780028F5D10DB02846BDE861
:10410000F08F0027B8460122474900E0074314F822
:10411000013F203B02FA03F00842F7D120782E2815
:1041200019D114F8010F47F004072A280ED06FF0B8
:104130002F022078A0F1300109290CD808EB880162
:1041400002EB410100EB0108641CF2E70A98641CD1
:1041500050F8048B0A9020780028CED0642808D02C
:10416000692806D075281ED05A460B9990476D1CB9
:1041700058E00A994FF00A0901C90A91002802DAA9
:1041800040422D2102E0390504D52B218DF8201065
:10419000012103E0F90704D02021F7E78A4608AEA1
:1041A0000DE00021FAE70A994FF00A0901C90A91C6
:1041B000F7E74946FCF728F8303106F8011D0028DA
:1041C000F7D1ADEB060000F12009780701D44FF0DC
:1041D0000108C84502DDA8EB090000E00020804688
:1041E000002706E008A85A46C05D0B9990476D1C51
:1041F0007F1C5745F6DB04E030205A460B99904768
:104200006D1CB8F10001A8F10108F5DC05E016F815
:10421000010B5A460B9990476D1CB9F10001A9F1A9
:104220000109F4DC641C65E7092801000A68531CD5
:104230000B6010707047FCF7FDFBFEF729FBFDF7E4
:1042400029FFFDF7F3FEFDF787FFFDF765FFFDF79B
:1042500003FF00F011F83220FCF72EF9FBE70146CE
:104260000020842900D0C81C704710B500B9012077
:1042700000F020FB002010BD10B500F041FB002035
:1042800010BD7FB50D4604464169B0F9080081B103
:10429000A16971B1FFF7E3FFD4E905128DE80700CA
:1042A000D4E900102B46226900F02DFC039004B0E5
:1042B00070BDFFF7D4FF03A9CDE90001208A2B468A
:1042C00082B2D4E9001000F0F1FB012801D00020F7
:1042D000EDE70398EBE700002DE9F041184C0F469D
:1042E0000546E6682068001D00F01CFA38B9206811
:1042F00090F82C1001208840216981432161681CBD
:1043000007D137B12168BDE8F0410E48091D00F022
:104310004DBA20683544B5424560216805D2A06B8E
:10432000BDE8F041091D00F029BA606B091D00F0DD
:1043300025FAA06A854200D2A562BDE8F08100009E
:104340008C010020C01700202DE9F041054600F047
:1043500039FA2E4CA068401CA06020682C4F10B188
:10436000606940B32DE02560A068012829D10026AE
:1043700006EB860007EB800000F0F2F9761C072EB2
:10438000F6D323488C3000F0EBF92148A03000F040
:10439000E7F91F48B43000F0E3F91D48C83000F0D9
:1043A000DFF91B48DC3000F0DBF919488C30606322
:1043B0001430A06305E02068E96AC06A884200D82A
:1043C0002560606A401C6062E96A012022698840B9
:1043D0001043206101EB810007EB8000291D00F0F4
:1043E000E5F900F00FFA606900280CD02068E96A4E
:1043F000C06A884207D207494FF080500860BFF377
:104400004F8FBFF36F8FBDE8F08100008C0100205B
:10441000E416002004ED00E010B5044690F85100C9
:1044200058B101280CD002280FD0502080F31188F9
:10443000BFF34F8FBFF36F8FFEE7206B00F0F6F9ED
:104440002046BDE8104000F0F1B910BD10484FF40F
:104450004061420706D0C01D0D4920F00700411AF7
:10446000C1F540610B4A00230144C2E90003083949
:10447000183A21F0070111604B600B600B1AC0E97C
:10448000001393604FF0004053605061704700008C
:10449000D4170020E0010020144E154CA6F1C807E7
:1044A0004FF08058DFF84C9012E000BF00F08AF91E
:1044B000F068C568281D00F035F9A068401EA060AE
:1044C0006068401E606000F09DF92846FFF7A4FF79
:1044D00060680028EAD138680128F9D9C9F8008055
:1044E000BFF34F8FBFF36F8FF2E70000AC170020D0
:1044F0008C01002004ED00E02DE9F0479A46DDE94B
:10450000098481466FF00303206B03EB82021044A1
:10451000089E20F00707780707D0502080F3118805
:10452000BFF34F8FBFF36F8FFEE7002561B100200F
:1045300023180A5C83F834200A5C12B1401C10284E
:10454000F6D384F8435001E084F83450072E00D3AA
:104550000626E662C4E91165201D00F00CF904F19D
:10456000180000F008F92461C6F107006462A06138
:10457000E56484F8505052464946384600F0C0F889
:104580002060B8F1000F01D0C8F80040BDE8F08706
:1045900030B5114900E011460A688242FBD34B68EE
:1045A0005C18844203D14068184448600846436858
:1045B0001C18944209D1084C183C2468A24209D026
:1045C00052681A4442600A6812680260814200D050
:1045D000086030BD0460F9E7E00100200648416B47
:1045E000096829B1416BC968C96849688162704727
:1045F0004FF0FF31FAE700008C01002008484068C6
:10460000401C4FF0500080F3118804D0BFF34F8F4F
:10461000BFF36F8FFEE7BFF34F8FBFF36F8FFEE7E0
:10462000E80100202DE9F0410546002700F09EF941
:10463000324E306808B9FFF709FF706905424ED164
:10464000C5B3083568070ED005F00700C0F10800B3
:104650000544680707D0502080F31188BFF34F8FBF
:10466000BFF36F8FFEE72DB37068854237D82348BC
:10467000183001460C6801E020460C466168A942EA
:1046800002D221680029F7D131688C4227D007680F
:104690002168016060680837411B10290FD9601933
:1046A000420708D0502080F31188BFF34F8FBFF32B
:1046B0006F8FFEE713E041606560FFF769FF616897
:1046C0007068401A7060B268904200D2B060706941
:1046D00001430020C4E90001F068401CF06000F0D4
:1046E000B1FA780707D0502080F31188BFF34F8FBD
:1046F000BFF36F8FFEE73846BDE8F081C8010020A8
:1047000010B5031F4FF080741C601B1F21F00101C6
:104710001960191F024B0B60143940380A6010BD34
:10472000FD450008D0E9013201699A60D0E9012312
:104730005A604A68824201D182684A60002202615E
:104740000868401E0860086870470000034B03605B
:1047500003F154000860802010607047F4010020CD
:1047600000F108014FF0FF32C0E90112C1600161A0
:1047700000210160704700210161704730B50B686E
:104780005A1C02D000F1080202E0026904E022464D
:10479000546825689D42FAD953684B6099608A60D5
:1047A000516008610168491C016030BD42684A607F
:1047B00093688B6093685960916008610168491C37
:1047C00001607047502080F31188BFF34F8FBFF313
:1047D0006F8F0A494868401C486001280CD108487E
:1047E000006810F0FF0F07D0502080F31188BFF34E
:1047F0004F8FBFF36F8FFEE770470000E801002086
:1048000004ED00E00849486828B1401E486001D125
:1048100080F311887047502080F31188BFF34F8FC9
:10482000BFF36F8FFEE70000E801002070B500289D
:104830002AD0164DA0F1080460686969084207D1C2
:10484000502080F31188BFF34F8FBFF36F8FFEE7C7
:1048500022683AB1502080F31188BFF34F8FBFF325
:104860006F8FFEE78843606000F080F860686968D9
:10487000084468602046FFF78BFE2869401C2861C9
:10488000BDE8704000F0DEB970BD0000C801002036
:104890004FF0E02000210161816105494FF47A72F7
:1048A0000968B1FBF2F1491E4161072101617047BE
:1048B0007400002010B5020014D00F48006B38B10E
:1048C000502080F31188BFF34F8FBFF36F8FFEE747
:1048D00000F04CF800211046FFF7FEFC00F0B2F9A2
:1048E000002807D105494FF080500860BFF34F8F73
:1048F000BFF36F8F10BD00008C01002004ED00E0BD
:1049000010B586B00024039405AA04A903A8049452
:10491000FFF71CFFDDE903010094CDE9011000233E
:104920000EA11048059A00F0EEF80F490028C86261
:1049300011D0502080F31188BFF34F8FBFF36F8FDA
:104940004FF0FF30886201204861CC6006B0BDE8BE
:10495000104000F041B806B010BD000049444C457D
:1049600000000000994400088C0100200248016BFF
:10497000491C0163704700008C0100201448016B42
:1049800011B10121C16170470021C1610169B1FA12
:1049900081F1C1F11F0101EB81020E4951F8223072
:1049A0006BB101EB820101F108034A6852684A6069
:1049B0009A4201D152684A60D16801607047502024
:1049C00080F31188BFF34F8FBFF36F8FFEE70000B6
:1049D0008C010020E41600201CB5264908780190BF
:1049E000FF20087008788DF800009DF800009DF801
:1049F000002000F0F000904207D0502080F3118892
:104A0000BFF34F8FBFF36F8FFEE79DF800001A4C86
:104A100000F0500020700720A06005E09DF8002005
:104A200052008DF80020401E9DF800201206F5D49B
:104A3000A060032807D0502080F31188BFF34F8F68
:104A4000BFF36F8FFEE74FF44070A06001980870CD
:104A50000A48016841F470010160016841F0704149
:104A60000160FFF715FF00206060FBF75DFB002091
:104A70001CBD000000E400E0E801002020ED00E0A3
:104A800010B5502080F31188BFF34F8FBFF36F8FA5
:104A900000F072F818B104494FF08050086000200F
:104AA00080F3118810BD000004ED00E02DE9FF5FE8
:104AB0008346DDE90E87994616468A469000FFF741
:104AC000B1FD05001CD05420FFF7ACFD040014D04C
:104AD0000020256384F85100CDE90240CDE900872C
:104AE0004B46324651465846FFF706FD2046FFF733
:104AF0002BFC012004B0BDE8F09F2846FFF796FE8E
:104B00004FF0FF30F6E7F0B585B0DDE90B640A9DA4
:104B1000A6B1DCB1542700972663022684F85160C1
:104B2000002604AFCDE90246CDE90057FFF7E4FCCB
:104B30002046FFF709FC049805B0F0BD502080F333
:104B40001188BFF34F8FBFF36F8FFEE7502080F3C4
:104B50001188BFF34F8FBFF36F8FFEE705484169A0
:104B600019B1006B18B10020704701207047022076
:104B7000704700008C0100202DE9F0412F4C0026E9
:104B8000206B28B1A069401CA0613046BDE8F081CF
:104B9000E5686D1CE56013D1606B006838B150208A
:104BA00080F31188BFF34F8FBFF36F8FFEE7606B09
:104BB000A16B6163A063206A401C2062FFF70EFDB9
:104BC000A06ADFF87C80854209D3606B0068A0B1E1
:104BD000606BC068C7687868854211D2A06220689F
:104BE000C06A00EB800158F82100012800D9012695
:104BF000E0690028C9D00126C7E74FF0FF30EDE794
:104C0000381DFFF78FFDB86A18B107F11800FFF7DC
:104C100089FDF96A0120226988401043206101EB77
:104C2000810108EB8100391DFFF7C0FDF86A21689A
:104C3000C96A8842C9D30126C7E700008C01002059
:104C4000E41600202DE9F0472C4D00242746286B60
:104C500038B1FFF7B7FD286B401E2863286B40B1C1
:104C600046E0502080F31188BFF34F8FBFF36F8F62
:104C7000FEE7A968224E0120D1B3A6F1B40980460F
:104C80003068E8B1F068C46804F11800FFF74AFD25
:104C9000201DFFF747FDE06A2A6908FA00F1114379
:104CA000296100EB800109EB8100211DFFF77EFDEA
:104CB000E06A2968C96A8842E2D3C5F81C80DFE748
:104CC0000CB1FFF78BFCAC6944B14646FFF754FFCB
:104CD00000B1EE61641EF9D10020A861E86938B125
:104CE0000849012738070860BFF34F8FBFF36F8F64
:104CF000FFF788FD3846BDE8F08700008C010020F2
:104D00009817002004ED00E084550008A92700084A
:104D10000000000000000000800000000000000013
:104D2000000000008C55000831280008FDFF00003D
:104D300000000000800000000000000000000000F3
:104D4000010202030405060708090A0B0C0D0E0FE9
:104D5000101000000000000000000102030406071C
:104D60000809000000000102030400000000000028
:104D70000000002F000000000700070000147F144F
:104D80007F1400242A7F2A1200626408132300364D
:104D90004955225000000503000000001C2241007C
:104DA000000041221C000014083E08140008083EC0
:104DB0000808000000A060000008080808080000BB
:104DC00060600000002010080402003E5149453E8A
:104DD0000000427F400000426151494600214145A8
:104DE0004B31001814127F10002745454539003C0F
:104DF0004A494930000171090503003649494936DD
:104E000000064949291E00003636000000005636CB
:104E100000000008142241000014141414140000AF
:104E20004122140800020151090600324959513E3D
:104E3000007C1211127C007F49494936003E4141F5
:104E40004122007F4141221C007F49494941007FA6
:104E500009090901003E4149497A007F0808087F95
:104E60000000417F4100002040413F01007F0814C5
:104E70002241007F40404040007F020C027F007FC3
:104E80000408107F003E4141413E007F09090906A8
:104E9000003E4151215E007F0919294600464949DB
:104EA00049310001017F0101003F4040403F001FA8
:104EB0002040201F003F4038403F00631408146327
:104EC00000070870080700615149454300007F4111
:104ED000410000552A552A55000041417F00000439
:104EE0000201020400404040404000000102040072
:104EF000002054545478007F4844443800384444D7
:104F0000442000384444487F003854545418000862
:104F10007E0901020018A4A4A47C007F0804047880
:104F20000000447D4000004080847D00007F102808
:104F300044000000417F4000007C04180478007C9D
:104F40000804047800384444443800FC242424181D
:104F50000018242418FC007C080404080048545459
:104F6000542000043F444020003C4040207C001C72
:104F70002040201C003C4030403C00442810284485
:104F8000001CA0A0A07C004464544C4414141414CD
:104F900014140000000000000000000000000000E9
:104FA0000000000000F800000000000000333000A6
:104FB000000000100C06100C0600000000000000AD
:104FC000000040C07840C0784000043F04043F0423
:104FD0000400007088FC08300000001820FF211E2B
:104FE0000000F008F000E018000000211C031E2162
:104FF0001E0000F00888700000001E2123241927DD
:10500000211010160E00000000000000000000003B
:105010000000000000E01804020000000007182053
:10502000400000020418E0000000004020180700C3
:105030000000404080F0804040000202010F010269
:105040000200000000F0000000000101011F01014A
:105050000100000000000000000080B070000000AF
:10506000000000000000000000000001010101013B
:1050700001010000000000000000003030000000CE
:1050800000000000000080601804006018060100A5
:10509000000000E010080810E000000F10202010B1
:1050A0000F00001010F8000000000020203F20201A
:1050B00000000070080808887000003028242221B1
:1050C0003000003008888848300000182020201167
:1050D0000E000000C02010F8000000070424243F48
:1050E000240000F8088888080800001921202011F1
:1050F0000E0000E0108888180000000F1120201119
:105100000E0000380808C83808000000003F000002
:1051100000000070880808887000001C22212122ED
:105120001C0000E010080810E000000031222211ED
:105130000F00000000C0C000000000000030300080
:1051400000000000008000000000000080600000FF
:105150000000000080402010080000010204081038
:105160002000404040404040400004040404040447
:1051700004000008102040800000002010080402F5
:105180000100007048080808F000000000303601F7
:105190000000C030C828E810E000071827242314B6
:1051A0000B000000C038E0000000203C2302022772
:1051B000382008F8888888700000203F20202011BF
:1051C0000E00C030080808083800071820202010FA
:1051D000080008F808080810E000203F20202010F0
:1051E0000F0008F88888E8081000203F20202320BE
:1051F000180008F88888E8081000203F2000030005
:105200000000C03008080838000007182020221EBF
:10521000020008F808000008F808203F21010121D9
:105220003F20000808F8080800000020203F202048
:10523000000000000808F8080800C08080807F0097
:10524000000008F888C028180800203F20012638F0
:10525000200008F8080000000000203F2020202047
:10526000300008F8F800F8F80800203F003F003F41
:10527000200008F830C00008F808203F2000071878
:105280003F00E01008080810E0000F102020201058
:105290000F0008F808080808F000203F210101016C
:1052A0000000E01008080810E0000F18242438500F
:1052B0004F0008F8888888887000203F2000030C81
:1052C000302000708808080838000038202121228A
:1052D0001C00180808F8080818000000203F2000EB
:1052E000000008F808000008F808001F202020200F
:1052F0001F000878880000C83808000007380E0131
:105300000000F80800F80008F800033C0700073C1C
:105310000300081868808068180820302C03032CCC
:1053200030200838C800C83808000000203F20009E
:10533000000010080808C83808002038262120205E
:105340001800000000FE020202000000007F404042
:105350004000000C30C000000000000000010638D2
:10536000C00000020202FE000000004040407F003A
:10537000000000000402020204000000000000001F
:10538000000000000000000000008080808080801D
:105390008080000202040000000000000000000005
:1053A000000000008080808000000019242222225A
:1053B0003F2008F8008080000000003F11202011ED
:1053C0000E000000008080800000000E11202020D0
:1053D0001100000000808088F800000E11202010CD
:1053E0003F200000808080800000001F22222222B7
:1053F0001300008080F0888888180020203F20203B
:1054000000000000808080808000006B9494949362
:10541000600008F8008080800000203F210000200C
:105420003F2000809898000000000020203F2020AE
:105430000000000000809898000000C08080807FFD
:10544000000008F8000080808000203F24022D30FA
:105450002000000808F8000000000020203F202065
:1054600000008080808080808000203F20003F20DE
:10547000003F8080008080800000203F21000020CD
:105480003F200000808080800000001F202020201E
:105490001F00808000808000000080FFA12020117C
:1054A0000E000000008080808000000E112020A0EF
:1054B000FF80808080008080800020203F212000AD
:1054C0000100000080808080800000332424242498
:1054D0001900008080E0808000000000001F202074
:1054E00000008080000000808000001F202020102D
:1054F0003F20808080000080808000010E30080600
:10550000010080800080008080800F300C030C3010
:105510000F0000808000808080000020312E0E313E
:105520002000808080000080808080818E7018063E
:10553000010000808080808080000021302C2221AA
:10554000300000000000807C020200000000003FEC
:10555000404000000000FF00000000000000FF00CD
:1055600000000002027C800000000040403F00007C
:105570000000000601010202040400000000000017
:10558000000000004C4F4749000000004F4C4544CC
:105590005F444953504C415900000000BC5500087D
:1055A00000000020F40100005802000880560008A6
:1055B000F4010020E4250000C84000088113F52C08
:1055C0001408252D1B0831041A59041A85041AD50C
:1055D000141A010817040309041201140202021626
:1055E0004083044057260201020301031A1A0313E1
:1055F000B9021B08B5041AB1041ADD04192F11826F
:105600001053127A130A0632022A401C1C09024364
:10561000571125C03209041B01020B130524161073
:1056200001052401100901042402020524061701C2
:1056300007058203081C1009048D320A1D070501A5
:1056400002432C070581070938442A40072A8107AD
:10565000112B0907440A3B04441B992AF01904132F
:10566000812B42081A450C138D291B08D304C11A3B
:1056700081182A751C19041A690401601AAA0141CB
:04000005080000ED02
:00000001FF
